:020000040800F2
:10000000E0100020D50200084F5C0008EF56000801
:100010004D5C0008711F00089D680008000000008A
:100020000000000000000000000000009D5E0008CD
:10003000B321000800000000C95D0008C16200088B
:10004000EF020008EF020008EF020008EF020008CC
:10005000EF020008EF020008EF020008EF020008BC
:10006000EF020008EF020008EF0200082D2100084F
:1000700039210008EF02000845210008512100083D
:10008000EF0200085D210008EF020008EF020008FF
:10009000751F0008EF020008EF020008EF020008D9
:1000A000EF020008EF020008EF020008EF0200086C
:1000B000EF020008EF02000800000000EF02000855
:1000C000EF0200080000000000000000EF0200083E
:1000D000000000004D68000859680008EF020008A1
:1000E000EF020008EF02000800000000000000001E
:1000F0000000000000000000000000000000000000
:1001000000000000000000000000000000000000EF
:10011000000000000000000061630008EF0200081A
:1001200000000000000000000000000000000000CF
:1001300000000000000000000000000000000000BF
:10014000EF020008EF0200080000000091510008D3
:10015000EF020008EF020008EF020008EF020008BB
:10016000EF020008EF02000800000000000000009D
:10017000000000000000000000000000000000007F
:1001800000000000EF02000800F002F800F092F812
:100190000AA090E8000C82448344AAF10107DA45E2
:1001A00001D100F087F8AFF2090EBAE80F0013F0A2
:1001B000010F18BFFB1A43F001031847906F0000AE
:1001C000B06F0000103A24BF78C878C1FAD852073F
:1001D00024BF30C830C144BF04680C6070470000C1
:1001E0000023002400250026103A28BF78C1FBD840
:1001F000520728BF30C148BF0B6070476E2900F01E
:10020000DB81702900F01D83662906F03D86652993
:1002100006F03A86672906F03786612906F03686A9
:1002200003681B0A28BF41F08001692900F088811A
:10023000642900F08581752900F082816F2900F022
:10024000AA82782900F0E982E92900F04582E429B0
:1002500000F04282F52900F03F82EF2900F0A782EA
:10026000F82900F0E8820368DB0928BF41F080012B
:10027000632900F0EB87732900F0F087E32900F091
:10028000FB87F32901F00080002070471FB506F0BE
:10029000F6FD01F04BF804000020002106F05EFDA1
:1002A000401C60600020002106F042FDE0601FBDA0
:1002B00010B510BD01F00CF81146FFF7E7FF06F08E
:1002C000C9FC01F0E9F803B4FFF7F2FF03BC01F049
:1002D00031F900000948804709480047FEE7FEE77A
:1002E000FEE7FEE7FEE7FEE7FEE7FEE7FEE7FEE7E6
:1002F00004480549054A064B704700005163000851
:1003000089010008E0080020E0100020E00C002037
:10031000E00C002053EA020C00F069802DE9F04B5C
:100320004FF00006002B1FBFB3FA83F503FA05F464
:1003300024FA05F65E4012BF1643B2FA82F502FABD
:1003400005F4C5F120051EBF22FA05FC44EA0C04A1
:10035000203556EA044C4FEA144418BF641C4FF091
:1003600000084FF00009904271EB030C39D30029CB
:1003700019BFB1FA81F701FA07F6B0FA80F700FA6F
:1003800007F6C7F120071EBF20FA07FC46EA0C0655
:100390002037B6FBF4FCA7EB0507103F07F01F0B57
:1003A000CBF120060CFA0BFB2CFA06F644BFB34641
:1003B0000026202FA4BF5E464FF0000B5BEA060C20
:1003C00008BF4FF0010B19EB0B09ABFB027C48EBAC
:1003D0000608C01B06FB02CC0BFB03CC71EB0C0127
:1003E000C1E70B46024641464846BDE8F08B13B5CF
:1003F0004FF000004FF00001AFF30080BDE81C405B
:10040000704700001CB50C46064B7B4469460090C3
:10041000204600F0EAF804460020694600F0F8F8AB
:1004200020461CBD030200004FF0000200B5134639
:1004300094469646203922BFA0E80C50A0E80C5004
:10044000B1F12001BFF4F7AF090728BFA0E80C50B5
:1004500048BF0CC05DF804EB890028BF40F8042BAE
:1004600008BF704748BF20F8022B11F0804F18BF1B
:1004700000F8012B704770477047704770B504460D
:1004800085690068C10601D5302600E02026C00736
:1004900007D070BDD4E9012130469047206A401C46
:1004A00020626D1EF6D570BD70B504468569007872
:1004B000C00707D170BDD4E9012120209047206AF0
:1004C000401C20626D1EF6D570BD09684A0501D535
:1004D00040B27047C905FCD500B2704709684A05AB
:1004E00001D5C0B27047C905FCD580B2704770B560
:1004F0000C460546012A05D02878800600D5EA6911
:10050000002302E0012305E05B1C934202D2E05C81
:100510000028F9D1A869E618C01AA861286A184409
:1005200028622846FFF7AAFF04E0D5E9012114F864
:10053000010B9047B442F8D32846FFF7B5FF70BDD2
:100540002DE9F0410646002410687529314616A5AC
:1005500010D0FFF7BAFF002802DA404213A507E0E7
:1005600031688A0701D512A502E0490704D511A513
:10057000012401E0FFF7B2FF00210A2206F124075F
:1005800009E0B0FBF2FCB0FBF2F302FB1C003030E0
:1005900078541846491C0028F3D123462A46304691
:1005A000BDE8F04100F061BA000000002D0000003D
:1005B0002B0000002000000011680268006A53054B
:1005C00001D508700AE0D30501D5088006E01306BE
:1005D00003D5C217C1E9000200E00860012070479E
:1005E00001694A1C02610878704700B58FB0CDE9F7
:1005F00001310021059105497944CDE903101146E7
:10060000684600F029F90FB000BD0000E5FFFFFFCC
:100610000A6802F8010B0A60704700002DE9FF5FCD
:1006200015468A460446DFF8AC80F8440027D8E92E
:1006300000103E46CDE9001010E03AF816106A4668
:1006400002A800F025FE411C07D02178890603D5B9
:10065000E269391891420DD80744761C207880064B
:1006600002D5E069B84205DDAE42E6DB3AF8160095
:100670000028E2D1A069C01BA0612046FFF7FEFE62
:10068000D8E90010CDE90010002017E03AF8181062
:100690006A4602A800F0FCFDB0F1FF3F81460BD096
:1006A00000250DF1080B05E0D4E901211BF8050038
:1006B00090476D1C4D45F7D308F10100B0428046CC
:1006C000E4DB206A384420622046FFF7EDFEBDE8F7
:1006D000FF9F0000226A00002DE9F0418046D21DF4
:1006E00022F007020025D2E90002F52915A614D050
:1006F000011E72F1000106DA0023D0EB030063EB68
:10070000020211A608E0D8F800108B0701D50FA649
:1007100002E0490701D50EA601251146002408F183
:10072000240704E000F05CF930323A55641C50EACA
:100730000102F7D12B46324621464046BDE8F04142
:1007400000F093B9000000002D0000002B00000015
:100750002000000030B4002100F1240408E002F081
:100760000705D208303542EA4372DB086554491C5C
:1007700052EA0305F3D10468002310A2250707D528
:10078000A40600D421B1C46901230DA2641EC46172
:1007900030BC00F06AB910B5044621461068FFF776
:1007A0009DFE02462046BDE810400023D2E7D21D40
:1007B00022F00701D1E90023CCE70000000000008F
:1007C00030000000F0B40D460188090502D5214C27
:1007D0007C4402E01F4C7C440E34002100F12406CE
:1007E00008E002F00F071209E75D42EA03721B09F5
:1007F0007754491C52EA0307F3D102780023120709
:1008000004D5702D06D009B1022311342246F0BC64
:1008100000F02BB901231034F8E770B504460D46FB
:1008200021461068FFF75AFE024629462046BDE8D9
:1008300070400023C6E7D21D22F00703D3E900234E
:10084000C0E70368126843F0200303600823C36114
:100850000023B7E7846800002DE9F05F894604466D
:100860004FF0000ADFF874B1FB44C0F820A0204626
:10087000E1688847002874D0252806D0D4E90121F2
:100880009047206A401C2062F1E700265F46204620
:10089000E16888472028054607DB312D05D2781905
:1008A00010F8200C08B10643F1E7B00701D526F097
:1008B0000406C4F81CA00027C4F818A02A2D09D0EB
:1008C000284606F089F838B304EB8708303DC8F8AD
:1008D000185019E059F8041B204604EB8702916177
:1008E000E1688847012F054618D1E069002820DA21
:1008F00026F020061DE0D8F8180000EB800005EB7C
:1009000040003038C8F818002046E168884705469E
:1009100006F062F80028EED1012F0AD02E2D08D162
:100920002046E16888477F1C0546022F46F02006D6
:10093000C4DBA069002803DA404246F00106A0614A
:10094000F00701D026F010066C2D0BD0682D09D0D1
:100950004C2D39D06A2D35D0742D35D07A2D33D029
:1009600016E038E0E1682F4620468847B842054641
:1009700009D16C2F26D04FF48060E16806432046F1
:100980008847054604E06C2F1AD04FF48070064368
:100990000DB3A5F14100192802D8203546F40066B0
:1009A0004A462946204626604E46FFF727FC80B17E
:1009B00001280BD0F61D26F0070000F1080956E7C4
:1009C0004020E4E78020D8E70020D6E706F10409BC
:1009D0004DE7284652E7206ABDE8F09F1468000002
:1009E00030B5B0F10A024FEA900E71F100034EEA01
:1009F000817EB0EB0E0061EB91014FEA101E4EEAD2
:100A0000017E10EB0E0041EB11114FEA102E4EEA61
:100A1000016E10EB0E0041EB11214FEA104E4EEA31
:100A2000014E10EB0E0041EB1141401841F1000165
:100A30004FEAD00040EA41704FEAD10110EB800547
:100A40004FEA810444EA907444EB01046D1944EBCD
:100A50000404521BA3414FF0000348BF0A3200D5E3
:100A600030BD401C41F1000130BD2DE9F0470D467D
:100A700099469246044600F124080168880604D588
:100A8000E06921F01001216000E00120A84201DDB1
:100A9000471B00E00027A1697A1902EB0900081A38
:100AA000A0612078C00602D42046FFF7E7FC0026AC
:100AB00008E0D4E901211AF806009047206A401C9A
:100AC000761C20624E45F4DB2078C0060AD520460D
:100AD000FFF7D4FC06E0D4E9012130209047206ADA
:100AE000401C2062381EA7F10107F4DC07E0D4E9BE
:100AF000012118F805009047206A401C2062281E3A
:100B0000A5F10105F3DC2046FFF7CEFC20780006B6
:100B100002D50220BDE8F0870120FBE770472DE9F0
:100B2000FF4F0C461E464FF0FF378BB0D2E9000155
:100B3000DDF860800A908A46C1F30A5505B93D4642
:100B4000002108464FF00000BAF1000F00F4400009
:100B500005DA00EB80004FF4400101EA50004FEA53
:100B60009059B9F1010F00DDB9460A9850EA4A00E0
:100B70000ED044F61050A5F2FF3545432F14B8F1BE
:100B8000000F1ED07542291E1EDDC9F100021CE0B7
:100B9000B8F1010F4FF0000001D0302103E0F24323
:100BA00005E02154401CB042FBDB3046002200210E
:100BB00021540B99C1F80880C1E900200FB0BDE8AD
:100BC000F08FBD1B6D1CDEE74A4600DA694206A8BD
:100BD00000F0F0FB06AB93E8070003AB83E80700E7
:100BE00050460A9900F0ADFC8DE80700A0F50050D2
:100BF0001F3800900398002D0ADD42F21F014A467B
:100C00000844002303A90390684600F016FF09E09A
:100C1000A0F500504A461F38002303A903906846F8
:100C200000F020FF8DE807000004000C03D04FF017
:100C3000FF30410800E01046B8F1000F03D0002259
:100C4000009215461EE0751E05D4FFF7C9FE30322E
:100C500062556D1EF9D5B3460122084302D0002229
:100C60007F1C04E02078302801D100227F1E002A5A
:100C7000099784D01DE0112D07DAFFF7B1FE30325D
:100C800062556D1C50EA0102F5D1084302D000986C
:100C9000C8B10EE00021681E05E0235C625C63546D
:100CA0002254401E491C8142F7DBAB46A81B401E64
:100CB0000990002004F80B000B98099AC0F80880EE
:100CC000C0E9002B7AE711264FF0000857E72DE91D
:100CD000F04F88460446D21D22F0070191B0D1E9B9
:100CE0000001CDE90A0105F007FE02460B98C00F8E
:100CF00001D02D2007E02068810701D52B2002E0DC
:100D0000202101EAC000032A099001D0072A05DB4F
:100D100003464146204600F00DFB0BE1207880069B
:100D200001D5E06900E00620B8F1650F814606D0E4
:100D3000B8F1660F18D0B8F1670F70D131E000201C
:100D4000B9F1110F009001DB112301E009F101035A
:100D50000AAA01A90CA8FFF7E2FEDDE90C70002643
:100D600009F10105834647E001204B4600904FF012
:100D700000470AAA01A90CA8FFF7D1FEDDE90DB0D2
:100D80000C995D46002610B909F101000D18B9EB68
:100D9000050003D4C0F1FF3609F10105A5EB0900F8
:100DA0002BE0B9F1010F01DA4FF001090020B9F190
:100DB000110F0090484601DD112300E003460AAA06
:100DC00001A90CA8FFF7ABFEDDE90C704D4600262B
:100DD0008346207800070AD4AB4500DA5D4601A8B7
:100DE000012D04DD411911F8011C302907D04F45B0
:100DF00002DA17F1040F04DA012082460FE06D1EBB
:100E0000EEE7002F02DCED1B3E4403E0781CA84215
:100E100000DD7D1CB81B00F1010A4FF0004720786F
:100E2000000703D4AA4501DB4FF0FF3A0021B7F1D8
:100E3000004F0DF143088DF8431024D002202B23DE
:100E4000002F01DA7F422D230A21021EA0F10100AA
:100E500000DC5FB197FBF1FC97FBF1F201FB1C7C1E
:100E600017460CF1300C08F801CDEEE7A8F10100AF
:100E700003702188090501D5452100E06521A0F115
:100E8000010800F8011C09980FA9A1EB0807FF1D34
:100E900000B10120411901EBEA70A1693844081A38
:100EA000401EA0612078C00602D42046FFF7E6FA73
:100EB000099828B1D4E901219047206A401C20629A
:100EC0002078C00622D52046FFF7D8FA1EE0002E73
:100ED00004DBB34502DD01A8805D00E03020D4E9E9
:100EE00001219047206A401C2062761CAAF1010073
:100EF0005FEA000A0AD100F019FAC0680168405C94
:100F0000D4E901219047206A401C2062281EA5F1E7
:100F10000105DCDC07E0D4E9012118F8010B90475A
:100F2000206A401C2062381EA7F10107F3DC20462E
:100F3000FFF7BAFA032011B041E600002DE9F04FA7
:100F400004460D46D21D22F0070089B0D0E9009773
:100F50004846394605F0D0FC0246F80F01D02D2353
:100F600007E02068810701D52B2302E0202101EA58
:100F7000C0038DF820300BB1012000E00020032ACF
:100F8000824601D0072A04DB2946204600F0D2F928
:100F90003FE12078800601D40D2500E0E569C7F324
:100FA0000A560D2D49DA00214FEA175B08464FF02B
:100FB0000000002F00F4400007DA00EB80004FF43F
:100FC000400100EBD07001EA60008115012901DDCC
:100FD0004FF0FF3100224FEA850CBCF1180F06D309
:100FE0001346ACF118004FF08052C24003E04FF4BA
:100FF000801323FA0CF30CF10C0CBCF1200F04D37A
:10100000ACF1200C09FA0CF001E007FA0CF0002911
:101010004FF0004801DD18B90FE00ED140450CD368
:1010200019EB02095F4121B9404502D19F4329EAEA
:101030000209BBEB175F00D0761C2088000502D5A3
:101040007B48784402E07A487844193808AA30236B
:1010500002F80A30037C0AF10101002E0AF1020AAB
:1010600053546A4602DC4FF0300101E04FF0310189
:101070004FF001088DF8001002D0A6F2FF3603E011
:1010800059EA470100D06B4E002D02DC2178090798
:1010900004D54FF002082E218DF80110C44600211E
:1010A0000BE0C7F303433F01C35C491C6D1E02F80C
:1010B0000830052908F1010801DA002DF1DC0021D2
:1010C0000CE000EB1973491C1B786D1E082902F80F
:1010D00008304FEA091908F1010801DA002DF0DCA7
:1010E00021688B0602D516E0A8F10108E04505DD70
:1010F00002EB080313F8013C302BF5D0B8F1000FD8
:1011000009DD02EB080313F8013C2E2B03D109077C
:1011100001D4A8F10108002D05DD3E2102F80810D8
:101120006D1E08F10108407C002E02F8080008F14D
:10113000010804DA2D20764202F8080002E02B2094
:1011400002F808000A214FF47A70864208F101087B
:101150000BDB96FBF0F3303302F8083096FBF0F32C
:1011600008F1010800FB136601E0642E0CDB64202B
:1011700096FBF0F3303302F8083096FBF0F308F1F9
:10118000010800FB136601E00A2E06DB96FBF1F076
:10119000303002F8080008F1010896FBF1F001FB7D
:1011A0001060303002F80800A16908F1010808EB6E
:1011B000050202EB0A00081AA0612078C00602D4DA
:1011C0002046FFF75BF9216A08AE01EB0A002062B6
:1011D00004E0D4E9012116F8010B9047BAF1010AA5
:1011E000F7D22078C00602D52046FFF747F96E46B1
:1011F00009E016F8010B3E280FD0D4E901219047F1
:10120000206A401C2062B8F10108F2D22046FFF7A4
:101210004BF909B00320BDE8F08F206A2844206212
:1012200003E0D4E90121302090476D1EEBD3F8E7AD
:101230005E60000002FCFFFF10B5436913B1AFF31D
:10124000008001E0FFF753F9012010BD127800F192
:1012500024010A7000224A700122EDE711684FF064
:10126000FF32E9E710B5436913B1AFF3008001E045
:10127000FFF7D4F9012010BD128800F12401828407
:101280000022C2840122EDE711684FF0FF32E9E746
:1012900070B516460C46054600F040F8036893F812
:1012A0000101012806D0FF2C0FD8185D68B101207C
:1012B0002C7070BDD3F807013246214603F20713A4
:1012C00003442846BDE8704018474FF0FF3070BD1A
:1012D000754600F0EBF8AE4605006946534620F02F
:1012E0000700854618B020B5FFF702F8BDE820409A
:1012F0004FF000064FF000074FF000084FF0000BD2
:1013000021F00701AC46ACE8C009ACE8C009ACE884
:10131000C009ACE8C0098D467047000010B500F068
:1013200005F8001D10BD00BF355A00000048704789
:101330009C0800202DE9F0411F4604460326016861
:10134000072A01F4006004DB08B116A505E016A524
:1013500003E008B115A500E015A521F010002060FC
:10136000A069C01EA0610FB1401EA0612046FFF71A
:1013700085F84FB1D4E9012138469047206A401CD6
:101380002062C01C206206E0206AFAE7D4E901214D
:1013900015F8010B9047761EF8D22046FFF784F827
:1013A000BDE8F0814E414E006E616E00494E460030
:1013B000696E66002DE9F047814616468AB03548C9
:1013C00078440DC88DE80D0032487844801C03AC89
:1013D0000DC884E80D0041F69B300844372190FB8E
:1013E000F1F290FBF1F5A5F1800501FB12041B3C25
:1013F00002D56442012000E00020DFF898A080467A
:101400000027FA44AAF1BE0A0EE0E0070AD03246ED
:10141000684607EB470101230AEB810100F022FB3C
:101420008DE8070064107F1C002CEED1194F7F441B
:10143000AE3F19E0E80715D007EB04100DF1180ACC
:1014400090E80E008AE80E00C068F04201D19819B9
:1014500008903246012306A903A800F003FB03AB62
:1014600083E807006D10641C002DE3D14FF00103E9
:1014700032466946B8F1000F03A802D000F0DDFA49
:1014800001E000F0EFFAC9E90001C9F808200AB04C
:10149000BDE8F087705D000010B50446AFF3008032
:1014A0002046BDE81040FEF70EBF00000048704720
:1014B0007C0800204FF0013C50F8042B51F8043B0D
:1014C0009A4221D1A2EB0C03934313EACC1317D118
:1014D00050F8042B51F8043B9A4215D1A2EB0C03AF
:1014E000934313EACC130BD150F8042B51F8043B6F
:1014F0009A4209D1A2EB0C03934313EACC13DBD03D
:101500004FF00000704700BFD01A01BAB1FA81F164
:1015100001F0180122FA01F0CB40C1F12001DBB249
:10152000C0B2C01A2CFA01F3D11A914311EAC311C7
:10153000E6D1704701491820ABBEFEE72600020045
:1015400070475FEA400C08BF91F0000F4FEA8C2310
:101550004FEAC12243EA51514FEA1C5018BF00F52F
:10156000F0404FEA300018BF41F000415FEA6C5C88
:1015700000F02980BCF1FF3F08BF40F08040704779
:10158000130C06BF12044FF0100C4FF0000C130E9A
:1015900004BF12020CF1080C130F04BF12010CF16E
:1015A000040C930F04BF92000CF1020CD30F04BF84
:1015B00052000CF1010C11464FF00002A0F11F0087
:1015C000A0EB0C00704711F0004F08BF704731F0DE
:1015D00000413FF4D5AF0B0C06BF09044FF0100CCF
:1015E0004FF0000C0B0E04BF09020CF1080C0B0F9E
:1015F00004BF09010CF1040C8B0F04BF89000CF12E
:10160000020CCB0F04BF49000CF1010CCCF12003FC
:10161000A0EB0C0022FA03F302FA0CF241EA0301F8
:1016200000F10100704720F07F4C80EA030023F0B6
:101630007F47ACEB070303F57C5300F0004003F158
:10164000FF032DE980494FEA154B09B44FEA1443D3
:1016500025EA0B4E24EA03480FF2042606EB132773
:1016600049083E785FEA320203FB0667C7F50007C8
:1016700007FB06F64FEA54374FEAD64606F1020654
:1016800007FB066CCCF1005C4FEA1C472CEA074CC8
:1016900007FB06F40CFB06F504EB15464FEA96161D
:1016A00034BF00204FF000404FEAD13706FB07FC63
:1016B0004FEA1C4C0CFB0BF7D21B03FB0CF761EB46
:1016C00007010CFB0EF7B0EB074072EB17420CFB67
:1016D00008F734BFA2EB0742B2EB074261EB1741B8
:1016E0004FEA0C444FEA910706FB07FC4FEA1C4CFB
:1016F0000CFB0BF7B0EBC74072EB573203FB0CF758
:1017000034BFA2EBC742B2EBC74261EB57310CFBCF
:101710000EF7B0EBC70072EB57720CFB08F734BF43
:10172000A2EBC702B2EBC70261EB5771039F4FEA0E
:10173000816141EA921104EBCC044FEAD1374FEAC0
:10174000826206FB07FC42EA90124FEA80604FEA91
:101750001C4C0CFB0BF7D21B03FB0CF761EB0701D6
:101760000CFB0EF7B0EB074072EB17420CFB08F7CF
:1017700034BFA2EB0742B2EB074261EB17414FEADD
:101780008C554FEA910704EB9C2406FB07FC4FEABB
:101790001C4C0CFB0BF7B0EBC74072EB573203FB52
:1017A0000CF734BFA2EBC742B2EBC74261EB573133
:1017B0000CFB0EF7B0EBC70072EB57720CFB08F78F
:1017C00034BFA2EBC702B2EBC70261EB577115EB56
:1017D0004C254FEA816141EA92114FEA82624FEA59
:1017E000D13742EA901206FB07FC44F100044FEAAD
:1017F00080604FEA1C4C0CFB0BF7D21B03FB0CF771
:1018000061EB07010CFB0EF7B0EB074072EB1742E0
:101810000CFB08F734BFA2EB0742B2EB074261EBC7
:10182000174115EB1C154FEA813141EA92414FEA0D
:10183000823242EA90424FEA80304FEA0C7644F11D
:10184000000448EA03434EEA0B484FF0000EB2EBA7
:10185000080C71EB030724BF624639464EEB0E0EAF
:101860004FF0000B0018524149414BEB0B0BB2EB10
:10187000080C71EB03077BF1000B24BF624639466D
:101880004EEB0E0E4FF0000B0018524149414BEB4E
:101890000B0BB2EB080C71EB03077BF1000B24BFC1
:1018A000624639464EEB0E0E51EA020718BF46F06B
:1018B000010616EB0E7655F1000254F1000103D536
:1018C000BDE88901BDE80088BDE88901BDE80048A0
:1018D000B619524141EB0101A3F101037047808029
:1018E0007F7E7D7C7B7A797877767675747372717A
:1018F00071706F6E6E6D6C6C6B6A6A696868676632
:1019000066656464636362616160605F5F5E5E5DC3
:101910005D5C5C5B5B5A5A59595858575756565537
:1019200055555454535352525251515050504F4F99
:101930004F4E4E4D4D4D4C4C4C4B4B4B4A4A4A49E9
:10194000494948484847474747464646454545442C
:101950004444444343434342424242414141002BB9
:101960009C4630D477002BD01CB54FEA370703B420
:101970004FF010004FF01001BAF1000F06D0BCF18B
:10198000000FDCBF40F0080040F008014FF00000FD
:101990000FBCBDE810400BF1010BBBF1010F08BFFC
:1019A0005FEA170722BF12F1010211F101014FF0A6
:1019B000004143F1000300F0004043EA000070479B
:1019C000F9D35708D0E746EA064613F1400F4FEA2D
:1019D00016461FDD13F1200FDFBF16430A46002114
:1019E00020335B42BED0C3F1200746EA064602FA26
:1019F00007F74FEA164646EA0706C3F1200722FA20
:101A000003F201FA07F721FA03F14FF0000342EA6B
:101A10000702A7E746EA020646EA06464FEA1646E6
:101A200046EA0106BCBF46EA0646360C4FF0000304
:101A30004FF000024FF0000194E72DE9804C9A46E8
:101A4000934670B491E8380007C831EA400C48BFAB
:101A500034EA430C03D5FFF7E6FDFFF780FFF0BC47
:101A6000BDE8008C2DE9804C9A46934670B491E80D
:101A7000380007C810F0804F08BF13F0804F03D123
:101A800000F005F8FFF76BFFF0BCBDE8008C20F01C
:101A90007F4780EA030023F07F4C07EB0C03A3F59C
:101AA0007C5300F00040A3F1FE0392F0000F00F021
:101AB000B38095F0000F00F077802DE901494FEADF
:101AC00011404FEA144621EA004800FB06FC24EAD4
:101AD000064708FB06F607FB08F800FB07F718EBBC
:101AE00006484CEB164C4FEA124B18EB07484FEAEE
:101AF00015464CEB174022EA0B4E0BFB06FC25EA81
:101B000006470EFB06F607FB0EFE0BFB07F71EEB68
:101B1000064E4CEB164C4FF000061EEB074E4CEBFE
:101B2000174B18EB0B0840F1000018EB0E0B58EBAD
:101B3000000840F100008F1A4FF000013CBFC9437C
:101B4000661B14BFB5EB040C00213CBFC943F61B58
:101B50004FEA17444EEA8E0E27EA04454FEA1C4727
:101B600004FB07622CEA074C05FB07F70CFB05F6A4
:101B700004FB0CFC16EB074642EB174216EB0C4637
:101B800042EB1C421BEB060658EB0202414146EABF
:101B90009E0601D5BDE80189B619524141EB01010C
:101BA000A3F10103BDE801894FEA14454FEA11474B
:101BB00024EA054621EA074C05FB07F406FB07F774
:101BC0000CFB06F105FB0CFC11EB074144EB174441
:101BD0004FEA124711EB0C4144EB1C4422EA074C3C
:101BE00005FB07F206FB07F70CFB06F605FB0CFCF2
:101BF00016EB074642EB174216EB0C4642EB1C4530
:101C00006A1854F1000148BF7047B619524141EBC0
:101C10000101A3F10103704795F0000F37D04FEA9F
:101C200011424FEA144721EA024624EA074C02FB1C
:101C300007F106FB07F70CFB06F402FB0CFC14EBA8
:101C4000074441EB17414FEA154714EB0C4441EBB5
:101C50001C4125EA074C02FB07F506FB07F70CFBC6
:101C600006F602FB0CFC16EB074645EB174516EB98
:101C70000C4645EB1C42121951F1000148BF704758
:101C8000B619524141EB0101A3F1010370474FEA3C
:101C900014454FEA114724EA054621EA074C05FBA3
:101CA00007F106FB07F70CFB06F24FF0000605FBF9
:101CB0000CFC12EB074241EB174112EB0C4251EBCB
:101CC0001C4148BF7047921841EB0101A3F1010389
:101CD00070470146406A026C12F0500F03D0806BCF
:101CE000026B08461047016C41F400710164016801
:101CF000C96811F4406F0CD1417E51B9016C21F4D7
:101D000080710164016CC90403D4016C41F00101CC
:101D1000016400F029BD406A016C41F0400101649A
:101D2000416C41F00401416400F020BD406A00F0C4
:101D30001CBD000070B504460068816801F0030115
:101D400001292AD10168C90727D0816801F00D0156
:101D5000012914D1816841F00201816021680320CA
:101D6000086001F0D7FC054613E000BF01F0D2FC8B
:101D7000401B02280DD920688068C00709D0206C5C
:101D800040F010002064606C40F0010060640120AD
:101D900070BD20688068C007E8D1002070BD0000D9
:101DA00070B504460068816801F00301012902D181
:101DB0000168C90725D18168134A114212D181688F
:101DC00041F00101816001F0A5FC054614E000BF6F
:101DD00001F0A0FC401B02280ED920680068C04317
:101DE000C00709D0206C40F010002064606C40F007
:101DF00001006064012070BD20680068C043C00716
:101E0000E6D1002070BD00003F00008000F1080115
:101E100031EE402A81EC040A71EEE01A82EE211ABA
:101E200000EEC10AD0ED070A60EE810AC0ED070A94
:101E300080ED060A203004F052BD10B5044688B289
:101E400020806168401AE06404F1200004F028FD5D
:101E5000D4ED140A94ED060A94ED071AF8EEE00AA0
:101E600000EE810A84ED150A10BD000010B503F0E4
:101E7000FDFC03F03DFC03F089FC0021044800F068
:101E80009BF9BDE810400021024800F095B9000020
:101E9000DC0300202C04002000F0F6BD00F0DBB9CC
:101EA00000B58BB003F0C0FC00200121CDE9060194
:101EB000089100900190029003900590049069466B
:101EC000054800F0DFFE044801F0D4F90221024881
:101ED00000F05EFE0BB000BD0405002003F0FCBC6A
:101EE0000F21014801F083BE2C05002010B503F03E
:101EF00011FDBDE810404FF4E021014801F046BE5D
:101F00002C05002010B5054C206004480830016005
:101F1000001D0260001D036010BD00001C74014024
:101F200010B503F005FE0E480068016841F0040199
:101F300001600B4802F08EFC03F064FE00210848AB
:101F400002F004FF0421064802F000FF08210448C3
:101F500002F0FCFEBDE810400C21014802F0F6BE84
:101F600008060020014802F0A1BC00005406002031
:101F7000FEE70000014800F077BF000004050020E4
:101F800010B58AB040F2112000230290049308207B
:101F9000CDE90530334800930193D0ED750A90EDFB
:101FA0007E2AD0ED761A30489FED300AF5EEC00A51
:101FB00090ED3F1AF1EE10FA01D2F0EE400AB5EEC4
:101FC000C02AF1EE10FA01D2B0EE402AF5EEC01AA6
:101FD000F1EE10FA01D2F0EE401AB5EEC01AF1EEB1
:101FE00010FA01D2B0EE401A9FED210A60EE800A8D
:101FF000FDEEE00A10EE901A62EE000A21EE800A71
:102000008DF80010090AFDEEE00A8DF8011010EEBF
:10201000900AFDEEC00A8DF80200000A10EE902A28
:102020008DF803008DF80420100ABDEEC10A8DF86A
:102030000500104810EE104A4178E4B203290DD093
:1020400080788DF8060000BF8DF8074008AB6A461F
:1020500002A9094800F0AEFD0AB010BD8DF80630A7
:10206000F2E70000380000203C02002000000000E1
:102070000000C842100000200405002070B526486A
:10208000264DB7EE001A2DED028B002490ED7E8ACE
:10209000D0ED7B0A88EE200AD5ED440A70EEC10A25
:1020A00020EE200AF7EE000A04F04EFC68EE080A63
:1020B0009FED1B1A85ED420A80EE810ADFED190AB9
:1020C00020EE200ABDEEC00A10EE100AC1B216487A
:1020D0006429817001D9642181704178022902D07C
:1020E000012909D013E08078142802D24FF48034FB
:1020F0000DE04FF480240AE00078022802D0012885
:1021000003D004E04FF4003401E04FF40024BDECB0
:10211000028B204670BD0000380000203C020020E9
:10212000004004440000C84210000020014801F0B3
:102130001CB900007C040020014801F016B9000021
:10214000C0040020014801F010B90000B0070020D1
:10215000014801F00AB90000F4070020014801F02D
:1021600004B9000038080020054A0168114414220F
:10217000B1FBF2F1890001640249C16370470000BC
:10218000F8FFFDBF0000024030B590F84050012438
:10219000AC40C56B6C60046863604368102B0368D7
:1021A00003D099600068C26030BD9A600068C16069
:1021B00030BD704772B6FEE72DE9F041044690F855
:1021C0003C00884601280AD0012584F83C5020466E
:1021D000FFF7B0FD06004FF0000703D037E0022004
:1021E000BDE8F08125642068816821F0804181602C
:1021F000B8F1010F04D12068816841F0804181600D
:102200002068816841F00041816001F083FA054651
:1022100013E000BF01F07EFA401B0A280DD92068A8
:102220008068002809DA206C20F0020040F01000DD
:10223000206484F83C700120D2E720688068002880
:10224000E8DB206C20F0020040F00100206484F8FC
:102250003C703046C4E710B504460068806800074B
:1022600066D494F83C0001280CD0012084F83C008E
:102270002046FFF795FD01004FF0000204D084F8DE
:102280003C2056E0022010BD206C42F2010398432E
:1022900040F4805020644FF0A040D0F80833DB06B3
:1022A00002D02368834203D1236C23F4801302E01D
:1022B000236C43F480132364236CDB0500D4626435
:1022C00084F83C20236860221A602268D3689B024D
:1022D00003D5536843F4806353606269082A226817
:1022E000536802D043F0600306E023F020035360FC
:1022F0002268536843F0400353602268D3689B010F
:1023000017D4D0F80833DB060DD0D0F8083303F02B
:102310001F03062B07D0D0F8083303F01F03072B49
:1023200001D0824205D1906840F00800906000E042
:102330000221084610BD000070B5026800234FF06E
:10234000A04494B0A24200D1314C009490F83C409B
:10235000012C1FD0012480F83C40926852074CD4D5
:10236000009A9268520748D42A4A0D6840F61F74B2
:1023700045B3956890F8306025F4604545EA4635E8
:102380004E68354395600568AE6806F00306012E79
:1023900006D102E0022014B070BD2D68ED0731D1E6
:1023A000009DAD6805F00305012D03D1009D2D684A
:1023B000ED0727D10D6889680D439168A1430D434E
:1023C00095601FE0916821F46041916001688D681B
:1023D00005F00305012D02D10968C90712D1009942
:1023E000896801F00301012903D100990968C9072F
:1023F00008D19168A143916004E0016C41F0200193
:1024000001640123002180F83C101846C3E7000056
:102410000001005000030050F0B594B00025009575
:1024200090F83C202E46012A19D0012780F83C70F4
:1024300003689A6852077CD44A681F24052A11D27F
:10244000D3F830C002EB4202520094402CEA040C54
:102450000C6894404CEA040CC3F830C035E002200C
:1024600014B0F0BD0A2A0FD2D3F834C0521F02EBC9
:102470004202520094402CEA040C0C6894404CEA4E
:10248000040CC3F834C020E00F2A0FD2D3F838C0B0
:102490000A3A02EB4202520094402CEA040C0C6807
:1024A00094404CEA040CC3F838C00EE0D3F83CC0AA
:1024B0000F3A02EB4202520094402CEA040C0C68E2
:1024C00094404CEA040CC3F83CC00268936813F0D3
:1024D0000C0F4FF0070374D1D1F800E0BEF10A0FE2
:1024E00010D39469AEF10A0E0EEB4E0C03FA0CFEFB
:1024F00024EA0E04D1F808E00EFA0CFE44EA0E04B9
:1025000094610FE0D2F814C00EEB4E0403FA04FEFF
:102510002CEA0E0CD1F808E00EFA04FE4CEA0E0C80
:10252000C2F814C002684C69D2F80CC0CCF3C10CDC
:1025300000E0E1E04FEA4C0C04FA0CF4D1F810E0B2
:10254000DFF810C2BEF1010F42D0BEF1020F4DD034
:10255000BEF1030F58D0BEF1040F63D0146E91F892
:1025600000C004F0F844B4EB8C6F03D1146E24F077
:10257000004414660268546E91F800C004F0F844F8
:10258000B4EB8C6F03D1546E24F00044546602689F
:10259000946E91F800C004F0F844B4EB8C6F03D152
:1025A000946E24F0004494660268D46E91F800C0E2
:1025B00004F0F844B4EB8C6F03D1D46E24F00044E3
:1025C000D4660268946804F00304012C3AD136E022
:1025D000D2F860E00EEA0C0E91F800C044EA8C6478
:1025E0004EEA040E4EF000441466EAE7D2F864E0C6
:1025F0000EEA0C0E91F800C044EA8C644EEA040E18
:102600004EF000445466DCE7D2F868E00EEA0C0EA7
:1026100091F800C044EA8C644EEA040E4EF0004487
:102620009466CEE7D2F86CE00EEA0C0E91F800C08A
:1026300044EA8C644EEA040E4EF00044C0E714688D
:10264000E4075ED1CC68012C06D052F8B03F0C787C
:10265000A740BB43136020E052F8B04F91F800C090
:1026600007FA0CF73C4314600A6804680A2A0AD384
:10267000A769093A02EB420293409F438B6893405B
:102680001F43A76109E06769521C02EB42029340B5
:102690009F438B6893401F43676109682E4A102946
:1026A00004D0112905D0122906D02AE093681B0214
:1026B00004E09368DB0101E093685B02002B20DB00
:1026C00003684FF0A044A34202D1244F009700E0DA
:1026D00000949F6807F00307012F02D11F68FF07CE
:1026E0000AD1009F8FB1BF6807F00307012F0CD1FB
:1026F000009F3F68FF0708D0016C41F02001016492
:10270000012580F83C602846AAE6102908D0112946
:102710001AD01229F5D1916841F480019160F0E757
:10272000A342EED1916841F4000191600C490D4A39
:102730000968B1FBF2F101EB8101490000E0491E9B
:1027400000910029FBD1DCE7A342DAD1916841F086
:102750008071E3E700F0FF830003005000010050A8
:102760000C00002040420F00704770477047000087
:10277000F0B54FF0000595B004002F462E460095A9
:1027800005D0206CC00648D4206C18B133E001207D
:1027900015B0F0BD6664E664A66484F83C6020462B
:1027A00000F0D8F820688068C00024D42046FFF7E5
:1027B000C1FA0546206CC0061DD4E5B9206C20F492
:1027C000885040F0020020642068816821F0405168
:1027D00081602068816841F0805181605748584984
:1027E0000068B0FBF1F000EB8000400000E0401E0C
:1027F00000900028FBD120688168C90002D580685C
:1028000080000AD5206C20F0020040F01000206407
:10281000606C40F0010060640125206CC0067DD42E
:10282000002D7BD12068816849077ED4216C21F47A
:10283000807141F00201216442494FF0A042904270
:1028400000D1414A0092826802F00302012A02D1BB
:102850000068C00710D1009840B1806800F0030004
:10286000012803D100980068C00705D18868626814
:1028700020F4403010438860D4E902100843616BB3
:10288000012902D04FF4805200E00022617E42EA2A
:102890004132104394F820203843012A0AD1A9B1CB
:1028A000216C21F0020141F020012164616C41F0B2
:1028B00001016164A16A012902D0E26A114308435F
:1028C00021688A6812F00C0F08D013E0A18C1F4A0F
:1028D00002EB4141014341F48030EBE7CA6844F226
:1028E00002039A43CA60217E94F83020890341EAAA
:1028F000420108432168CA68154B1A400243CA6066
:10290000206901282068016B21F00F0102D1E269E2
:10291000521E114301636664206C00E005E020F064
:10292000020040F00100206406E0206C20F002006C
:1029300040F0100020640125284629E70C00002003
:1029400040420F0000030050000100500000FEFF55
:1029500007C0F0FF2DE9F04F87B005460024029430
:102960000394049405940694404E2968404B3068C3
:102970008027401C3F4A4FF0030C4FF480784FF003
:1029800020094FF4405AB1F1A04F08D0A1F1A04B5B
:10299000BBF5807B35D13060012835D03CE030601C
:1029A000012807D1506940F080505061506900F013
:1029B00080500190506940F480205061506900F4CB
:1029C0008020019042F203000290CDF80CC002A9D1
:1029D000184600F08FFD294E274830607460B460BF
:1029E000F760C6F8108000157061C6F81890C6F838
:1029F0001CA0304600F00DFD08B1FFF7DBFBAE6315
:102A0000756207B0BDE8F08F506940F080505061AA
:102A1000506900F080500190506940F4802050616E
:102A2000506900F4802001904FF450400290CDF89E
:102A30000CC002A9184600F05DFD124E104830602F
:102A40007460B460F760C6F81080C0147061C6F896
:102A50001890C6F81CA0304600F0DBFC08B1FFF768
:102A6000A9FBAE63756207B0BDE8F08F34000020AB
:102A70000004004800100240080002407C040020CE
:102A80001C000240C00400202DE9F0470446006805
:102A900090468946806840076ED494F83C0001282F
:102AA0000CD001204FF0A04684F83C00D6F8080373
:102AB0004FF00007C00604D0012507E00220BDE862
:102AC000F0872046FFF76CF9050002D084F83C70CF
:102AD00053E0206C40F60161884340F4807020642C
:102AE000D6F80803C00602D02068B04206D1206C98
:102AF00020F4801020642068C06807E0216C41F455
:102B0000801121641E49884208D1F068800105D5F2
:102B1000206C20F4005040F480502064206CC004ED
:102B200004D5606C20F00600606400E0676484F8FF
:102B30003C70A16B13488862A16B1348C862A16BFB
:102B40001248086321681C2008602068416841F031
:102B5000100141602068C16841F00101C160216835
:102B600043464A464031A06B00F07AFC20688168F9
:102B700041F00401816000E0022528469FE7000043
:102B800000010050D31C00082D1D0008171D00086F
:102B900090F82020012A07D0022A05D0416A41F48A
:102BA0008021416201207047006842690A43426106
:102BB00000207047F0B590F820500468A468012DFB
:102BC00005D0022D03D0416A41F4802157E014F072
:102BD000406F01D1E5004FD5C4F301640125A54044
:102BE0001D608D684FF4C0739DB1CE6835434E684B
:102BF00045EAC605066803EB0417F5514FF4C275A4
:102C0000076805EB04150E697E51097D012905D081
:102C100009E00E88CD6845EA4655EBE701684E5954
:102C200046F480764E511179D579567941EA05619D
:102C300095792D0445EA062529434FF4C6760568A3
:102C400006EB0416A9511178D57841EA056195780B
:102C500052782D0445EA022211434FF4C4750268EC
:102C600005EB04155151006803EB0411425842F082
:102C7000010242500020F0BD416A41F4001141625E
:102C80000120F0BD10B590F820300268012B07D06C
:102C9000022B05D0416A41F480214162012010BD20
:102CA000D2F8000240F00100C2F80002087D00F0F6
:102CB0001F0301209840D2F81C328343C2F81C3213
:102CC000CB69B3B9D2F80C328343C2F80C328C8989
:102CD0004B6864F31F434C6902EBC404C4F84032F0
:102CE0000C890B6864F31F434C6902EBC404C4F8FD
:102CF0004432CB69012B16D1D2F80C320343C2F80F
:102D00000C320C884B6864F31F434C6902EBC4041B
:102D1000C4F840320C89CB6864F31F434C6902EB62
:102D2000C404C4F844328B69002BD2F804320FD0AB
:102D300053EA0003C2F804320B69002BD2F81432B4
:102D400008D00343C2F81432096A012904D008E00C
:102D50008343EFE78343F5E7D2F81C120143C2F83F
:102D60001C12D2F8000220F00100C2F8000200207C
:102D700010BD704770B590F82040012C05D0022C92
:102D800003D0416A41F4802128E0046809B3246932
:102D9000A40720D04FF4D874056804EB01142D5912
:102DA00015F00405956005682D591AD0ED08556099
:102DB00005682C5904F00204D4604FF4DA740568F5
:102DC00004EB01142E5906F00F06082E0CD308252B
:102DD0000DE0E468DCE7416A41F400114162012042
:102DE00070BD6D0D1560E3E72D5905F00F051561F8
:102DF00005682D59C5F30725956105682C59240CE4
:102E000054614FF4DC72046802EB0112A4581C7088
:102E10000468A458240A5C700468A458240C9C70AC
:102E20000468A258120EDA704FF4DE72046802EBE6
:102E30000112A4581C710468A458240A5C71046827
:102E4000A458240C9C710468A258120EDA71006810
:102E500029B1016941F020010161002070BDC16804
:102E600041F02001C160F8E72DE9F05F05460068F8
:102E700000244669D0F804908768D0F80CB0D0F8E8
:102E800010A0D0F81880F10748D0F90714D001211C
:102E90008160B80703D5284600F019FA0CE07807DE
:102EA00002D54FF4006407E0380702D54FF4805490
:102EB00002E0284600F00AFAF80516D529684FF412
:102EC00080708860B80503D5284600F002FA0CE04F
:102ED000780502D544F4005407E0380502D544F4DF
:102EE000804402E0284600F0F3F9F80316D529687B
:102EF0004FF480308860B80303D5284600F0EBF922
:102F00000CE0780302D544F4004407E0380302D50E
:102F100044F4803402E0284600F0DCF9300707D59D
:102F20005FEACB6004D52968102044F40074C860BF
:102F300070074FF0080707D55FEA0B7004D52868C3
:102F4000C760284600F056F9B00706D52868C06863
:102F5000800702D0284600F04FF9700607D55FEAD7
:102F6000CA6004D52968102044F480640861B00662
:102F700007D55FEA0A7004D528680761284600F083
:102F800075F9F00606D528680069800702D0284642
:102F900000F06DF9B00308D55FEAC96005D529686E
:102FA00010204860284600F063F9F00307D55FEA77
:102FB000097004D528684760284600F08DF9300470
:102FC00046D55FEA497040D5F00504D55FEAC87080
:102FD00001D044F00104B00504D55FEA887001D542
:102FE00044F00204700504D55FEA487001D544F04E
:102FF0000404300529D518F0700F26D008F07000B1
:10300000402815D006DC102809D020280AD0302806
:1030100016D10AE050280ED0602811D10EE044F0FD
:1030200008040DE044F010040AE044F0200407E036
:1030300044F0400404E044F0800401E044F480746F
:103040002868816921F07001816129680420486045
:10305000002C05D0686A204368622846FFF789FE85
:10306000BDE8F09F70B5040003D094F8200010B1C3
:1030700004E0012070BD204600F082F8206801685D
:1030800041F00101016000F045FB0546052604E022
:1030900000F040FB401B0A2811D820684068C00798
:1030A000F6D02068016821F00201016000F032FBD7
:1030B00005460BE000F02EFB401B0A2806D9606A8B
:1030C00040F40030606284F82060D2E720684068F5
:1030D0008007EFD4207E0128206801683DD021F0D0
:1030E00080010160607E01282068016838D021F0ED
:1030F00040010160A07E01282068016833D021F0E2
:1031000020010160E07E0128206801682ED041F096
:1031100010010160207F01282068016829D021F07A
:1031200008010160607F01282068016824D021F037
:1031300004010160D4E902010843D4E904121143F7
:1031400008436168491E08432168C8610020606225
:10315000012084F82000002070BD41F08001C0E70C
:1031600041F04001C5E741F02001CAE721F010011C
:10317000CFE741F00801D4E741F00401D9E70000AE
:1031800000B587B000210291039104910591069149
:103190000068A0F18041B1F5C84125D11348C1694B
:1031A00041F00071C161C16901F000710191416993
:1031B00041F480214161406900F4802001904FF486
:1031C0004070029002200390032005900920069091
:1031D00002A9074800F08EF900221146142000F0E1
:1031E000D9FD142000F0C8FD07B000BD001002405A
:1031F000000400487047000000B589B007AB6A467C
:103200000021FFF7B7FD0098B0F5047F20D1BDF88D
:103210001C009FED101A40BA00EE100A0E4A0F492A
:10322000F8EE400A80EE810A10EE100A904202DDAC
:103230009FED0B0A05E010EE100A884201DAB3EEAA
:103240000E0A084880ED3F0A00F064FA064948611A
:1032500009B000BD0000C842000002430000F04178
:10326000000002433C020020140000207047704719
:103270007047000070B5044690F82000012804D083
:10328000606A40F40020606218E0022084F82000A8
:103290002068016821F00101016000F03BFA054659
:1032A0000EE000BF00F036FA401B0A2808D9606A19
:1032B00040F400306062052084F82000012070BDD9
:1032C00020684068C007EDD1606270BD70477047EC
:1032D0007047704770477047704710B590F82110DD
:1032E0000022022905D00421816380F820200120DA
:1032F00010BD01680B6823F00E030B6001680B68BA
:1033000023F001030B6090F84030C46B012101FAF7
:1033100003F3636080F8211080F82020002010BDA6
:1033200010B590F821100024022903D004218163F4
:10333000012418E001680A6822F00E020A600168A0
:103340000A6822F001020A6090F84020C36B012154
:1033500001FA02F25A6080F82110002180F8201052
:10336000416B01B18847204610BDF0B4C16B0D68B8
:1033700001680C68066C042202FA06F32B420FD097
:1033800063070DD50B689B0603D40B6823F0040379
:103390000B6090F840108A40C16B4A60C16A1BE024
:1033A000022303FA06F72F424FF0000C4FF0010200
:1033B00016D0A70714D50C68A40605D40C6824F011
:1033C0000A040C6080F8212090F840108B40C16BFB
:1033D0004B6080F820C0816A002918D0F0BC0847F3
:1033E0000823B3402B4212D0230710D50B6823F0DB
:1033F0000E030B6090F84010C36B02FA01F15960A4
:10340000826380F8212080F820C0016BE4E7F0BCE3
:10341000704770B5040021D0022084F82100226892
:10342000116843F6F0708143D4E901031843D4E9ED
:1034300003352B43184363691843A3691843E369B1
:103440001843084310602046FEF78EFE0020A0635C
:10345000012184F8211084F8200070BD012070BD86
:1034600070B5044690F82000002501280CD00120FA
:1034700084F8200094F821600020012E06D084F802
:1034800020000225284670BD022070BD022684F867
:103490002160A0632068066826F0010606602046C9
:1034A000FEF772FEE06A00282068016802D041F051
:1034B0000E0106E041F00A0101602068016821F078
:1034C000040101602068016841F001010160D9E751
:1034D00070B5044600F01EF90546601C02D0044891
:1034E0000078044400F016F9401BA042FAD370BDE6
:1034F000000000202DE9F04FDFF8009200230126A4
:103500000325A9F1040B85B00F2709F1040AABF1DB
:10351000040EEAE006FA03F422407CD091F804C0DD
:103520000CF0030CBCF1010F02D0BCF1020F26D14C
:10353000D0F808C0CDF800C04FEA430C05FA0CF8EB
:10354000CDF810C0DDF800C02CEA080CCDF800C0A2
:10355000D1F80C80DDF810C008FA0CF8DDF800C0D6
:1035600048EA0C08C0F80880D0F804C02CEA040C23
:103570000C79C4F300149C4044EA0C0444600C79B8
:10358000E443A4070DD0D0F80CC04FEA430805FA75
:1035900008F42CEA040C8C6804FA08F444EA0C04DD
:1035A000C4600C7904F00304022C19D1DC0800EB90
:1035B00084040294246A4FEA437C4FEADC6CCDF821
:1035C00010C007FA0CFC24EA0C04D1F81080DDF8D6
:1035D00010C008FA0CF848EA0408029CC4F82080DD
:1035E00004684FEA430805FA08FC24EA0C0491F841
:1035F00004C00CF0030C0CFA08FC4CEA040CC0F8F4
:1036000000C04C6814F4403F6ED03D4CD4F818C054
:103610004CF0010C00E067E0C4F818C0A46923F086
:10362000030C04F001040094364C64440294A46832
:103630004FEA837C4FEA1C7807FA08FC24EA0C0462
:10364000B0F1904F06D0DFF8C0C0604505D14FF013
:10365000010C12E04FF0000C0FE0DFF8B0C0604545
:1036600002D14FF0020C08E0DFF8A4C0604502D19F
:103670004FF0030C01E04FF0050C0CFA08FC4CEA8B
:10368000040C029CC4F808C0D9F80040CC46D1F81C
:10369000048094435FEAC82800D51443CCF8004066
:1036A000DAF80040D446D1F8048094435FEA8828D1
:1036B00000D51443CCF80040DBF80040DC46D1F8DC
:1036C000048094435FEA883800D51443CCF8004066
:1036D000DEF80040F446D1F8048094435FEAC8382D
:1036E00000D51443CCF800405B1C0A6832FA03F49E
:1036F0007FF410AF05B0BDE8F08F00000804014072
:10370000001002400000014000040048000800488A
:10371000000C00480148806870470000000000204D
:1037200070477047704770477047704770477047E1
:10373000704710B590F8C020012A21D0012280F8EE
:10374000C020022380F8C1304B1C1BD00368D3F883
:10375000CC4344F00204C3F8CC430368D3F8CC4311
:1037600024F00C040C43C3F8CC430168D1F8CC33EB
:1037700043F00103C1F8CC3380F8C120002010BD14
:10378000022010BD0168D1F8CC3323F00203C1F848
:10379000CC33EAE770B590F8C130022B3CD090F8FA
:1037A000C030012B38D0012500F8C05F02234370E0
:1037B0001388948803F4E053C4F308041C4313896A
:1037C0006FF07E4603F400732343148A04F48044AC
:1037D0001C43938903F400432343948A06EA044478
:1037E0001C43936903F000732343146AD26904F005
:1037F00080441C4302F00042224350F8C03CB824ED
:1038000004EBC1141959054E31401143195145704B
:1038100000210170084670BD022070BD0020003CF0
:10382000704770477047704770477047FF2903D053
:10383000052903D001F007BE01F0DDBC01F024BD75
:1038400038B5040054D0022084F8C1000025C4F823
:10385000C450C4F8C850C4F8CC50C4F8D050C4F810
:10386000D450C4F8D850207AC0071BD02149206812
:10387000884208D12048816941F000518161806906
:1038800000F0005000902168086820F44042208A2F
:1038900000F44040104320F44052A08A00F440500D
:1038A00010430860204600F029F8207A800708D5E8
:1038B0002168086820F44072A08900F44070104329
:1038C0000860012084F8C10084F8C0505FF0000156
:1038D000C1EBC10004EB8000491C8561C561056234
:1038E00045628562C9B205630529F1D9002038BD5A
:1038F000012038BD007401400010024008B5006886
:10390000A0F18041B1F5BA3112D10A48816941F084
:1039100000518161806900F0005000900022012177
:10392000432000F037FABDE80840432000F024BAF5
:1039300008BD00000010024000B587B000210291D0
:1039400003910491059106910068A0F18041B1F5C1
:10395000BA3116D10C48416941F4003141614069E6
:1039600000F4003001904FF4706002900220039048
:10397000032005900D20069002A94FF09040FFF71C
:10398000B9FD07B000BD000000100240704770474D
:103990007047704770B50D460446FFF7BBFE0646FC
:1039A00007E0681C05D0FFF7B5FE801BA8420DD8C4
:1039B00065B12068D0F88803C043C003F1D401206A
:1039C00084F8C100002084F8C00070BD072084F88E
:1039D000C100032070BD704770477047704770B5D5
:1039E00090F8C130022B23D0022380F8C130052982
:1039F00020D08023046803EBC115635923F0070628
:103A00009368334323F01806D368334363519425F6
:103A1000046805EBC115136863519824036804EB2F
:103A2000C11152685A50012180F8C110002070BDA8
:103A3000022070BD0368196821F0070491682143D2
:103A400021F01804D1682143196003681168596195
:103A5000516802689161E6E72DE9F04F90F8C140A6
:103A6000022C25D090F8C040012C21D04FF0010944
:103A700080F8C090022480F8C14000274FF0070C66
:103A8000052918D09C2404EBC116012A39D08024C2
:103A9000A8254FF4005A4FF4405B05EBC11504EB29
:103AA000C114022A2FD0042A45D0082A0BD144E0A1
:103AB0000220BDE8F08F012A0AD0022A0CD0042A85
:103AC0000ED0082A10D080F8C1C080F8C0700EE077
:103AD00002681968D1610AE002681968516206E05B
:103AE00002681968916202E002681968D16290F870
:103AF000C110072948D080F8C19080F8C07000201C
:103B0000D7E7196835E04FF0A408D0F800C008EBFB
:103B1000C1111A684CF801205968002901680A5936
:103B200022F440522ED00A5101680A59D3F804C039
:103B300042EA0C0218E0196821E04FF0AC08D0F816
:103B400000C008EBC1111A684CF80120596800291F
:103B500001680A5922F4404214D00A5101680A59F6
:103B6000D3F804C042EA8C020A515968514503D186
:103B7000996802689151BAE75945B8D199680268C5
:103B80005151B4E70A51B2E7012092E710B590F81D
:103B9000C020012A0ED0012200F8C02F022343705A
:103BA00050F8C03C1C680C431C604270002101703E
:103BB000084610BD022010BD70B5044690F8C10043
:103BC000022811D094F8C00001280ED0012584F8F5
:103BD000C050022084F8C100204601F0CDFB84F8DB
:103BE000C150002084F8C00070BD022070BD10B527
:103BF00090F8C020012A10D0012200F8C02F022323
:103C0000437050F8C03CD3F894430C43C3F894433A
:103C1000427000210170084610BD022010BD2DE940
:103C2000F041054690F8C10014460E46022825D002
:103C300095F8C000012823D0012785F8C070022024
:103C400085F8C100052E1DD0284601F0AFFCC6EB5B
:103C5000C60005EB80002168016261684162A168CD
:103C60008162E168C162216901633146284601F041
:103C700095FA85F8C170002085F8C000BDE8F08194
:103C80000220FBE728680168D0F8A02321F0200378
:103C90006169194321F40063A169194321F4806328
:103CA000E169194321F0C063216A194321F00063DF
:103CB000616A1943A36A21F0404141EA830121F07E
:103CC0000053216B194322F48033E26A01601A43E6
:103CD0002868C0F8A023BAE7024881680278114436
:103CE0008160704700000020074810B5016841F06E
:103CF00010010160032000F06DF8022000F006F8CA
:103D000000F024F8002010BD0020024070B50D4DD9
:103D100004464FF47A712878B1FBF0F00A4909683B
:103D2000B1FBF0F000F0EAFC48B9102C07D20022F9
:103D30002146501E00F02EF800206C6070BD01205E
:103D400070BD0000000000200C00002081B0094878
:103D5000816941F001018161816901F001010091F6
:103D6000C16941F08051C161C06900F0805000908C
:103D700001B0704700100240002809DB00F01F026C
:103D8000012191404009800000F1E020C0F80011BD
:103D900070470000F0B40E4B1B680C46C3F30223BF
:103DA000C3F10705042D00D90425191D072901D2E7
:103DB000002300E0DB1E012606FA05F1491E214022
:103DC00099409E40761E16403143F0BC02F0ACBDD7
:103DD0000CED00E0064900F0070208684FF6FF030B
:103DE000184040EA0220034A104308607047000070
:103DF0000CED00E00000FA052DE9F84F04460068DC
:103E000000265C4DC0036ED5E869C00008D4E8699F
:103E100040F08050E861E869012600F08050009091
:103E200055480168C90512D40168804641F4807183
:103E30000160FFF76FFC074605E000BFFFF76AFC73
:103E4000C01B642835D8D8F80000C005F6D5286A0C
:103E500010F4407053D0A18801F4407181424ED0DB
:103E6000286A4FF4803191FAA1F2B2FA82F29700F7
:103E7000424A4FF00108174420F44070C7F800840C
:103E800091FAA1F1B1FA81F102EB81010023C1F8AD
:103E900000342862C00732D0FFF73CFC074641F2ED
:103EA000883A4FF0020907E0FFF734FCC11B514587
:103EB00002D90320BDE8F88F99FAA9F1B1FA81F18E
:103EC00041F040014846B8EB511F01D129680CE090
:103ED00090FAA0F1B1FA81F141F04001B0EB511F2D
:103EE00002D1296A01E015E0696A99FAA9F0B0FAED
:103EF00080F000F01F0008FA00F21142D4D0286AC6
:103F0000616820F44070084328621EB1E86920F01F
:103F10008050E8612078C00705D0286BA16820F0A8
:103F20000300084328632078800605D5286BE168E4
:103F300020F01000084328632078000605D5E86AC1
:103F4000216920F4F8700843E8622088C00405D590
:103F5000286B616920F4807008432863208840043E
:103F600005D5286BA16920F4805008432863002000
:103F7000A0E7000000100240007000400000424234
:103F80002DE9F0470F46050069D04A4E306800F031
:103F90000700B84209D2306820F00700384330608B
:103FA000306800F00700B84259D12878424C8007A9
:103FB00005D56068A96820F0F000084360602878A3
:103FC000C0073DD06968012001290DD0022923D006
:103FD0005FF0020393FAA3F2B2FA82F242F02002F7
:103FE000520904D0226803E04FF40033F2E7626A1A
:103FF00093FAA3F3B3FA83F303F01F03984002424A
:104000002DD0606820F0030008436060FFF782FB5A
:10401000804641F288390CE04FF00073DAE700BFC8
:10402000FFF778FBA0EB0801494502D90320BDE862
:10403000F0876068696800F00C00B0EB810FEFD189
:10404000306800F00700B8420BD9306820F0070054
:1040500038433060306800F00700B84201D00120DA
:10406000E5E72878400705D56068E96820F4E06056
:10407000084360602878000706D56068296920F445
:10408000605040EAC100606000F01EF86168F022F4
:1040900092FAA2F201F0F001B2FA82F2D140074A9C
:1040A000515CC8400649086006480068FFF72EFECC
:1040B0000020BCE70020024000100240B06E000863
:1040C0000C00002004000020164A10B55168164864
:1040D00001F00C03042B20D0082B1ED14FF47014D8
:1040E00094FAA4F401F47013B4FA84F4E3400F4C8E
:1040F000D26AE45C0F2393FAA3F302F00F02B3FA3F
:1041000083F3DA40094B1033C9039A5C06D50023C8
:104110001946FCF7FFF8A0FB040110BD0448A4FBFE
:10412000000110BD0010024000127A00906E0008DD
:1041300000093D002DE9F84F050071D02878FC4EAC
:10414000C0074FF0010425D070686704C0F38100F8
:10415000012807D07068C0F3810002281BD1706865
:10416000C00318D597FAA7F0B0FA80F040F020000D
:10417000400901D0306800E0706A97FAA7F1B1FAFF
:1041800081F101F01F0104FA01F1084265D068686D
:104190000028D2D061E06868B0F5803F0BD010B144
:1041A000B0F5A02F17D0306820F480303060306830
:1041B00020F4802002E0306840F480303060F06A03
:1041C000A96820F00F000843F062686820B3FFF789
:1041D000A1FA80460AE0306840F480203060EAE7C7
:1041E000FFF798FAA0EB0800642871D897FAA7F0B7
:1041F000B0FA80F040F02000400901D0306800E0C3
:10420000706A97FAA7F1B1FA81F101F01F0104FA7F
:1042100001F10842E4D020E0FFF77CFA804607E095
:10422000C2E000BFFFF776FAA0EB08006428DCD8F4
:1042300097FAA7F0B0FA80F040F02000400901D0D2
:10424000306800E0706A97FAA7F1B1FA81F101F0E5
:104250001F0104FA01F10842E4D12878DFF8D48282
:1042600080074FF0000A4FF0020730D570684FF01A
:10427000F80B10F00C0F07D07068C0F38100022813
:1042800027D17068C00324D497FAA7F0B0FA80F061
:1042900040F02000400901D0306800E0706A97FAD1
:1042A000A7F1B1FA81F101F01F0104FA01F108420E
:1042B00002D02869012877D130689BFAABF220F050
:1042C000F8016869B2FA82F29040014331605AE025
:1042D00064E1286988B394FAA4F0B0FA80F048F851
:1042E0002040FFF717FA814606E000BFFFF712FAF9
:1042F000A0EB090002289AD897FAA7F0B0FA80F04C
:1043000040F02000400901D0306800E0706A97FA60
:10431000A7F1B1FA81F101F01F0104FA01F108429D
:10432000E4D030689BFAABF26969B2FA82F220F00D
:10433000F80091400843306025E0FFE794FAA4F0CC
:10434000B0FA80F048F820A0FFF7E4F9814605E0D4
:10435000FFF7E0F9A0EB09000228CCD897FAA7F004
:10436000B0FA80F040F02000400901D0306800E051
:10437000706A97FAA7F1B1FA81F101F01F0104FA0E
:1043800001F10842E4D1287800076CD5A869A8B3E8
:1043900094FAA4F0B0FA80F008EB8000C0F88044F2
:1043A000FFF7B8F9814607E0A4E100BFFFF7B2F9D3
:1043B000A0EB090002289ED897FAA7F0B0FA80F087
:1043C00040F06000B4EB501F01D130680BE097FA69
:1043D000A7F0B0FA80F040F06000B7EB501F01D1B9
:1043E000306A00E0706A97FAA7F1B1FA81F101F042
:1043F0001F0104FA01F21042D8D034E0FFE794FA2A
:10440000A4F1B1FA81F108EB8101C1F880A4FFF7B2
:1044100081F9814606E000BFFFF77CF9A0EB0900B7
:1044200002289AD897FAA7F0B0FA80F040F060001E
:10443000B4EB501F01D130680BE097FAA7F0B0FA47
:1044400080F040F06000B7EB501F01D1306A00E00F
:10445000706A97FAA7F1B1FA81F101F01F0104FA2D
:1044600001F21042D8D12878400768D5F0694FF0A2
:104470000009C00009D4F06940F08050F061F06993
:104480004FF0010900F0805000902B480168C905E9
:1044900012D4016841F480710160FFF73BF9834653
:1044A00006E000BFFFF736F9A0EB0B00642875D8D3
:1044B00021480068C005F5D5E86801280AD008B190
:1044C000052811D0306A20F001003062306A20F0F7
:1044D000040002E0306A40F001003062E86868B32E
:1044E000FFF718F983460DE0306A40F004003062AF
:1044F000F0E700BFFFF70EF9A0EB0B0141F28830A7
:1045000081424BD897FAA7F0B0FA80F040F0400013
:10451000B4EB501F01D1306813E097FAA7F0B0FA5E
:1045200080F040F04000B7EB501F09D1306A08E03E
:104530000010024000004242007000400CE040E0E9
:10454000706A97FAA7F1B1FA81F101F01F0104FA3C
:1045500001F21042CED02DE0FFF7DCF8834607E0F1
:10456000FFF7D8F8A0EB0B0141F28830814215D853
:1045700097FAA7F0B0FA80F040F04000B4EB501F7B
:1045800001D130680CE097FAA7F0B0FA80F040F063
:104590004000B7EB501F02D1306A01E083E0706A3F
:1045A00097FAA7F1B1FA81F101F01F0104FA01F2C3
:1045B0001042D5D1B9F1000F03D0F06920F080503E
:1045C000F061E86980B37168C1F38101022977D095
:1045D0004FF080714F000228504609D091FAA1F1A6
:1045E000B1FA81F148F82100FFF794F805465DE043
:1045F000894691FAA1F1B1FA81F1C24648F8210049
:10460000FFF788F8804605E0FFF784F8A0EB080084
:10461000022848D897FAA7F0B0FA80F040F02000BE
:10462000400902D0306801E066E0706A97FAA7F1AD
:10463000B1FA81F101F01F0104FA01F10842E3D15E
:10464000D5E908100843716821F4741108437060BB
:1046500099FAA9F0B0FA80F04AF82040FFF75AF82A
:10466000054604E0FFF756F8401B02281BD897FACE
:10467000A7F0B0FA80F040F02000400901D0306887
:1046800000E0706A97FAA7F1B1FA81F101F01F0119
:1046900004FA01F10842E5D02EE000BFFFF73AF836
:1046A000401B022802D90320BDE8F88F97FAA7F033
:1046B000B0FA80F040F02000400902D0306801E0FC
:1046C0000BE0706A97FAA7F1B1FA81F101F01F01CE
:1046D00004FA01F10842E1D10EE00128E4D070684B
:1046E0002A6A00F48031914204D1696A00F47010A2
:1046F000884201D00120D7E70020D5E710B5401E41
:10470000B0F1807F01D3012010BD4FF0E024606143
:104710000F21601702F008F90020A0610720206136
:10472000002010BD7047704770470000F0B590F84A
:104730003C20012A2CD0012480F83C40022280F841
:104740003D2003685A689D68124EB34203D122F49B
:1047500070074A683A4322F070070A683A435A6081
:104760000268B24208D0B2F1804F05D00A4B9A429B
:1047700002D00A4B9A4204D1896825F0800319437C
:10478000916080F83D40002180F83C100846F0BD63
:104790000220F0BD002C0140000400400040014018
:1047A00010B5040003D094F83D0010B107E00120DB
:1047B00010BD002084F83C00204600F023F80220C1
:1047C00084F83D00211D206801F0D0FD012084F80F
:1047D000480084F83E0084F83F0084F8400084F8E4
:1047E000410084F8420084F8430084F8440084F8CF
:1047F000450084F8460084F8470084F83D00002016
:1048000010BD000008B500681149B0F1804F15D007
:10481000A0F18042B2F5805218D1C86940F0100072
:10482000C861C86900F01000009001213620FFF730
:10483000B1FABDE808403620FFF79EBAC86940F0DB
:104840000100C861C86900F00100009008BD0000C7
:104850000010024090F83D10012901D0012070475E
:10486000022180F83D1000680C49884208D0B0F160
:10487000804F05D00A49884202D00A49884207D1B0
:104880008168094A1140062906D0B1F5803F03D05E
:10489000016841F00101016000207047002C0140D7
:1048A00000040040004001400700010090F83D1066
:1048B000012901D001207047022180F83D100168D4
:1048C000CA6842F00102CA6000680D49884208D0F7
:1048D000B0F1804F05D00B49884202D00A49884286
:1048E00007D18168094A1140062906D0B1F5803FF9
:1048F00003D0016841F00101016000207047000011
:10490000002C01400004004000400140070001006D
:1049100070B5044690F83C000025012817D0012608
:1049200084F83C60022084F83D00226890682F4B98
:10493000184020F47F4090600868502838D00DDC83
:1049400020284FD005DC90B3102811D14AE0022076
:1049500070BD302846D040280AD13BE060282FD0D7
:1049600070280DD0B0F5805F03D0B0F5005F12D095
:10497000012584F83D60002084F83C00284670BD85
:10498000CB68D1E90121206801F041FD20688168F0
:1049900041F0770109E0CB68D1E90121206801F0FD
:1049A00036FD2068816841F480418160E1E719E0CB
:1049B000CA684968206801F09DFE5021206806E021
:1049C000CA684968206801F0A6FE6021206801F0ED
:1049D00028FDCEE7CA684968206801F08BFE4021B7
:1049E0002068F4E7226801461046F0E788FFFEFFE2
:1049F000704770B50446006801694FF00005C9436F
:104A0000890715D4C168C943890711D4E91E01611A
:104A100001202077206880698007204602D0FFF7B8
:104A2000E7FF04E000F0CCF8204600F08EF925778F
:104A300020680169C943490717D4C168C9434907B8
:104A400013D46FF00401016102202077206880698F
:104A500010F4407F204602D0FFF7CAFF04E000F0C8
:104A6000AFF8204600F071F9257720680169C94345
:104A7000090716D4C168C943090712D46FF00801A9
:104A80000161042020772068C0698007204602D099
:104A9000FFF7AEFF04E000F093F8204600F055F970
:104AA000257720680169C943C90617D4C168C9437D
:104AB000C90613D46FF01001016108202077206827
:104AC000C06910F4407F204602D0FFF791FF04E058
:104AD00000F076F8204600F038F925772068016963
:104AE000C943C90708D1C168C943C90704D1891E90
:104AF0000161204600F09CF920680169C94309065C
:104B000009D4C168C943090605D46FF08001016169
:104B10002046FFF708FE20680169C943C90509D48A
:104B2000C168C943090605D46FF48071016120464C
:104B3000FFF7F8FD20680169C943490609D4C16837
:104B4000C943490605D46FF040010161204600F0D9
:104B500077F920680169C94389060BD4C168C94344
:104B6000890607D46FF0200101612046BDE870403E
:104B7000FFF7DABD70BD000000B587B000210291DB
:104B800003910491059106910068B0F1804F13D113
:104B90000A48416941F400314161406900F4003044
:104BA00001900F200290022003900120069002A99C
:104BB0004FF09040FEF79EFC07B000BD0010024091
:104BC000704770B5044690F83C0000260D46012859
:104BD0000BD0012084F83C000C2A4AD007DC82B1BB
:104BE000042A20D0082A06D131E0022070BD102A04
:104BF00053D0142A63D00126002084F83C003046AC
:104C000070BD206801F016FC2068816941F0080140
:104C100081612068816921F00401816120688169D6
:104C20002A69114311E0206801F048FC206881697D
:104C300041F4006181612068816921F480618161B2
:104C4000206881692A6941EA02218161D4E72068EC
:104C500001F074FC2068C16941F00801C16120685D
:104C6000C16921F00401C1612068C1692A69114349
:104C700011E0206801F0A2FC2068C16941F40061E4
:104C8000C1612068C16921F48061C1612068C16986
:104C90002A6941EA0221C161AEE7206801F0C4FC43
:104CA0002068416D41F0080141652068416D21F0A7
:104CB000040141652068416D2A69114311E02068B3
:104CC00001F0E4FC2068416D41F400614165206819
:104CD000416D21F4806141652068416D2A6941EA96
:104CE0000221416588E710B5040003D094F83D0027
:104CF00010B107E0012010BD002084F83C002046E0
:104D000000F022F8022084F83D00211D206801F007
:104D10002DFB012084F8480084F83E0084F83F0011
:104D200084F8400084F8410084F8420084F843008D
:104D300084F8440084F8450084F8460084F847006D
:104D400084F83D00002010BD7047704710B5044640
:104D5000022269B1042912D0082917D00C291CD0CD
:104D6000102921D094F84300012824D0012010BD3F
:104D700094F83E000128F9D184F83E201DE094F813
:104D80003F000128F2D184F83F2016E094F840005B
:104D90000128EBD184F840200FE094F8410001286D
:104DA000E4D184F8412008E094F842000128DDD1E4
:104DB00084F8422001E084F843200122206801F0B9
:104DC00019FB15492068154A884207D0904205D042
:104DD000134B984202D0134B984203D1436C43F4D7
:104DE000004343642068884207D0B0F1804F04D06C
:104DF0000D49884201D0904207D181680B4A114089
:104E0000062906D0B1F5803F03D0016841F00101C9
:104E10000160002010BD0000002C01400040014056
:104E20000044014000480140000400400700010028
:104E30000249884201D101F045BE70475406002066
:104E400070477047704770472DE9F041026804468B
:104E5000D0691168936840F60F0528424FF00005AD
:104E60004FF0020605D187067ED58F067CD5A16E50
:104E70002AE1DFF884C203F0010701EA0C0C57EACB
:104E80000C0C71D05FEAC07C0CD05FEAC15C09D524
:104E90004FF0010CC2F820C0D4F8842042F0010287
:104EA000C4F88420820709D5DA0707D02268166281
:104EB000D4F8842042F00402C4F8842042070AD5C2
:104EC000DA0708D0236804221A62D4F8842042F05A
:104ED0000202C4F8842002070CD501F020023A43F4
:104EE00008D0236808221A62D4F8842042F008020D
:104EF000C4F8842002050BD54A0109D523684FF474
:104F000000621A62D4F8842042F02002C4F884209F
:104F1000D4F88420002A36D0800605D5880603D52B
:104F2000A16E09B120468847D4F8840021688968B9
:104F3000490602D410F0280F27D0204601F053FC78
:104F40002068806840061BD52068083050E8001FA4
:104F500021F0400140E80012002AF5D1606F78B1DD
:104F600066494163606F00E015E0FEF7D9F900285B
:104F700009D0606F416B00E02046BDE8F041084772
:104F80002046FFF760FFBDE8F0812046FFF75BFF9A
:104F9000C4F88450F7E7D4F860C02027BCF1010FB3
:104FA0007DD15FEAC06C7ED55FEAC16C7BD51020F5
:104FB000106220688068400642D5616F08684068CA
:104FC0000004000CDFD0B4F858208242DBD9A4F8EA
:104FD0005A00886920282BD0216851E8000F20F45E
:104FE000807041E80002002AF6D12068083050E8BD
:104FF000001F21F0010140E80012002AF5D12068CD
:10500000083050E8001F21F0400140E80012002A5B
:10501000F5D1C4F880702566206850E8001F21F0A3
:10502000100140E80012002AF6D1606FFEF755F932
:105030006666B4F85800B4F85A10401A81B22CE0F1
:10504000B4F85800B4F85A10401A81B2B4F85A00B3
:10505000002898D0002996D0226852E8000F20F44A
:10506000907042E80003002BF6D12068083050E829
:10507000002F22F0010240E80023002BF5D1C4F8F4
:1050800080702566A566206850E8002F22F0100287
:1050900040E80023002BF6D16666204600E002E0DF
:1050A000FFF7CFFE6FE7C60209D55B0207D54FF4C5
:1050B000801010622046BDE8F041FFF7C3BE020633
:1050C00006D50A0604D5E16E00297FF455AF5AE7EC
:1050D0004006E7D54806E5D52046026852E8001F9D
:1050E00021F0400142E80013002BF6D1C767C566E6
:1050F00000F04CF847E70000200100043B6700087F
:1051000070B50446C06F202801D0022070BD29B3BD
:1051100022B3E164A4F85020A4F852200021C4F87E
:1051200084102120E067206FD0B1154B8362236F7C
:105130001448D862236F14481863206F13464163E4
:105140002068256F00F128022846E16CFEF788F9F7
:1051500030B11020C4F884002020E067012070BD29
:105160002168402008622068083050E8001F41F0A4
:10517000800140E80012002AF5D1002070BD000037
:105180009D670008DD6700084F670008704770479B
:1051900005210148FEF74ABB2C050020062911D243
:1051A000DFE801F00911171D23030068D0F884130C
:1051B00041F0010104E00068D0F8841341F00201DD
:1051C000C0F8841370470068D0F8841341F00401DC
:1051D000F6E70068D0F8841341F00801F0E70068B2
:1051E000D0F8841341F01001EAE70068D0F8841386
:1051F00041F02001E4E770B506460068D0F8885316
:10520000D0F89043E90707D0E10705D00121C0F8A5
:105210008C133046FEF705FBA80708D5A00706D576
:1052200031680220C1F88C033046FEF7FBFA6807AC
:1052300008D5600706D531680420C1F88C033046D4
:10524000FEF7F1FA280708D5200706D531680820AF
:10525000C1F88C033046FEF7E7FAE80608D5E00609
:1052600006D531681020C1F88C033046FEF7DDFA10
:10527000A80608D5A00606D531682020C1F88C0301
:105280003046FEF7ABFB70BD2DE9F04704460068E1
:10529000D0F88883D0F890734668C5685FEAC83153
:1052A0004FF001090DD5F9030BD54FF48031C0F84B
:1052B0008C1384F8C190002084F8C0002046FEF7CB
:1052C00037FA5FEA883009D5B80307D521684FF46B
:1052D0000030C1F88C032046FEF722FAF00708D010
:1052E000E80706D02168C1F8089005212046FEF79E
:1052F0001AFAB00708D5A80706D5216802208860E9
:1053000005212046FEF710FA700708D5680706D574
:1053100021680420886005212046FEF706FA300740
:1053200008D5280706D52168082088600521204671
:10533000FEF7FCF9F00608D5E80606D5216810202E
:10534000886005212046FEF747FBB00607D5A80672
:1053500005D52168202088602046FEF73EFB7006B8
:1053600008D5680606D521684020886005212046BA
:10537000FEF731FBBDE8F087F0B50024E4250768AF
:1053800005EBC11657F806C0B82505EBC1157D59C8
:10539000202A27D00CDC042A15D004DC012A12D0E4
:1053A000022A2BD11EE0082A1CD0102A26D10AE09E
:1053B000402A08D0802A15D0B2F5807F03D0B2F5FC
:1053C000007F1BD10EE04FF0BC0E0EEBC11E5A68E1
:1053D00047F80E204FF0C00E07680EEBC1119A6817
:1053E0007A500BE0C42404EBC1145A683A51C82720
:1053F000046807EBC1119A6862501024FE21A14095
:105400001A682CEA010CA240D96842EA0C02A140B9
:1054100011431A69D3F814C01746A2400A430CFA84
:1054200004FC99694CEA020CA14041EA0C01082FE6
:1054300006D1AA0504D4AA0102D4DA69A240114314
:1054400000688151F0BD2DE9F041074688460068AB
:10545000842202EBC81146588C2202EBC811455831
:105460004FF08802F30702EBC81407D0E90705D014
:105470000121015141463846FEF755F9B00708D5DC
:10548000A80706D539680220085141463846FEF77C
:105490004BF9700708D5680706D53968042008510C
:1054A00041463846FEF741F9300708D5280706D5AA
:1054B00039680820085141463846FEF737F9F006AA
:1054C00008D5E80606D53968102008514146384607
:1054D000FEF782FA700608D5680606D539684020BE
:1054E000085141463846FEF776FA300608D52806B8
:1054F00006D539688020085141463846FEF711F933
:10550000F00509D5E80507D539684FF480700851D2
:1055100041463846FEF706F9B00509D5A80507D576
:1055200039684FF40070085141463846FEF72FFAAB
:10553000700509D5680507D539684FF480600851B2
:1055400041463846FEF722FA300509D5280507D529
:1055500039684FF40060085141463846FEF719FAA1
:10556000F00409D5E80407D539684FF48050085194
:1055700041463846FEF70CFAB00409D5A80407D511
:1055800039684FF40050085141463846FEF7CFF8CD
:10559000700409D5680407D539684FF48040085174
:1055A00041463846FEF73CF9BDE8F0812DE9F04F61
:1055B0008024036804EBC1169C5924F070449C516C
:1055C00003689A469D59E82404EBC114A64653F893
:1055D0000490E42404EBC114A3461C59D3F8A0336F
:1055E00025F0200755693D4325F4006795693D4343
:1055F00025F48067D5693D4325F0C067156A3D43B2
:1056000025F00067556A3D4325F07047956A3D4394
:10561000176B25F40035B7F1005F01D145F4003573
:1056200025F04007556BD2F848802F4327F4802C93
:10563000176D47EA0C0727F0FC7748EA070892F84D
:10564000387029F01F0C07F01F0747EA0C0727F0F6
:10565000004CD76B47EA0C0725B924F4807C146C06
:1056600044EA0C04D2F844C0BCF5606F02D0BCF52B
:10567000F05F01D1402D03D124F4F0544CEA04042E
:10568000D56C052921D2DFE801F003090F151B00B5
:10569000D26A23F4003343EA420316E0D26A23F4C9
:1056A000802343EA820310E0D26A23F4002343EA12
:1056B000C2030AE0D26A23F4801343EA021304E02F
:1056C000D26A23F4001343EA42134AF806800668BC
:1056D00046F80E70066846F80B40D424026804EBC6
:1056E000C11155500068C0F8A033BDE8F08FFEE747
:1056F00070B58AB00024069407940894009401942D
:1057000002940394049405941F484FF0A041016053
:105710004460846001250561457680F82040C462BC
:105720008562C4600226C66180F830500421416160
:1057300004764463FDF71CF808B1FCF73BFD0694C2
:1057400006A91148FCF7F8FD08B1FCF733FD0B2062
:1057500000900195039407200290049405946946F3
:105760000948FCF759FE08B1FCF724FD0C20009015
:10577000019669460448FCF74FFE002801D0FCF76B
:1057800019FD0AB070BD0000DC03002070B586B0C2
:1057900000240094019402940394049405942148F5
:1057A0001F4901604460846001250561457680F8E9
:1057B0002040C4628562C4600326C66180F8305010
:1057C0000421416104764463FCF7D2FF08B1FCF781
:1057D000F1FC0D20009001950394072002900494A1
:1057E000059469460F48FCF717FE08B1FCF7E2FC88
:1057F0000E2000900220019069460A48FCF70CFE3A
:1058000008B1FCF7D7FC0F200090019669460548C7
:10581000FCF702FE002801D0FCF7CCFC06B070BDFE
:10582000000100502C04002010B50F480D49016004
:105830000221416000218160C1604FF400220261B9
:105840004FF4E0024261017641768176C1760177BC
:105850004177FDF707FC002803D0BDE81040FCF7B6
:10586000A9BC10BD006400400405002008B519481B
:10587000416941F001014161406900F0010000907F
:10588000002211460B20FEF785FA0B20FEF774FA72
:10589000002211460C20FEF77DFA0C20FEF76CFA70
:1058A000002211460E20FEF775FA0E20FEF764FA6C
:1058B000002211460F20FEF76DFA0F20FEF75CFA6A
:1058C000002211461120FEF765FABDE808401120BC
:1058D000FEF752BA0010024081B00D48416941F410
:1058E00080014161416901F480010091416941F405
:1058F00000314161416901F400310091416941F495
:1059000080214161406900F48020009001B070471F
:105910000010024030B5AFB000242A942B942C9490
:105920002D94542115A8FAF77FFD12941394149422
:1059300009940A940B940C940D940E940F94109463
:105940001194009401940294039404940594069491
:10595000079476487449016044608460FDF770FFE5
:1059600008B1FCF727FC0C217048FDF7E2FE08B1F6
:10597000FCF720FC0A216D48FEF70CF808B1FCF793
:1059800019FC4FF47A702A902B9404202C90082054
:105990002D902AAA05216548FEF721F808B1FCF7E9
:1059A00009FC1594169417941894012019901A94D0
:1059B0001B941C941D941E941F942094219415AA4A
:1059C00005215A48FEF72BF908B1FCF7F3FB4FF419
:1059D000FA70129012AB012205215448FEF73CF8F0
:1059E00008B1FCF7E7FB12AB022205214F48FEF796
:1059F00033F808B1FCF7DEFB12AB042205214B485B
:105A0000FEF72AF808B1FCF7D5FB12AB08220521F6
:105A10004648FEF721F808B1FCF7CCFB2AAA002182
:105A20004248FDF7DCFF08B1FCF7C4FB159416945F
:105A30004FF000601E9080002190229423942494C3
:105A400045152595269427942894299415AA002174
:105A50003648FEF7E4F808B1FCF7ACFB15AA0121C3
:105A60003248FEF7DCF808B1FCF7A4FB4FF44060C5
:105A700009900F200A900B940C940D940E900F94A3
:105A80001094119409AA00212848FDF783FE08B15B
:105A9000FCF790FB09AA01212448FDF77BFE08B121
:105AA000FCF788FB009401954FF40070029003947A
:105AB00004940594069407946B46012200211B4828
:105AC000FEF77AF808B1FCF775FB4FF4806001909F
:105AD000400002906B46042201211448FEF76CF846
:105AE00008B1FCF767FB019402946B460222002187
:105AF0000E48FEF761F808B1FCF75CFB6B46082224
:105B000001210A48FEF758F808B1FCF753FB2AAA0E
:105B100001210648FDF763FF08B1FCF74BFB034882
:105B2000FDF70AFF2FB030BD007401402C050020A6
:105B300010B58EB000240A940B940C940D94079425
:105B40000894099400940194029403940494059495
:105B500006942B484FF08041016040F2CF21416014
:105B600084606321C16004618461FEF719FE08B19D
:105B7000FCF720FB4FF480500A900AA92048FEF75A
:105B8000C7FE08B1FCF716FB1D48FFF7ACF808B1DB
:105B9000FCF710FB202007908020099007A91848E7
:105BA000FEF7C4FD08B1FCF705FB602000900194EE
:105BB00002940494002269461148FFF702F808B1E4
:105BC000FCF7F8FA042269460D48FEF7FAFF08B11F
:105BD000FCF7F0FA082269460948FEF7F2FF08B11F
:105BE000FCF7E8FA0C2269460548FEF7EAFF08B11F
:105BF000FCF7E0FA0248FEF7BFFF0EB010BD000050
:105C00000806002010B584B0002401940294039487
:105C10000D480C4901604721416084603121C16019
:105C20008461FEF7BDFD08B1FCF7C4FA019403944A
:105C300001A90548FEF77AFD002801D0FCF7BAFA61
:105C400004B010BD0010004054060020FEE7FEE73F
:105C5000A0B1D0ED131AC0ED141A90ED121A80ED18
:105C6000131AC0ED090A80ED0A0A30EEC00A80ED71
:105C7000120A017829B101293BD078E09FED3D0A55
:105C80007047D0ED010A60EE801AC0ED0C1AD0ED1D
:105C90000D0A90ED022A42EE000A30EE410AC0EDF4
:105CA0000D0A90ED102A80ED112A90ED0F2A80ED5B
:105CB000102A80ED0F0A90ED031A21EE001A80EDF4
:105CC0000E1A90ED070AF4EEC00AF1EE10FA09DCA4
:105CD000B1EE400AF4EEC00AF1EE10FA02D390EDF4
:105CE0000D0A01E080ED0D0A31EE800A30EE010A66
:105CF0002BE070EE410A90ED012A20EE822A80ED21
:105D00000C2AD0ED020A60EE800AC0ED0D0AD0ED3B
:105D1000102A72EE200AC0ED112AD0ED0F2AC0ED34
:105D2000102AF0EE002A01EE620A30EE210A80ED20
:105D30000F0A90ED031A21EE000A80ED0E0A30EEF4
:105D4000800AD0ED0B0A30EE200A80ED0B0AD0ED70
:105D5000050AB4EEE00AF1EE10FA06DCF1EE600A94
:105D6000B4EEE00AF1EE10FA01D2C0ED0B0A90EDAC
:105D70000B0A704700000000002821D00170C0ED20
:105D8000051A80ED072AC0ED062A80ED083A021DAB
:105D900082EC030A9FED0B0A80ED110A80ED100AD8
:105DA00080ED0F0A80ED0B0A80ED0E0A80ED0D0AE2
:105DB00080ED0C0A80ED140A80ED130A80ED120AC2
:105DC0007047000000000000704700002DE9F04F10
:105DD00029492D4A00200D782A4992ED410A274C85
:105DE000D1ED7C0AD1F8F831D1E9752130EEC00A45
:105DF000DFF88C90DFF894A0254E264FDFF898C08E
:105E00004FF07E5BB0EEC00A022D01D04B4503DAA5
:105E100010EE108AD84507DC524505DCB24203DBA0
:105E2000B94201DC614523D9B4F8008008F10108CA
:105E30001FFA88F8A4F80080B8F1320F16D9B242E0
:105E400000DA0220524501DD40F00100B94201DCD8
:105E5000614501D940F00800022D01D04B4505DA1B
:105E600010EE101A594501DD40F01000BDE8F08F2A
:105E700000212180FAE7000010000020140000201B
:105E80000000B041380000203C0200200000204209
:105E9000000098410000F0400000F0C07047000092
:105EA00000EB800210B55F48B3EE081A00EBC201A8
:105EB0002DED028B91ED000A5B48BDEEC00A80ED2E
:105EC0004A0A91ED010A80ED500A91ED020ABDEEF9
:105ED000C00A80ED1E0A91ED030A80ED240A91EDBF
:105EE000040ABDEEC00A80ED080A91ED050A80EDB6
:105EF0000E0A91ED060ABDEEC00A80ED340A91ED5E
:105F0000070A80ED3A0A91ED080ABDEEC00A80ED5D
:105F1000600A91ED090A80ED660A4248B3EE040A70
:105F2000C83000EBC2044148D4ED011AD4ED000A98
:105F3000FBF76CFF3C48D4ED031AD4ED020AB3EE34
:105F4000061AB3EE010A7430FBF760FF3648D4ED51
:105F5000051AD4ED040AB1EE081AB0EE080A1C3096
:105F6000FBF754FF3148D4ED071AD4ED060AB1EE21
:105F7000001AB0EE000A5838FBF748FF2B48D4ED62
:105F8000091AD4ED080AB1EE001AB0EE000A583032
:105F9000FBF73CFF2648B3EE070A9FED268A80ED0B
:105FA000430AB1EE000A80ED440A80ED3F8ABBEE61
:105FB000093ADFED212AB3EE092ADFED201A9FED21
:105FC000201ADFED200A9FED200A01215430FFF74F
:105FD000D3FE1748BBEE093ADFED1C2AB3EE092ABF
:105FE000DFED1B1AB0EE081ADFED1A0AB7EE000A51
:105FF0000121A830FFF7C0FEB0EE482ABDEC028BAD
:10600000B0EE081ABDE810409FED133ADFED132AF9
:10601000DFED131ADFED130A9FED130A0121044887
:10602000FFF7AABEC06E0008380000205C01002007
:106030003C02002000004842000048C30000164314
:10604000AE47E13D8FC2F53CCDCC4C3E0000C8C20E
:106050000000C8428FC2753D000048C20000C8C39E
:106060000000C843295C0F3D3333B33E2DE9F041B6
:10607000924CA16801B9A0609048A1684FF000055A
:106080000A04C068120C4FF001064FF0020707D057
:10609000CA074FF0030869D0A8B301283DD048E0F3
:1060A0004A0303D500221146052004E08A0307D5E0
:1060B0000522002108E000F0D5FBA560BDE8F081D5
:1060C0000A0303D5002205210020F4E7C903F5D512
:1060D00050B101280FD00228F0D1FDF71BFB216938
:1060E0008842EBD9E560E8E700221146052000F080
:1060F000B9FBE66082E0FDF70DFB21698842DDD93E
:106100000022114676E001E02061D7E70022114627
:10611000052000F0A7FBE66044E0FDF7FBFA2169EB
:10612000884206D900210522084600F09BFBE76063
:1061300028E0E06802280CD1FDF7ECFA21698842DA
:1061400007D900221146104600F08CFBC4F80C80E1
:106150009CE0E0680328B1D1FDF7DCFA21698842B0
:10616000ACD9E560A06820F0010033E08A0733D5A0
:1061700010B101280BD019E000221146052000F0D3
:1061800071FBE660FDF7C6FA00F5C870BCE7FDF7E5
:10619000C1FA2169884209D900210522084600F088
:1061A00061FBE760FDF7B6FA6430ADE7E06802280E
:1061B00004D1FDF7AFFA21698842C2D8E06803280C
:1061C000A3D1FDF7A7FA216988429ED9E560A068AE
:1061D00020F00200A06071E711F00C0F27D000281A
:1061E00082D001280ED1FDF795FA2169884209D99C
:1061F00000220521002000F035FBE760FDF78AFA58
:10620000FA3081E7E068022804D1FDF783FA2169BA
:10621000884296D8E0680328DDD1FDF77BFA216932
:106220008842D8D9E560A06820F00C00D2E7CA0601
:1062300020D510B1012804D00FE000220521084626
:1062400021E0FDF767FA2169884206D9002211464C
:10625000104600F007FBE76018E0E0680228BAD1BA
:10626000FDF758FA21698842B5D9E560A06820F0A9
:106270001000AFE78906AED510B101280BD00FE0B2
:1062800005221146002000F0EDFAE660FDF742FA23
:1062900000F5FA7038E7FDF73DFA21698842D5D854
:1062A000E068022897D1FDF735FA2169884292D932
:1062B000E560A06820F020008CE7000014000020BA
:1062C000FDF70ABD30B597B000240E940F941194D9
:1062D00012940794089409940A940B9400940194DE
:1062E0000294039404940594069401210C910804EB
:1062F0000D9010910225139514904FF4E010159015
:106300000CA8FDF717FF08B1FBF754FF0F2007900B
:10631000089509944FF480600A900B94022107A815
:10632000FDF72EFE08B1FBF745FF44F28100009017
:1063300002944FF480700490000106906846FDF7C7
:106340005BFD002801D0FBF735FF17B030BD000022
:106350000248016841F470010160704788ED00E077
:106360000148FEF746BB000054060020F0B5026865
:106370001B4B1C4F4FF0804C984203D0604501D01E
:10638000B84203D122F070044A682243164C174DDC
:10639000174E984209D0604507D0B84205D0A042B8
:1063A00003D0A84201D0B04203D122F44077CA689A
:1063B0003A434F6922F080023A4302608A68C2621F
:1063C0000A688262984205D0A04203D0A84201D058
:1063D000B04201D10969016301214161F0BD0000B2
:1063E000002C0140000400400040014000440140F6
:1063F0000048014010B501F01F030121046A9940D3
:106400008C430462016A9A401143016210BD10B5C9
:10641000846842EA032224F47F440A4322438260D0
:1064200010BD826822F070020A4342F007018160C9
:1064300070470000F0B5026A22F001020262056AAC
:1064400043688269184C25F0020522400C6822F04E
:10645000030214438A68164E2A43144D154FDFF881
:1064600058C0A84205D0B04203D0B84201D0604520
:1064700006D122F0080ECA6842EA0E0222F0040297
:10648000A84205D0B04203D0B84201D0604505D142
:106490004D6923F440731D438B692B434360846132
:1064A000496841630262F0BD8FFFFEFF002C01408E
:1064B00000400140004401400048014030B5026AFC
:1064C00022F010020262046A42688369164D2B4072
:1064D0000D6823F4407343EA052524F020038C68FB
:1064E00043EA0413114CA04207D1CC6823F0800387
:1064F00043EA041323F0400308E00D4CA04205D00A
:106500000C4CA04202D00C4CA04207D14C6922F4A2
:10651000406242EA84028C6942EA840242608561F8
:1065200049688163036230BDFF8FFFFE002C01408C
:1065300000400140004401400048014030B5026A7B
:1065400022F480720262046A4268C369164D2B40CD
:106550000D6823F003031D4324F400738C6843EAA1
:106560000423124CA04207D1CC6823F4006343EA11
:10657000042323F4806308E00D4CA04205D00D4CA9
:10658000A04202D00C4CA04207D14C6922F44052E8
:1065900042EA04128C6942EA04124260C561496809
:1065A000C163036230BD00008FFFFEFF002C01407D
:1065B00000400140004401400048014030B5026AFB
:1065C00022F480520262046A4268C369114D24F4C5
:1065D00000542B400D6823F4407343EA05238D6873
:1065E00044EA05340C4DA84208D00C4DA84205D011
:1065F0000B4DA84202D00B4DA84204D14D6922F4A4
:10660000804242EA85124260C361496801640462C3
:1066100030BD0000FF8FFFFE002C01400040014014
:10662000004401400048014030B5026A22F4803243
:106630000262046A4268436D0F4D2B400D681D4392
:1066400024F400330C8943EA04430C4CA04208D0E4
:106650000B4CA04205D00B4CA04202D00A4CA042E9
:1066600004D14C6922F4803242EA0422426045653A
:1066700049688165036230BD8FFFFEFF002C014039
:1066800000400140004401400048014030B5026A2A
:1066900022F480120262046A4268436D104D24F4B1
:1066A00000142B400D6843EA05230D8944EA055484
:1066B0000C4DA84208D00C4DA84205D00B4DA84265
:1066C00002D00B4DA84204D14D6922F4802242EA47
:1066D0008522426043654968C165046230BD00009F
:1066E000FF8FFFFE002C01400040014000440140AC
:1066F0000048014010B5036A046A24F001040462F2
:10670000846924F0F00444EA021423F00A020A43E4
:106710008461026210BD10B5036A23F010030362A6
:106720008369046A23F4704343EA023224F0A0032D
:1067300043EA01118261016210BD10B5406A002177
:10674000A0F85A10A0F85210FEF77DFB10BD70B5EE
:10675000446AE06FD4F88050216889684FF00006E1
:10676000090606D5212804D1A4F85260204600F07D
:1067700060F820688068400606D5222D04D1A4F870
:106780005A60204600F02FF8D4F8840040F0100042
:10679000C4F884002046FEF756FB70BD10B50146D4
:1067A000406A8969202916D00021A0F8521001689A
:1067B000083151E8002F22F0800241E80023002B2D
:1067C000F5D1026852E8001F41F0400142E8001391
:1067D000002BF6D110BDFEF7D9FC10BD10B5406AF4
:1067E000FEF7D5FC10BD016851E8002F22F490722D
:1067F00041E80023002BF6D10168083151E8002F51
:1068000022F0010241E80023002BF5D1016E01299D
:1068100008D1026852E8001F21F0100142E800137D
:10682000002BF6D12021C0F880100021016681667E
:106830007047026852E8001F21F0C00142E80013CF
:10684000002BF6D12021C167704700000148FEF7F8
:10685000FBBA0000A00600200148FEF7F5BA0000D0
:106860002807002030B5404200EB8003642000EB95
:106870004304094B1D686C6352421C6802EB8202A0
:1068800000EB4202A263494201EB810100EB4100AF
:106890001968C86330BD000008060020FEE700004C
:1068A00090F82820C16A40F8221000224FEA020125
:1068B00050F82130491CC9B21A440A29F8D30A21D8
:1068C00092FBF1F1016390F82810491CC9B280F8DD
:1068D00028100A2902D1002180F8281070470022D0
:1068E00080F82820C2621146026340F82120491C2A
:1068F000C9B20A29F9D3704703B40198410000983E
:1069000050EAC12018BF04204A0D18BF40F0010012
:1069100040F2FF72B2EB515F08BF40F00200012865
:1069200008BF052002B070470907090E002804DBE4
:1069300000F1E02080F80014704700F00F0000F133
:10694000E02080F8141D704710B52DED028BB0EEDD
:10695000608AF0EE408A18EE101A18EE900A00F0E5
:106960001FFA00F07040B0F1005F0CD018EE100A72
:1069700020F00040C0F1FF40C00F02BFB0EE480A57
:10698000BDEC028B10BDB0EE680ABDEC028B10BDF1
:1069900010B52DED028BB0EE608AF0EE408A18EE55
:1069A000101A18EE900A00F0FBF900F07040B0F1F8
:1069B000004F0CD018EE100A20F00040C0F1FF404C
:1069C000C00F02BFB0EE480ABDEC028B10BDB0EEA6
:1069D000680ABDEC028B10BD30380A2801D20120B4
:1069E00070470020704700000EB5F0EE400A9FEDA2
:1069F0002F0AFFF7CDFFF0EE400A9FED2D0AFFF7BB
:106A0000A3FF10EE100ADFED2B0A9FED2B1AB0F159
:106A10007E5F06DBC0EE801A9FED280A30EE610A29
:106A200001E020EE200A4FF47570132120EE010AD8
:106A3000BCEEC00A10EE102A8DED010A824210D978
:106A4000B8EE400ADFED1E0A30EEC00ABCEEC00A06
:106A500010EE102A8DED000A0290824205D90090B6
:106A600006E000908DED020A02E0132A00D20091A8
:106A7000029A824201D9029002E0132A00D20291C6
:106A8000009800F57A7043080098C0F57A704208C3
:106A9000029800F57A704108029803B0C0F57A7048
:106AA00040085DF804EBFBF72DBA00009A99993F76
:106AB000CDCCCC3D48E17A3F00007A4448E1FA3F32
:106AC0000000F5442DE9F041604C2DED028B20884B
:106AD00081B204F1CC00FBF7B0F9A08881B204F5D3
:106AE0009270FBF7AAF9208981B204F5BE70FBF71A
:106AF000A4F9A08981B204F11C00FBF79EF9208A59
:106B000081B204F17400FBF798F994ED5E0A04F584
:106B1000017584ED750AD4ED481A2846C4ED761A3D
:106B200020EE211A84ED771A84ED780AD4ED740AE8
:106B300071EEE01AC4ED791A84ED7A1A84ED7B0ABD
:106B400020EE200AC4ED7C0A84ED7D0A94ED320A21
:106B500084ED7E0AD4ED1C0AC4ED7F0A20EE200AE3
:106B600084ED800AD5ED3F0AB0EE410AFFF770F8D8
:106B700085ED400AD4ED7B0AB0EE408AD5ED428A1D
:106B800088EE200AF0EE680AFFF702FFF1EE680ACD
:106B9000FFF7DAFEB5EEC08AF0EE400AF1EE10FA29
:106BA0002B4E85ED410A04F516704FF002082BDDDF
:106BB0000127777094ED7C0AFFF74AF8D4ED7B0A41
:106BC00004F52B7080EE201A85ED461AD5ED430AA8
:106BD00094ED7E0AFFF73CF894ED7B1AC0EE010AB3
:106BE000C5ED450A95ED460AF4EEC00AF1EE10FA3D
:106BF00003D8C5ED470A377003E085ED470A86F8EC
:106C0000008095ED470A16E0B5EEC08AF1EE10FA65
:106C100017D286F8018086F8008094ED7C0AFFF791
:106C200017F894ED7E1AF0EE400A80EE810A85EDA9
:106C3000460A85ED470ABDEC028BBDE8F041FFF73F
:106C4000D3BEBDEC028BBDE8F0810000380000200F
:106C500010000020FDF748F8FFF734FBFBF73EF982
:106C6000FBF704F9FBF75CF9FBF740F9FBF718F9C0
:106C700002221B491B48FBF70FF91949032208316F
:106C80001948FBF709F91748FBF708F900221146E4
:106C90001046FFF7E7FD0020FFF702F9134CA0882C
:106CA0000004000C03D1FBF71BF9FBF75BF9A0888C
:106CB00080B26060FBF7E2F9616808436060FFF74B
:106CC00085F8616808436060FFF7D0F908A10948BA
:106CD00000F012F8FBF754F90120FCF7F9FBE6E7A6
:106CE00038000020DC0300202C04002014000020C9
:106CF00068690000280700200FB470B50A4C06AA86
:106D000005462260261F09480599F9F77BFB82B2E8
:106D1000064932800020206088542846FEF7F0F9AA
:106D200070BC5DF814FB0000300000205C03002004
:106D300010B500290AD00878002807D00548784403
:106D4000FAF7B8FB002801D0002010BD02487844B3
:106D500010BD00002E0400002604000010B500291C
:106D60000AD00878002807D005487844FAF7A2FB33
:106D7000002801D0002010BD0248784410BD00005A
:106D80001E0400001604000000EE100A00EE901A27
:106D9000B4EE600AF1EE10FA78BF704700F00DB85B
:106DA00010B5FFF7F1FFEFF3008020F0104038BF7F
:106DB00040F0004080F3008810BDBDE8104010B5E1
:106DC00000F017F80000000900F007B84FF040404D
:106DD00010F1004FEFF300807047401058BFC0F132
:106DE0004040491058BFC1F140418142EFF300805B
:106DF00070470EF1020E2EF0030E5EF8044B244293
:106E000004D44FEA4102B2F17F4F11D84FEA400358
:106E1000B3F17F4F0CD80ED14FEAD07CB2F17F4F47
:106E20000CEB4C0C0CF1020C08BF4CEBD17C04E0D9
:106E30004FF0080C01E04FEAD17C0CEB4C0324FA34
:106E400003F404F00704B4F1040C06D20EEB840C36
:106E5000BDE810404CF0010C6047DFE80CF007087B
:106E600002024FF00040A0F5800010BD084642002D
:106E700018BFD2F1807288BF00F0004010BD4FF003
:106E80004070E1EE100A7047F9F721BFFAF756B8E3
:106E900002030405060708090A0B0C0D0E0F10105B
:106EA0000102030405060708090A0B0C0D0E0F105A
:106EB00000000000000000000102030406070809AA
:106EC0000000000099990A3C0000000099990A3CD2
:106ED00000000045FFFFA43C000000450000843B8B
:106EE000000000450000843B0000000099990A3C26
:106EF0000000000099990A3C00000045FFFFA43CF7
:106F0000000000450000843B000000450000843B79
:106F10000000000099990A3C0000000099990A3C81
:106F200000000045FFFFA43C000000450000843B3A
:106F3000000000450000843B0000000099990A3CD5
:106F40000000000099990A3C00000045FFFFA43CA6
:106F5000000000450000843B000000450000843B29
:106F60000000000099990A3C0000000099990A3C31
:106F700000000045FFFFA43C000000450000843BEA
:106F8000000000450000843B0000A0410000C0411B
:106F9000000088410000B041000040400000C040B7
:106FA00000000040000080400000004000008040E1
:106FB00066669E416666BE41EC5186410000AE4168
:106FC000000040400000C040A470FD3FEC518040F4
:106FD000CDCCAC3F66665640AE47A1411F85C1414E
:106FE0007B148841713DB041000040400000C0402A
:106FF00048E1FA3F1F857B4048E1FA3FD7A3804034
:107000000AD79F410AD7BF417B148841EC51B04158
:10701000000040400000C04048E1FA3FF6287C40B4
:1070200048E1FA3FEC5180400000A0410000C0411F
:10703000000088410000B041000040400000C04016
:107040000000004000008040000000400000804040
:107050000000000000000000303132333435363794
:10706000383941424344454640305800303132338C
:10707000343536373839616263646566403078008C
:1070800004000008000000000000000200010000F1
:1070900010303132333435363738396162636465E4
:1070A0006678700030313233343536373839414202
:1070B000434445465850000002400000000000A034
:1070C0000000000005400000000000C800000000B3
:1070D0000C4000000000409C00000000194000002F
:1070E0000020BCBE0000000034400000BFC91B8E61
:1070F00000000004B5400000504BCFD06607E2CF3F
:10710000010000006C4100003E8251AADFEEA7346E
:1071100001000000D9420000DCB5A0E23A301F9720
:10712000FFFFFFFFB4450000FD25A0C8E9A3C14F44
:10713000FFFFFFFFFF3F0000000000800000000095
:10714000FF3F00000000008000000000987200086F
:107150000000002038000000C4010008D0720008C0
:1071600038000020A8100000E00100081C0000000A
:1071700043000000F8FFFFFF0C0000000E000000BD
:107180000F0000002E00000010010000430000006E
:10719000F8FFFFFF00404040404040404040414138
:1071A00041414140404040404040404040404040DC
:1071B0004040404040050202020202020202020276
:1071C0000202020202202020202020202020200273
:1071D0000202020202029090909090901010101003
:1071E000101010101010101010101010101010109F
:1071F0000202020202028888888888880808080833
:1072000008080808080808080808080808080808FE
:107210000202020240000000000000000000000026
:10722000000000000000000000000000000000005E
:10723000000000000000000000000000000000004E
:10724000000000000000000000000000000000003E
:10725000000000000000000000000000000000002E
:10726000000000000000000000000000000000001E
:10727000000000000000000000000000000000000E
:1072800000000000000000000000000000000000FE
:1072900000000000000000000100000010000000DD
:1072A0000000000000127A00000000000000000052
:1072B00000000000000000000000000000000000CE
:1072C00000000000000000000000000000000000BE
:040000050800018965
:00000001FF
