Component: ARM Compiler 5.06 update 7 (build 960) Tool: armlink [4d3601]

==============================================================================

Section Cross References

    stm32f3xx_hal_adc_ex.o(i.ADC_ConversionStop) refers to stm32f3xx_hal.o(i.HAL_GetTick) for HAL_GetTick
    stm32f3xx_hal_adc_ex.o(i.ADC_DMAConvCplt) refers to stm32f3xx_hal_adc.o(i.HAL_ADC_ConvCpltCallback) for HAL_ADC_ConvCpltCallback
    stm32f3xx_hal_adc_ex.o(i.ADC_DMAError) refers to stm32f3xx_hal_adc.o(i.HAL_ADC_ErrorCallback) for HAL_ADC_ErrorCallback
    stm32f3xx_hal_adc_ex.o(i.ADC_DMAHalfConvCplt) refers to stm32f3xx_hal_adc.o(i.HAL_ADC_ConvHalfCpltCallback) for HAL_ADC_ConvHalfCpltCallback
    stm32f3xx_hal_adc_ex.o(i.ADC_Disable) refers to stm32f3xx_hal.o(i.HAL_GetTick) for HAL_GetTick
    stm32f3xx_hal_adc_ex.o(i.ADC_Enable) refers to stm32f3xx_hal.o(i.HAL_GetTick) for HAL_GetTick
    stm32f3xx_hal_adc_ex.o(i.HAL_ADCEx_Calibration_Start) refers to stm32f3xx_hal_adc_ex.o(i.ADC_Disable) for ADC_Disable
    stm32f3xx_hal_adc_ex.o(i.HAL_ADCEx_Calibration_Start) refers to stm32f3xx_hal.o(i.HAL_GetTick) for HAL_GetTick
    stm32f3xx_hal_adc_ex.o(i.HAL_ADCEx_InjectedConfigChannel) refers to system_stm32f3xx.o(.data) for SystemCoreClock
    stm32f3xx_hal_adc_ex.o(i.HAL_ADCEx_InjectedPollForConversion) refers to stm32f3xx_hal.o(i.HAL_GetTick) for HAL_GetTick
    stm32f3xx_hal_adc_ex.o(i.HAL_ADCEx_InjectedStart) refers to stm32f3xx_hal_adc_ex.o(i.ADC_Enable) for ADC_Enable
    stm32f3xx_hal_adc_ex.o(i.HAL_ADCEx_InjectedStart_IT) refers to stm32f3xx_hal_adc_ex.o(i.ADC_Enable) for ADC_Enable
    stm32f3xx_hal_adc_ex.o(i.HAL_ADCEx_InjectedStop) refers to stm32f3xx_hal_adc_ex.o(i.ADC_ConversionStop) for ADC_ConversionStop
    stm32f3xx_hal_adc_ex.o(i.HAL_ADCEx_InjectedStop) refers to stm32f3xx_hal_adc_ex.o(i.ADC_Disable) for ADC_Disable
    stm32f3xx_hal_adc_ex.o(i.HAL_ADCEx_InjectedStop_IT) refers to stm32f3xx_hal_adc_ex.o(i.ADC_ConversionStop) for ADC_ConversionStop
    stm32f3xx_hal_adc_ex.o(i.HAL_ADCEx_InjectedStop_IT) refers to stm32f3xx_hal_adc_ex.o(i.ADC_Disable) for ADC_Disable
    stm32f3xx_hal_adc_ex.o(i.HAL_ADCEx_MultiModeStart_DMA) refers to rt_memclr_w.o(.text) for __aeabi_memclr4
    stm32f3xx_hal_adc_ex.o(i.HAL_ADCEx_MultiModeStart_DMA) refers to stm32f3xx_hal_adc_ex.o(i.ADC_Enable) for ADC_Enable
==============================================================================

Removing Unused input sections from the image.

    Removing stm32f3xx_hal_adc.o(.rev16_text), (4 bytes).
    Removing stm32f3xx_hal_adc.o(.revsh_text), (4 bytes).
    Removing stm32f3xx_hal_adc.o(.rrx_text), (6 bytes).
    Removing stm32f3xx_hal_adc.o(i.HAL_ADC_AnalogWDGConfig), (4 bytes).
    Removing stm32f3xx_hal_adc.o(i.HAL_ADC_ConfigChannel), (4 bytes).
    Removing stm32f3xx_hal_adc.o(i.HAL_ADC_DeInit), (4 bytes).
    Removing stm32f3xx_hal_adc.o(i.HAL_ADC_GetError), (4 bytes).
    Removing stm32f3xx_hal_adc.o(i.HAL_ADC_GetState), (4 bytes).
    Removing stm32f3xx_hal_adc.o(i.HAL_ADC_GetValue), (6 bytes).
    Removing stm32f3xx_hal_adc.o(i.HAL_ADC_IRQHandler), (2 bytes).
    Removing stm32f3xx_hal_adc.o(i.HAL_ADC_Init), (4 bytes).
    Removing stm32f3xx_hal_adc.o(i.HAL_ADC_LevelOutOfWindowCallback), (2 bytes).
    Removing stm32f3xx_hal_adc.o(i.HAL_ADC_MspDeInit), (2 bytes).
    Removing stm32f3xx_hal_adc.o(i.HAL_ADC_MspInit), (2 bytes).
    Removing stm32f3xx_hal_adc.o(i.HAL_ADC_PollForConversion), (4 bytes).
    Removing stm32f3xx_hal_adc.o(i.HAL_ADC_PollForEvent), (4 bytes).
    Removing stm32f3xx_hal_adc.o(i.HAL_ADC_Start), (4 bytes).
    Removing stm32f3xx_hal_adc.o(i.HAL_ADC_Start_DMA), (4 bytes).
==============================================================================

Image Symbol Table

    Local Symbols

    Symbol Name                              Value     Ov Type        Size  Object(Section)

    ../Core/Src/adc.c                        0x00000000   Number         0  adc_1.o ABSOLUTE
    ../Core/Src/can.c                        0x00000000   Number         0  can_1.o ABSOLUTE
    ../Core/Src/dma.c                        0x00000000   Number         0  dma_1.o ABSOLUTE
    ../Core/Src/gpio.c                       0x00000000   Number         0  gpio_1.o ABSOLUTE
    ../Core/Src/hrtim.c                      0x00000000   Number         0  hrtim_1.o ABSOLUTE
    ../Core/Src/main.c                       0x00000000   Number         0  main_1.o ABSOLUTE
    ../Core/Src/stm32f3xx_hal_msp.c          0x00000000   Number         0  stm32f3xx_hal_msp_1.o ABSOLUTE
    ../Core/Src/stm32f3xx_it.c               0x00000000   Number         0  stm32f3xx_it_1.o ABSOLUTE
    ../Core/Src/system_stm32f3xx.c           0x00000000   Number         0  system_stm32f3xx.o ABSOLUTE
    ../Core/Src/tim.c                        0x00000000   Number         0  tim_1.o ABSOLUTE
    ../Core/Src/usart.c                      0x00000000   Number         0  usart_1.o ABSOLUTE
    ../Drivers/STM32F3xx_HAL_Driver/Src/stm32f3xx_hal.c 0x00000000   Number         0  stm32f3xx_hal.o ABSOLUTE
    ../Drivers/STM32F3xx_HAL_Driver/Src/stm32f3xx_hal_adc.c 0x00000000   Number         0  stm32f3xx_hal_adc.o ABSOLUTE
    ../Drivers/STM32F3xx_HAL_Driver/Src/stm32f3xx_hal_adc_ex.c 0x00000000   Number         0  stm32f3xx_hal_adc_ex.o ABSOLUTE
    ../Drivers/STM32F3xx_HAL_Driver/Src/stm32f3xx_hal_can.c 0x00000000   Number         0  stm32f3xx_hal_can.o ABSOLUTE
    ../Drivers/STM32F3xx_HAL_Driver/Src/stm32f3xx_hal_cortex.c 0x00000000   Number         0  stm32f3xx_hal_cortex.o ABSOLUTE
    ../Drivers/STM32F3xx_HAL_Driver/Src/stm32f3xx_hal_dma.c 0x00000000   Number         0  stm32f3xx_hal_dma.o ABSOLUTE
    ../Drivers/STM32F3xx_HAL_Driver/Src/stm32f3xx_hal_exti.c 0x00000000   Number         0  stm32f3xx_hal_exti.o ABSOLUTE
    ../Drivers/STM32F3xx_HAL_Driver/Src/stm32f3xx_hal_flash.c 0x00000000   Number         0  stm32f3xx_hal_flash.o ABSOLUTE
    ../Drivers/STM32F3xx_HAL_Driver/Src/stm32f3xx_hal_flash_ex.c 0x00000000   Number         0  stm32f3xx_hal_flash_ex.o ABSOLUTE
    ../Drivers/STM32F3xx_HAL_Driver/Src/stm32f3xx_hal_gpio.c 0x00000000   Number         0  stm32f3xx_hal_gpio.o ABSOLUTE
    ../Drivers/STM32F3xx_HAL_Driver/Src/stm32f3xx_hal_hrtim.c 0x00000000   Number         0  stm32f3xx_hal_hrtim.o ABSOLUTE
    ../Drivers/STM32F3xx_HAL_Driver/Src/stm32f3xx_hal_i2c.c 0x00000000   Number         0  stm32f3xx_hal_i2c.o ABSOLUTE
    ../Drivers/STM32F3xx_HAL_Driver/Src/stm32f3xx_hal_i2c_ex.c 0x00000000   Number         0  stm32f3xx_hal_i2c_ex.o ABSOLUTE
    ../Drivers/STM32F3xx_HAL_Driver/Src/stm32f3xx_hal_pwr.c 0x00000000   Number         0  stm32f3xx_hal_pwr.o ABSOLUTE
    ../Drivers/STM32F3xx_HAL_Driver/Src/stm32f3xx_hal_pwr_ex.c 0x00000000   Number         0  stm32f3xx_hal_pwr_ex.o ABSOLUTE
    ../Drivers/STM32F3xx_HAL_Driver/Src/stm32f3xx_hal_rcc.c 0x00000000   Number         0  stm32f3xx_hal_rcc.o ABSOLUTE
    ../Drivers/STM32F3xx_HAL_Driver/Src/stm32f3xx_hal_rcc_ex.c 0x00000000   Number         0  stm32f3xx_hal_rcc_ex.o ABSOLUTE
    ../Drivers/STM32F3xx_HAL_Driver/Src/stm32f3xx_hal_tim.c 0x00000000   Number         0  stm32f3xx_hal_tim.o ABSOLUTE
    ../Drivers/STM32F3xx_HAL_Driver/Src/stm32f3xx_hal_tim_ex.c 0x00000000   Number         0  stm32f3xx_hal_tim_ex.o ABSOLUTE
    ../Drivers/STM32F3xx_HAL_Driver/Src/stm32f3xx_hal_uart.c 0x00000000   Number         0  stm32f3xx_hal_uart.o ABSOLUTE
    ../Drivers/STM32F3xx_HAL_Driver/Src/stm32f3xx_hal_uart_ex.c 0x00000000   Number         0  stm32f3xx_hal_uart_ex.o ABSOLUTE
    ../clib/angel/boardlib.s                 0x00000000   Number         0  boardshut.o ABSOLUTE
    ../clib/angel/boardlib.s                 0x00000000   Number         0  boardinit3.o ABSOLUTE
    ../clib/angel/boardlib.s                 0x00000000   Number         0  boardinit2.o ABSOLUTE
    ../clib/angel/boardlib.s                 0x00000000   Number         0  boardinit1.o ABSOLUTE
    ../clib/angel/handlers.s                 0x00000000   Number         0  __scatter_copy.o ABSOLUTE
    ../clib/angel/handlers.s                 0x00000000   Number         0  __scatter_zi.o ABSOLUTE
    ../clib/angel/kernel.s                   0x00000000   Number         0  __rtentry.o ABSOLUTE
    ../clib/angel/kernel.s                   0x00000000   Number         0  rtexit2.o ABSOLUTE
    ../clib/angel/kernel.s                   0x00000000   Number         0  __rtentry2.o ABSOLUTE
    ../clib/angel/kernel.s                   0x00000000   Number         0  __rtentry4.o ABSOLUTE
    ../clib/angel/kernel.s                   0x00000000   Number         0  rtexit.o ABSOLUTE
    ../clib/angel/rt.s                       0x00000000   Number         0  aeabi_ldiv0.o ABSOLUTE
    ../clib/angel/rt.s                       0x00000000   Number         0  rt_ctype_table.o ABSOLUTE
    ../clib/angel/rt.s                       0x00000000   Number         0  rt_locale.o ABSOLUTE
    ../clib/angel/rt.s                       0x00000000   Number         0  aeabi_ldiv0_sigfpe.o ABSOLUTE
    ../clib/angel/rt.s                       0x00000000   Number         0  rt_locale_intlibspace.o ABSOLUTE
    ../clib/angel/rt.s                       0x00000000   Number         0  rt_div0.o ABSOLUTE
    ../clib/angel/rt.s                       0x00000000   Number         0  rt_raise.o ABSOLUTE
    ../clib/angel/scatter.s                  0x00000000   Number         0  __scatter.o ABSOLUTE
    ../clib/angel/startup.s                  0x00000000   Number         0  __main.o ABSOLUTE
    ../clib/angel/sys.s                      0x00000000   Number         0  sys_stackheap_outer.o ABSOLUTE
    ../clib/angel/sys.s                      0x00000000   Number         0  libspace.o ABSOLUTE
    ../clib/angel/sys.s                      0x00000000   Number         0  indicate_semi.o ABSOLUTE
    ../clib/angel/sys.s                      0x00000000   Number         0  use_no_semi.o ABSOLUTE
    ../clib/angel/sysapp.c                   0x00000000   Number         0  sys_exit.o ABSOLUTE
    ../clib/angel/sysapp.c                   0x00000000   Number         0  sys_command.o ABSOLUTE
    ../clib/angel/sysapp.c                   0x00000000   Number         0  sys_wrch.o ABSOLUTE
    ../clib/armsys.c                         0x00000000   Number         0  no_argv.o ABSOLUTE
    ../clib/armsys.c                         0x00000000   Number         0  _get_argv_nomalloc.o ABSOLUTE
    ../clib/armsys.c                         0x00000000   Number         0  argv_veneer.o ABSOLUTE
    ../clib/armsys.c                         0x00000000   Number         0  argv_veneer.o ABSOLUTE
    ../clib/bigflt.c                         0x00000000   Number         0  bigflt0.o ABSOLUTE
    ../clib/btod.s                           0x00000000   Number         0  btod.o ABSOLUTE
    ../clib/heapalloc.c                      0x00000000   Number         0  hrguard.o ABSOLUTE
    ../clib/heapaux.c                        0x00000000   Number         0  heapauxi.o ABSOLUTE
    ../clib/libinit.s                        0x00000000   Number         0  libinit.o ABSOLUTE
    ../clib/libinit.s                        0x00000000   Number         0  libinit2.o ABSOLUTE
    ../clib/libinit.s                        0x00000000   Number         0  libshutdown2.o ABSOLUTE
    ../clib/libinit.s                        0x00000000   Number         0  libshutdown.o ABSOLUTE
    ../clib/locale.c                         0x00000000   Number         0  _wcrtomb.o ABSOLUTE
    ../clib/locale.s                         0x00000000   Number         0  lc_ctype_c.o ABSOLUTE
    ../clib/locale.s                         0x00000000   Number         0  lc_numeric_c.o ABSOLUTE
    ../clib/longlong.s                       0x00000000   Number         0  llushr.o ABSOLUTE
    ../clib/longlong.s                       0x00000000   Number         0  lludivv7m.o ABSOLUTE
    ../clib/longlong.s                       0x00000000   Number         0  lludiv10.o ABSOLUTE
    ../clib/memcpset.s                       0x00000000   Number         0  rt_memclr_w.o ABSOLUTE
    ../clib/memcpset.s                       0x00000000   Number         0  strcmpv7m.o ABSOLUTE
    ../clib/misc.s                           0x00000000   Number         0  printf_stubs.o ABSOLUTE
    ../clib/printf.c                         0x00000000   Number         0  _printf_wctomb.o ABSOLUTE
    ../clib/printf.c                         0x00000000   Number         0  _printf_str.o ABSOLUTE
    ../clib/printf.c                         0x00000000   Number         0  _printf_intcommon.o ABSOLUTE
    ../clib/printf.c                         0x00000000   Number         0  _printf_dec.o ABSOLUTE
    ../clib/printf.c                         0x00000000   Number         0  _printf_hex_int_ptr.o ABSOLUTE
    ../clib/printf.c                         0x00000000   Number         0  _printf_hex_ptr.o ABSOLUTE
    ../clib/printf.c                         0x00000000   Number         0  _printf_charcount.o ABSOLUTE
    ../clib/printf.c                         0x00000000   Number         0  _printf_hex_int_ll.o ABSOLUTE
    ../clib/printf.c                         0x00000000   Number         0  _printf_char_common.o ABSOLUTE
    ../clib/printf.c                         0x00000000   Number         0  vsprintf.o ABSOLUTE
    ../clib/printf.c                         0x00000000   Number         0  _sputc.o ABSOLUTE
    ../clib/printf.c                         0x00000000   Number         0  _printf_truncate.o ABSOLUTE
    ../clib/printf.c                         0x00000000   Number         0  __printf_flags_ss.o ABSOLUTE
    ../clib/printf.c                         0x00000000   Number         0  _printf_hex_int.o ABSOLUTE
    ../clib/printf.c                         0x00000000   Number         0  _printf_longlong_dec.o ABSOLUTE
    ../clib/printf.c                         0x00000000   Number         0  _printf_oct_ll.o ABSOLUTE
    ../clib/printf.c                         0x00000000   Number         0  __printf.o ABSOLUTE
    ../clib/printf.c                         0x00000000   Number         0  _printf_oct_int.o ABSOLUTE
    ../clib/printf.c                         0x00000000   Number         0  __printf_flags.o ABSOLUTE
    ../clib/printf.c                         0x00000000   Number         0  _printf_oct_int_ll.o ABSOLUTE
    ../clib/printf.c                         0x00000000   Number         0  _printf_pad.o ABSOLUTE
    ../clib/printf.c                         0x00000000   Number         0  _printf_fp_infnan.o ABSOLUTE
    ../clib/printf.c                         0x00000000   Number         0  __printf_wp.o ABSOLUTE
    ../clib/printf.c                         0x00000000   Number         0  __printf_flags_wp.o ABSOLUTE
    ../clib/printf.c                         0x00000000   Number         0  __printf_ss_wp.o ABSOLUTE
    ../clib/printf.c                         0x00000000   Number         0  __printf_flags_ss_wp.o ABSOLUTE
    ../clib/printf.c                         0x00000000   Number         0  _printf_hex_int_ll_ptr.o ABSOLUTE
    ../clib/printf.c                         0x00000000   Number         0  _printf_hex_ll.o ABSOLUTE
    ../clib/printf.c                         0x00000000   Number         0  __printf_ss.o ABSOLUTE
    ../clib/printf.c                         0x00000000   Number         0  _printf_wchar.o ABSOLUTE
    ../clib/printf.c                         0x00000000   Number         0  _printf_char.o ABSOLUTE
    ../clib/printf.c                         0x00000000   Number         0  __printf_nopercent.o ABSOLUTE
    ../clib/printf.c                         0x00000000   Number         0  _printf_fp_hex.o ABSOLUTE
    ../clib/printf.c                         0x00000000   Number         0  _printf_hex_ll_ptr.o ABSOLUTE
    ../clib/printf.c                         0x00000000   Number         0  _printf_fp_dec.o ABSOLUTE
    ../clib/printf_percent.s                 0x00000000   Number         0  _printf_llu.o ABSOLUTE
    ../clib/printf_percent.s                 0x00000000   Number         0  _printf_lld.o ABSOLUTE
    ../clib/printf_percent.s                 0x00000000   Number         0  _printf_lli.o ABSOLUTE
    ../clib/printf_percent.s                 0x00000000   Number         0  _printf_percent.o ABSOLUTE
    ../clib/printf_percent.s                 0x00000000   Number         0  _printf_a.o ABSOLUTE
    ../clib/printf_percent.s                 0x00000000   Number         0  _printf_g.o ABSOLUTE
    ../clib/printf_percent.s                 0x00000000   Number         0  _printf_e.o ABSOLUTE
    ../clib/printf_percent.s                 0x00000000   Number         0  _printf_u.o ABSOLUTE
    ../clib/printf_percent.s                 0x00000000   Number         0  _printf_d.o ABSOLUTE
    ../clib/printf_percent.s                 0x00000000   Number         0  _printf_llx.o ABSOLUTE
    ../clib/printf_percent.s                 0x00000000   Number         0  _printf_o.o ABSOLUTE
    ../clib/printf_percent.s                 0x00000000   Number         0  _printf_i.o ABSOLUTE
    ../clib/printf_percent.s                 0x00000000   Number         0  _printf_lc.o ABSOLUTE
    ../clib/printf_percent.s                 0x00000000   Number         0  _printf_llo.o ABSOLUTE
    ../clib/printf_percent.s                 0x00000000   Number         0  _printf_c.o ABSOLUTE
    ../clib/printf_percent.s                 0x00000000   Number         0  _printf_x.o ABSOLUTE
    ../clib/printf_percent.s                 0x00000000   Number         0  _printf_ls.o ABSOLUTE
    ../clib/printf_percent.s                 0x00000000   Number         0  _printf_n.o ABSOLUTE
    ../clib/printf_percent.s                 0x00000000   Number         0  _printf_l.o ABSOLUTE
    ../clib/printf_percent.s                 0x00000000   Number         0  _printf_s.o ABSOLUTE
    ../clib/printf_percent.s                 0x00000000   Number         0  _printf_percent_end.o ABSOLUTE
    ../clib/printf_percent.s                 0x00000000   Number         0  _printf_p.o ABSOLUTE
    ../clib/printf_percent.s                 0x00000000   Number         0  _printf_f.o ABSOLUTE
    ../clib/printf_percent.s                 0x00000000   Number         0  _printf_ll.o ABSOLUTE
    ../clib/signal.c                         0x00000000   Number         0  defsig_fpe_inner.o ABSOLUTE
    ../clib/signal.c                         0x00000000   Number         0  defsig_fpe_outer.o ABSOLUTE
    ../clib/signal.c                         0x00000000   Number         0  defsig_fpe_formal.o ABSOLUTE
    ../clib/signal.c                         0x00000000   Number         0  defsig_rtmem_outer.o ABSOLUTE
    ../clib/signal.c                         0x00000000   Number         0  defsig_rtmem_formal.o ABSOLUTE
    ../clib/signal.c                         0x00000000   Number         0  defsig_stak_inner.o ABSOLUTE
    ../clib/signal.c                         0x00000000   Number         0  defsig_pvfn_inner.o ABSOLUTE
    ../clib/signal.c                         0x00000000   Number         0  defsig_other.o ABSOLUTE
    ../clib/signal.c                         0x00000000   Number         0  defsig_segv_inner.o ABSOLUTE
    ../clib/signal.c                         0x00000000   Number         0  defsig_exit.o ABSOLUTE
    ../clib/signal.c                         0x00000000   Number         0  defsig_abrt_inner.o ABSOLUTE
    ../clib/signal.c                         0x00000000   Number         0  defsig_rtred_inner.o ABSOLUTE
    ../clib/signal.c                         0x00000000   Number         0  defsig_rtmem_inner.o ABSOLUTE
    ../clib/signal.c                         0x00000000   Number         0  defsig_cppl_inner.o ABSOLUTE
    ../clib/signal.c                         0x00000000   Number         0  defsig_general.o ABSOLUTE
    ../clib/signal.c                         0x00000000   Number         0  __raise.o ABSOLUTE
    ../clib/signal.s                         0x00000000   Number         0  defsig.o ABSOLUTE
    ../clib/stdlib.c                         0x00000000   Number         0  exit.o ABSOLUTE
    ../clib/stdlib.c                         0x00000000   Number         0  abs.o ABSOLUTE
    ../fplib/dcmpi.s                         0x00000000   Number         0  dcmpi.o ABSOLUTE
    ../fplib/dflt.s                          0x00000000   Number         0  dflt_clz.o ABSOLUTE
    ../fplib/dleqf.s                         0x00000000   Number         0  dleqf.o ABSOLUTE
    ../fplib/dnaninf.s                       0x00000000   Number         0  dnaninf.o ABSOLUTE
    ../fplib/dretinf.s                       0x00000000   Number         0  dretinf.o ABSOLUTE
    ../fplib/drleqf.s                        0x00000000   Number         0  drleqf.o ABSOLUTE
    ../fplib/f2d.s                           0x00000000   Number         0  f2d.o ABSOLUTE
    ../fplib/fcmp4.s                         0x00000000   Number         0  fcmp4.o ABSOLUTE
    ../fplib/fcmpi.s                         0x00000000   Number         0  fcmpi.o ABSOLUTE
    ../fplib/fnaninf.s                       0x00000000   Number         0  fnaninf.o ABSOLUTE
    ../fplib/fpinit.s                        0x00000000   Number         0  fpinit.o ABSOLUTE
    ../fplib/istatus.s                       0x00000000   Number         0  istatus.o ABSOLUTE
    ../fplib/printf1.s                       0x00000000   Number         0  printf1.o ABSOLUTE
    ../fplib/printf2.s                       0x00000000   Number         0  printf2.o ABSOLUTE
    ../fplib/printf2a.s                      0x00000000   Number         0  printf2a.o ABSOLUTE
    ../fplib/printf2b.s                      0x00000000   Number         0  printf2b.o ABSOLUTE
    ../fplib/usenofp.s                       0x00000000   Number         0  usenofp.o ABSOLUTE
    ../mathlib/fmax.c                        0x00000000   Number         0  fmaxf.o ABSOLUTE
    ../mathlib/fmax.c                        0x00000000   Number         0  fminf.o ABSOLUTE
    ../mathlib/fpclassify.c                  0x00000000   Number         0  fpclassify.o ABSOLUTE
    ..\Core\Src\adc.c                        0x00000000   Number         0  adc_1.o ABSOLUTE
    ..\Core\Src\can.c                        0x00000000   Number         0  can_1.o ABSOLUTE
    ..\Core\Src\dma.c                        0x00000000   Number         0  dma_1.o ABSOLUTE
    ..\Core\Src\gpio.c                       0x00000000   Number         0  gpio_1.o ABSOLUTE
    ..\Core\Src\hrtim.c                      0x00000000   Number         0  hrtim_1.o ABSOLUTE
    ..\Core\Src\main.c                       0x00000000   Number         0  main_1.o ABSOLUTE
    ..\Core\Src\stm32f3xx_hal_msp.c          0x00000000   Number         0  stm32f3xx_hal_msp_1.o ABSOLUTE
    ..\Core\Src\stm32f3xx_it.c               0x00000000   Number         0  stm32f3xx_it_1.o ABSOLUTE
    ..\Core\Src\system_stm32f3xx.c           0x00000000   Number         0  system_stm32f3xx.o ABSOLUTE
    ..\Core\Src\tim.c                        0x00000000   Number         0  tim_1.o ABSOLUTE
    ..\Core\Src\usart.c                      0x00000000   Number         0  usart_1.o ABSOLUTE
    ..\Drivers\STM32F3xx_HAL_Driver\Src\stm32f3xx_hal.c 0x00000000   Number         0  stm32f3xx_hal.o ABSOLUTE
    ..\Drivers\STM32F3xx_HAL_Driver\Src\stm32f3xx_hal_adc.c 0x00000000   Number         0  stm32f3xx_hal_adc.o ABSOLUTE
    ..\Drivers\STM32F3xx_HAL_Driver\Src\stm32f3xx_hal_adc_ex.c 0x00000000   Number         0  stm32f3xx_hal_adc_ex.o ABSOLUTE
    ..\Drivers\STM32F3xx_HAL_Driver\Src\stm32f3xx_hal_can.c 0x00000000   Number         0  stm32f3xx_hal_can.o ABSOLUTE
    ..\Drivers\STM32F3xx_HAL_Driver\Src\stm32f3xx_hal_cortex.c 0x00000000   Number         0  stm32f3xx_hal_cortex.o ABSOLUTE
    ..\Drivers\STM32F3xx_HAL_Driver\Src\stm32f3xx_hal_dma.c 0x00000000   Number         0  stm32f3xx_hal_dma.o ABSOLUTE
    ..\Drivers\STM32F3xx_HAL_Driver\Src\stm32f3xx_hal_exti.c 0x00000000   Number         0  stm32f3xx_hal_exti.o ABSOLUTE
    ..\Drivers\STM32F3xx_HAL_Driver\Src\stm32f3xx_hal_flash.c 0x00000000   Number         0  stm32f3xx_hal_flash.o ABSOLUTE
    ..\Drivers\STM32F3xx_HAL_Driver\Src\stm32f3xx_hal_flash_ex.c 0x00000000   Number         0  stm32f3xx_hal_flash_ex.o ABSOLUTE
    ..\Drivers\STM32F3xx_HAL_Driver\Src\stm32f3xx_hal_gpio.c 0x00000000   Number         0  stm32f3xx_hal_gpio.o ABSOLUTE
    ..\Drivers\STM32F3xx_HAL_Driver\Src\stm32f3xx_hal_hrtim.c 0x00000000   Number         0  stm32f3xx_hal_hrtim.o ABSOLUTE
    ..\Drivers\STM32F3xx_HAL_Driver\Src\stm32f3xx_hal_i2c.c 0x00000000   Number         0  stm32f3xx_hal_i2c.o ABSOLUTE
    ..\Drivers\STM32F3xx_HAL_Driver\Src\stm32f3xx_hal_i2c_ex.c 0x00000000   Number         0  stm32f3xx_hal_i2c_ex.o ABSOLUTE
    ..\Drivers\STM32F3xx_HAL_Driver\Src\stm32f3xx_hal_pwr.c 0x00000000   Number         0  stm32f3xx_hal_pwr.o ABSOLUTE
    ..\Drivers\STM32F3xx_HAL_Driver\Src\stm32f3xx_hal_pwr_ex.c 0x00000000   Number         0  stm32f3xx_hal_pwr_ex.o ABSOLUTE
    ..\Drivers\STM32F3xx_HAL_Driver\Src\stm32f3xx_hal_rcc.c 0x00000000   Number         0  stm32f3xx_hal_rcc.o ABSOLUTE
    ..\Drivers\STM32F3xx_HAL_Driver\Src\stm32f3xx_hal_rcc_ex.c 0x00000000   Number         0  stm32f3xx_hal_rcc_ex.o ABSOLUTE
    ..\Drivers\STM32F3xx_HAL_Driver\Src\stm32f3xx_hal_tim.c 0x00000000   Number         0  stm32f3xx_hal_tim.o ABSOLUTE
    ..\Drivers\STM32F3xx_HAL_Driver\Src\stm32f3xx_hal_tim_ex.c 0x00000000   Number         0  stm32f3xx_hal_tim_ex.o ABSOLUTE
    ..\Drivers\STM32F3xx_HAL_Driver\Src\stm32f3xx_hal_uart.c 0x00000000   Number         0  stm32f3xx_hal_uart.o ABSOLUTE
    ..\Drivers\STM32F3xx_HAL_Driver\Src\stm32f3xx_hal_uart_ex.c 0x00000000   Number         0  stm32f3xx_hal_uart_ex.o ABSOLUTE
    ..\User\Algorithm\adc_to_elec.c          0x00000000   Number         0  adc_to_elec.o ABSOLUTE
    ..\User\Algorithm\filter.c               0x00000000   Number         0  filter.o ABSOLUTE
    ..\User\Algorithm\pid.c                  0x00000000   Number         0  pid.o ABSOLUTE
    ..\User\Application\power_loop.c         0x00000000   Number         0  power_loop.o ABSOLUTE
    ..\User\Application\supercap.c           0x00000000   Number         0  supercap.o ABSOLUTE
    ..\User\Bsp\bsp_adc.c                    0x00000000   Number         0  bsp_adc.o ABSOLUTE
    ..\User\Bsp\bsp_can.c                    0x00000000   Number         0  bsp_can.o ABSOLUTE
    ..\User\Bsp\bsp_gpio.c                   0x00000000   Number         0  bsp_gpio.o ABSOLUTE
    ..\User\Bsp\bsp_hrtim.c                  0x00000000   Number         0  bsp_hrtim.o ABSOLUTE
    ..\User\Bsp\bsp_tim.c                    0x00000000   Number         0  bsp_tim.o ABSOLUTE
    ..\User\Bsp\bsp_uart.c                   0x00000000   Number         0  bsp_uart.o ABSOLUTE
    ..\\User\\Application\\power_loop.c      0x00000000   Number         0  power_loop.o ABSOLUTE
    ..\\User\\Application\\supercap.c        0x00000000   Number         0  supercap.o ABSOLUTE
    ..\\User\\Bsp\\bsp_adc.c                 0x00000000   Number         0  bsp_adc.o ABSOLUTE
    ..\\User\\Bsp\\bsp_can.c                 0x00000000   Number         0  bsp_can.o ABSOLUTE
    ..\\User\\Bsp\\bsp_gpio.c                0x00000000   Number         0  bsp_gpio.o ABSOLUTE
    ..\\User\\Bsp\\bsp_hrtim.c               0x00000000   Number         0  bsp_hrtim.o ABSOLUTE
    ..\\User\\Bsp\\bsp_tim.c                 0x00000000   Number         0  bsp_tim.o ABSOLUTE
    ..\\User\\Bsp\\bsp_uart.c                0x00000000   Number         0  bsp_uart.o ABSOLUTE
    dc.s                                     0x00000000   Number         0  dc.o ABSOLUTE
    startup_stm32f334x8.s                    0x00000000   Number         0  startup_stm32f334x8.o ABSOLUTE
    RESET                                    0x08000000   Section      392  startup_stm32f334x8.o(RESET)
    !!!main                                  0x08000188   Section        8  __main.o(!!!main)
    !!!scatter                               0x08000190   Section       52  __scatter.o(!!!scatter)
    !!handler_copy                           0x080001c4   Section       26  __scatter_copy.o(!!handler_copy)
    !!handler_zi                             0x080001e0   Section       28  __scatter_zi.o(!!handler_zi)
    .ARM.Collect$$_printf_percent$$00000000  0x080001fc   Section        0  _printf_percent.o(.ARM.Collect$$_printf_percent$$00000000)
    .ARM.Collect$$_printf_percent$$00000001  0x080001fc   Section        6  _printf_n.o(.ARM.Collect$$_printf_percent$$00000001)
    .ARM.Collect$$_printf_percent$$00000002  0x08000202   Section        6  _printf_p.o(.ARM.Collect$$_printf_percent$$00000002)
    .ARM.Collect$$_printf_percent$$00000003  0x08000208   Section        6  _printf_f.o(.ARM.Collect$$_printf_percent$$00000003)
    .ARM.Collect$$_printf_percent$$00000004  0x0800020e   Section        6  _printf_e.o(.ARM.Collect$$_printf_percent$$00000004)
    .ARM.Collect$$_printf_percent$$00000005  0x08000214   Section        6  _printf_g.o(.ARM.Collect$$_printf_percent$$00000005)
    .ARM.Collect$$_printf_percent$$00000006  0x0800021a   Section        6  _printf_a.o(.ARM.Collect$$_printf_percent$$00000006)
    .ARM.Collect$$_printf_percent$$00000007  0x08000220   Section       10  _printf_ll.o(.ARM.Collect$$_printf_percent$$00000007)
    .ARM.Collect$$_printf_percent$$00000008  0x0800022a   Section        6  _printf_i.o(.ARM.Collect$$_printf_percent$$00000008)
    .ARM.Collect$$_printf_percent$$00000009  0x08000230   Section        6  _printf_d.o(.ARM.Collect$$_printf_percent$$00000009)
    .ARM.Collect$$_printf_percent$$0000000A  0x08000236   Section        6  _printf_u.o(.ARM.Collect$$_printf_percent$$0000000A)
    .ARM.Collect$$_printf_percent$$0000000B  0x0800023c   Section        6  _printf_o.o(.ARM.Collect$$_printf_percent$$0000000B)
    .ARM.Collect$$_printf_percent$$0000000C  0x08000242   Section        6  _printf_x.o(.ARM.Collect$$_printf_percent$$0000000C)
    .ARM.Collect$$_printf_percent$$0000000D  0x08000248   Section        6  _printf_lli.o(.ARM.Collect$$_printf_percent$$0000000D)
    .ARM.Collect$$_printf_percent$$0000000E  0x0800024e   Section        6  _printf_lld.o(.ARM.Collect$$_printf_percent$$0000000E)
    .ARM.Collect$$_printf_percent$$0000000F  0x08000254   Section        6  _printf_llu.o(.ARM.Collect$$_printf_percent$$0000000F)
    .ARM.Collect$$_printf_percent$$00000010  0x0800025a   Section        6  _printf_llo.o(.ARM.Collect$$_printf_percent$$00000010)
    .ARM.Collect$$_printf_percent$$00000011  0x08000260   Section        6  _printf_llx.o(.ARM.Collect$$_printf_percent$$00000011)
    .ARM.Collect$$_printf_percent$$00000012  0x08000266   Section       10  _printf_l.o(.ARM.Collect$$_printf_percent$$00000012)
    .ARM.Collect$$_printf_percent$$00000013  0x08000270   Section        6  _printf_c.o(.ARM.Collect$$_printf_percent$$00000013)
    .ARM.Collect$$_printf_percent$$00000014  0x08000276   Section        6  _printf_s.o(.ARM.Collect$$_printf_percent$$00000014)
    .ARM.Collect$$_printf_percent$$00000015  0x0800027c   Section        6  _printf_lc.o(.ARM.Collect$$_printf_percent$$00000015)
    .ARM.Collect$$_printf_percent$$00000016  0x08000282   Section        6  _printf_ls.o(.ARM.Collect$$_printf_percent$$00000016)
    .ARM.Collect$$_printf_percent$$00000017  0x08000288   Section        4  _printf_percent_end.o(.ARM.Collect$$_printf_percent$$00000017)
    .ARM.Collect$$libinit$$00000000          0x0800028c   Section        2  libinit.o(.ARM.Collect$$libinit$$00000000)
    .ARM.Collect$$libinit$$00000001          0x0800028e   Section        4  libinit2.o(.ARM.Collect$$libinit$$00000001)
    .ARM.Collect$$libinit$$00000004          0x08000292   Section        0  libinit2.o(.ARM.Collect$$libinit$$00000004)
    .ARM.Collect$$libinit$$0000000A          0x08000292   Section        0  libinit2.o(.ARM.Collect$$libinit$$0000000A)
    .ARM.Collect$$libinit$$0000000C          0x08000292   Section        0  libinit2.o(.ARM.Collect$$libinit$$0000000C)
    .ARM.Collect$$libinit$$0000000E          0x08000292   Section        0  libinit2.o(.ARM.Collect$$libinit$$0000000E)
    .ARM.Collect$$libinit$$0000000F          0x08000292   Section        6  libinit2.o(.ARM.Collect$$libinit$$0000000F)
    .ARM.Collect$$libinit$$00000011          0x08000298   Section        0  libinit2.o(.ARM.Collect$$libinit$$00000011)
    .ARM.Collect$$libinit$$00000012          0x08000298   Section       12  libinit2.o(.ARM.Collect$$libinit$$00000012)
    .ARM.Collect$$libinit$$00000013          0x080002a4   Section        0  libinit2.o(.ARM.Collect$$libinit$$00000013)
    .ARM.Collect$$libinit$$00000015          0x080002a4   Section        0  libinit2.o(.ARM.Collect$$libinit$$00000015)
    .ARM.Collect$$libinit$$00000016          0x080002a4   Section       10  libinit2.o(.ARM.Collect$$libinit$$00000016)
    .ARM.Collect$$libinit$$00000017          0x080002ae   Section        0  libinit2.o(.ARM.Collect$$libinit$$00000017)
    .ARM.Collect$$libinit$$00000019          0x080002ae   Section        0  libinit2.o(.ARM.Collect$$libinit$$00000019)
    .ARM.Collect$$libinit$$0000001B          0x080002ae   Section        0  libinit2.o(.ARM.Collect$$libinit$$0000001B)
    .ARM.Collect$$libinit$$0000001D          0x080002ae   Section        0  libinit2.o(.ARM.Collect$$libinit$$0000001D)
    .ARM.Collect$$libinit$$0000001F          0x080002ae   Section        0  libinit2.o(.ARM.Collect$$libinit$$0000001F)
    .ARM.Collect$$libinit$$00000021          0x080002ae   Section        0  libinit2.o(.ARM.Collect$$libinit$$00000021)
    .ARM.Collect$$libinit$$00000023          0x080002ae   Section        0  libinit2.o(.ARM.Collect$$libinit$$00000023)
    .ARM.Collect$$libinit$$00000025          0x080002ae   Section        0  libinit2.o(.ARM.Collect$$libinit$$00000025)
    .ARM.Collect$$libinit$$0000002C          0x080002ae   Section        0  libinit2.o(.ARM.Collect$$libinit$$0000002C)
    .ARM.Collect$$libinit$$0000002E          0x080002ae   Section        0  libinit2.o(.ARM.Collect$$libinit$$0000002E)
    .ARM.Collect$$libinit$$00000030          0x080002ae   Section        0  libinit2.o(.ARM.Collect$$libinit$$00000030)
    .ARM.Collect$$libinit$$00000032          0x080002ae   Section        0  libinit2.o(.ARM.Collect$$libinit$$00000032)
    .ARM.Collect$$libinit$$00000033          0x080002ae   Section        2  libinit2.o(.ARM.Collect$$libinit$$00000033)
    .ARM.Collect$$libshutdown$$00000000      0x080002b0   Section        2  libshutdown.o(.ARM.Collect$$libshutdown$$00000000)
    .ARM.Collect$$libshutdown$$00000002      0x080002b2   Section        0  libshutdown2.o(.ARM.Collect$$libshutdown$$00000002)
    .ARM.Collect$$libshutdown$$00000004      0x080002b2   Section        0  libshutdown2.o(.ARM.Collect$$libshutdown$$00000004)
    .ARM.Collect$$libshutdown$$00000006      0x080002b2   Section        0  libshutdown2.o(.ARM.Collect$$libshutdown$$00000006)
    .ARM.Collect$$libshutdown$$00000009      0x080002b2   Section        0  libshutdown2.o(.ARM.Collect$$libshutdown$$00000009)
    .ARM.Collect$$libshutdown$$0000000C      0x080002b2   Section        0  libshutdown2.o(.ARM.Collect$$libshutdown$$0000000C)
    .ARM.Collect$$libshutdown$$0000000E      0x080002b2   Section        0  libshutdown2.o(.ARM.Collect$$libshutdown$$0000000E)
    .ARM.Collect$$libshutdown$$00000011      0x080002b2   Section        0  libshutdown2.o(.ARM.Collect$$libshutdown$$00000011)
    .ARM.Collect$$libshutdown$$00000012      0x080002b2   Section        2  libshutdown2.o(.ARM.Collect$$libshutdown$$00000012)
    .ARM.Collect$$rtentry$$00000000          0x080002b4   Section        0  __rtentry.o(.ARM.Collect$$rtentry$$00000000)
    .ARM.Collect$$rtentry$$00000002          0x080002b4   Section        0  __rtentry2.o(.ARM.Collect$$rtentry$$00000002)
    .ARM.Collect$$rtentry$$00000004          0x080002b4   Section        6  __rtentry4.o(.ARM.Collect$$rtentry$$00000004)
    .ARM.Collect$$rtentry$$00000009          0x080002ba   Section        0  __rtentry2.o(.ARM.Collect$$rtentry$$00000009)
    .ARM.Collect$$rtentry$$0000000A          0x080002ba   Section        4  __rtentry2.o(.ARM.Collect$$rtentry$$0000000A)
    .ARM.Collect$$rtentry$$0000000C          0x080002be   Section        0  __rtentry2.o(.ARM.Collect$$rtentry$$0000000C)
    .ARM.Collect$$rtentry$$0000000D          0x080002be   Section        8  __rtentry2.o(.ARM.Collect$$rtentry$$0000000D)
    .ARM.Collect$$rtexit$$00000000           0x080002c6   Section        2  rtexit.o(.ARM.Collect$$rtexit$$00000000)
    .ARM.Collect$$rtexit$$00000002           0x080002c8   Section        0  rtexit2.o(.ARM.Collect$$rtexit$$00000002)
    .ARM.Collect$$rtexit$$00000003           0x080002c8   Section        4  rtexit2.o(.ARM.Collect$$rtexit$$00000003)
    .ARM.Collect$$rtexit$$00000004           0x080002cc   Section        6  rtexit2.o(.ARM.Collect$$rtexit$$00000004)
    .text                                    0x080002d4   Section       64  startup_stm32f334x8.o(.text)
    $v0                                      0x080002d4   Number         0  startup_stm32f334x8.o(.text)
    .text                                    0x08000314   Section      238  lludivv7m.o(.text)
    .text                                    0x08000404   Section        0  vsprintf.o(.text)
    .text                                    0x08000428   Section       78  rt_memclr_w.o(.text)
    .text                                    0x08000476   Section        0  heapauxi.o(.text)
    .text                                    0x0800047c   Section        0  _printf_pad.o(.text)
    .text                                    0x080004ca   Section        0  _printf_truncate.o(.text)
    .text                                    0x080004ee   Section        0  _printf_str.o(.text)
    .text                                    0x08000540   Section        0  _printf_dec.o(.text)
    .text                                    0x080005b8   Section        0  _printf_charcount.o(.text)
    .text                                    0x080005e0   Section        0  _printf_char_common.o(.text)
    _printf_input_char                       0x080005e1   Thumb Code    10  _printf_char_common.o(.text)
    .text                                    0x08000610   Section        0  _sputc.o(.text)
    .text                                    0x0800061c   Section        0  _printf_wctomb.o(.text)
    .text                                    0x080006d8   Section        0  _printf_longlong_dec.o(.text)
    .text                                    0x08000754   Section        0  _printf_oct_int_ll.o(.text)
    _printf_longlong_oct_internal            0x08000755   Thumb Code     0  _printf_oct_int_ll.o(.text)
    .text                                    0x080007c4   Section        0  _printf_hex_int_ll_ptr.o(.text)
    _printf_hex_common                       0x080007c5   Thumb Code     0  _printf_hex_int_ll_ptr.o(.text)
    .text                                    0x08000858   Section        0  __printf_flags_ss_wp.o(.text)
    .text                                    0x080009e0   Section      138  lludiv10.o(.text)
    .text                                    0x08000a6a   Section        0  _printf_intcommon.o(.text)
    .text                                    0x08000b1c   Section        0  _printf_fp_dec.o(.text)
    _fp_digits                               0x08000b1f   Thumb Code   432  _printf_fp_dec.o(.text)
    .text                                    0x08000f3c   Section        0  _printf_fp_hex.o(.text)
    .text                                    0x08001238   Section        0  _printf_char.o(.text)
    .text                                    0x08001264   Section        0  _printf_wchar.o(.text)
    .text                                    0x08001290   Section        0  _wcrtomb.o(.text)
    .text                                    0x080012d0   Section       74  sys_stackheap_outer.o(.text)
    .text                                    0x0800131c   Section       16  rt_ctype_table.o(.text)
    .text                                    0x0800132c   Section        8  rt_locale_intlibspace.o(.text)
    .text                                    0x08001334   Section        0  _printf_fp_infnan.o(.text)
    .text                                    0x080013b4   Section        0  bigflt0.o(.text)
    .text                                    0x08001498   Section        0  exit.o(.text)
    .text                                    0x080014ac   Section        8  libspace.o(.text)
    .text                                    0x080014b4   Section      128  strcmpv7m.o(.text)
    .text                                    0x08001534   Section        0  sys_exit.o(.text)
    .text                                    0x08001540   Section        2  use_no_semi.o(.text)
    .text                                    0x08001542   Section        0  indicate_semi.o(.text)
    CL$$btod_d2e                             0x08001542   Section       62  btod.o(CL$$btod_d2e)
    CL$$btod_d2e_denorm_low                  0x08001580   Section       70  btod.o(CL$$btod_d2e_denorm_low)
    CL$$btod_d2e_norm_op1                    0x080015c6   Section       96  btod.o(CL$$btod_d2e_norm_op1)
    CL$$btod_div_common                      0x08001626   Section      824  btod.o(CL$$btod_div_common)
    CL$$btod_e2e                             0x0800195e   Section      220  btod.o(CL$$btod_e2e)
    CL$$btod_ediv                            0x08001a3a   Section       42  btod.o(CL$$btod_ediv)
    CL$$btod_emul                            0x08001a64   Section       42  btod.o(CL$$btod_emul)
    CL$$btod_mult_common                     0x08001a8e   Section      580  btod.o(CL$$btod_mult_common)
    i.ADC_DMAConvCplt                        0x08001cd2   Section        0  stm32f3xx_hal_adc_ex.o(i.ADC_DMAConvCplt)
    ADC_DMAConvCplt                          0x08001cd3   Thumb Code    68  stm32f3xx_hal_adc_ex.o(i.ADC_DMAConvCplt)
    i.ADC_DMAError                           0x08001d16   Section        0  stm32f3xx_hal_adc_ex.o(i.ADC_DMAError)
    ADC_DMAError                             0x08001d17   Thumb Code    22  stm32f3xx_hal_adc_ex.o(i.ADC_DMAError)
    i.ADC_DMAHalfConvCplt                    0x08001d2c   Section        0  stm32f3xx_hal_adc_ex.o(i.ADC_DMAHalfConvCplt)
    ADC_DMAHalfConvCplt                      0x08001d2d   Thumb Code     6  stm32f3xx_hal_adc_ex.o(i.ADC_DMAHalfConvCplt)
    i.ADC_Disable                            0x08001d34   Section        0  stm32f3xx_hal_adc_ex.o(i.ADC_Disable)
    ADC_Disable                              0x08001d35   Thumb Code   106  stm32f3xx_hal_adc_ex.o(i.ADC_Disable)
    i.ADC_Enable                             0x08001da0   Section        0  stm32f3xx_hal_adc_ex.o(i.ADC_Enable)
    ADC_Enable                               0x08001da1   Thumb Code   102  stm32f3xx_hal_adc_ex.o(i.ADC_Enable)
    i.ADC_Linear_calibration_init            0x08001e0c   Section        0  adc_to_elec.o(i.ADC_Linear_calibration_init)
    i.ADC_Value_To_Elec                      0x08001e3a   Section        0  adc_to_elec.o(i.ADC_Value_To_Elec)
    i.BSP_ADC_Init                           0x08001e6c   Section        0  bsp_adc.o(i.BSP_ADC_Init)
    i.BSP_ADC_Start_DMA                      0x08001e98   Section        0  bsp_adc.o(i.BSP_ADC_Start_DMA)
    i.BSP_ADC_Start_Injected                 0x08001e9c   Section        0  bsp_adc.o(i.BSP_ADC_Start_Injected)
    i.BSP_CAN_Init                           0x08001ea0   Section        0  bsp_can.o(i.BSP_CAN_Init)
    i.BSP_GPIO_Init                          0x08001edc   Section        0  bsp_gpio.o(i.BSP_GPIO_Init)
    i.BSP_HRTIM_Enable_PWM                   0x08001ee0   Section        0  bsp_hrtim.o(i.BSP_HRTIM_Enable_PWM)
    i.BSP_HRTIM_Init                         0x08001eec   Section        0  bsp_hrtim.o(i.BSP_HRTIM_Init)
    i.BSP_HRTIM_Update_PWM                   0x08001f04   Section        0  bsp_hrtim.o(i.BSP_HRTIM_Update_PWM)
    i.BSP_TIM_Init                           0x08001f20   Section        0  bsp_tim.o(i.BSP_TIM_Init)
    i.BSP_TIM_Start_Loop_Timer               0x08001f64   Section        0  bsp_tim.o(i.BSP_TIM_Start_Loop_Timer)
    i.BusFault_Handler                       0x08001f70   Section        0  stm32f3xx_it_1.o(i.BusFault_Handler)
    i.CAN_RX0_IRQHandler                     0x08001f74   Section        0  stm32f3xx_it_1.o(i.CAN_RX0_IRQHandler)
    i.CAN_Send                               0x08001f80   Section        0  supercap.o(i.CAN_Send)
    CAN_Send                                 0x08001f81   Thumb Code   226  supercap.o(i.CAN_Send)
    i.Calc_CAP_Remain_And_Current            0x0800207c   Section        0  supercap.o(i.Calc_CAP_Remain_And_Current)
    Calc_CAP_Remain_And_Current              0x0800207d   Thumb Code   154  supercap.o(i.Calc_CAP_Remain_And_Current)
    i.DMA1_Channel1_IRQHandler               0x0800212c   Section        0  stm32f3xx_it_1.o(i.DMA1_Channel1_IRQHandler)
    i.DMA1_Channel2_IRQHandler               0x08002138   Section        0  stm32f3xx_it_1.o(i.DMA1_Channel2_IRQHandler)
    i.DMA1_Channel4_IRQHandler               0x08002144   Section        0  stm32f3xx_it_1.o(i.DMA1_Channel4_IRQHandler)
    i.DMA1_Channel5_IRQHandler               0x08002150   Section        0  stm32f3xx_it_1.o(i.DMA1_Channel5_IRQHandler)
    i.DMA1_Channel7_IRQHandler               0x0800215c   Section        0  stm32f3xx_it_1.o(i.DMA1_Channel7_IRQHandler)
    i.DMA_CalcBaseAndBitshift                0x08002168   Section        0  stm32f3xx_hal_dma.o(i.DMA_CalcBaseAndBitshift)
    DMA_CalcBaseAndBitshift                  0x08002169   Thumb Code    22  stm32f3xx_hal_dma.o(i.DMA_CalcBaseAndBitshift)
    i.DMA_SetConfig                          0x08002188   Section        0  stm32f3xx_hal_dma.o(i.DMA_SetConfig)
    DMA_SetConfig                            0x08002189   Thumb Code    42  stm32f3xx_hal_dma.o(i.DMA_SetConfig)
    i.DebugMon_Handler                       0x080021b2   Section        0  stm32f3xx_it_1.o(i.DebugMon_Handler)
    i.Error_Handler                          0x080021b4   Section        0  main_1.o(i.Error_Handler)
    i.HAL_ADCEx_Calibration_Start            0x080021b8   Section        0  stm32f3xx_hal_adc_ex.o(i.HAL_ADCEx_Calibration_Start)
    i.HAL_ADCEx_InjectedStart_IT             0x08002256   Section        0  stm32f3xx_hal_adc_ex.o(i.HAL_ADCEx_InjectedStart_IT)
    i.HAL_ADCEx_MultiModeConfigChannel       0x08002338   Section        0  stm32f3xx_hal_adc_ex.o(i.HAL_ADCEx_MultiModeConfigChannel)
    i.HAL_ADC_ConfigChannel                  0x08002418   Section        0  stm32f3xx_hal_adc_ex.o(i.HAL_ADC_ConfigChannel)
    i.HAL_ADC_ConvCpltCallback               0x08002768   Section        0  stm32f3xx_hal_adc.o(i.HAL_ADC_ConvCpltCallback)
    i.HAL_ADC_ConvHalfCpltCallback           0x0800276a   Section        0  stm32f3xx_hal_adc.o(i.HAL_ADC_ConvHalfCpltCallback)
    i.HAL_ADC_ErrorCallback                  0x0800276c   Section        0  stm32f3xx_hal_adc.o(i.HAL_ADC_ErrorCallback)
    i.HAL_ADC_Init                           0x08002770   Section        0  stm32f3xx_hal_adc_ex.o(i.HAL_ADC_Init)
    i.HAL_ADC_MspInit                        0x08002954   Section        0  adc_1.o(i.HAL_ADC_MspInit)
    i.HAL_ADC_Start_DMA                      0x08002a88   Section        0  stm32f3xx_hal_adc_ex.o(i.HAL_ADC_Start_DMA)
    i.HAL_CAN_ActivateNotification           0x08002b90   Section        0  stm32f3xx_hal_can.o(i.HAL_CAN_ActivateNotification)
    i.HAL_CAN_AddTxMessage                   0x08002bb4   Section        0  stm32f3xx_hal_can.o(i.HAL_CAN_AddTxMessage)
    i.HAL_CAN_ConfigFilter                   0x08002c84   Section        0  stm32f3xx_hal_can.o(i.HAL_CAN_ConfigFilter)
    i.HAL_CAN_ErrorCallback                  0x08002d72   Section        0  stm32f3xx_hal_can.o(i.HAL_CAN_ErrorCallback)
    i.HAL_CAN_GetRxMessage                   0x08002d74   Section        0  stm32f3xx_hal_can.o(i.HAL_CAN_GetRxMessage)
    i.HAL_CAN_IRQHandler                     0x08002e68   Section        0  stm32f3xx_hal_can.o(i.HAL_CAN_IRQHandler)
    i.HAL_CAN_Init                           0x08003064   Section        0  stm32f3xx_hal_can.o(i.HAL_CAN_Init)
    i.HAL_CAN_MspInit                        0x08003180   Section        0  can_1.o(i.HAL_CAN_MspInit)
    i.HAL_CAN_RxFifo0FullCallback            0x080031f4   Section        0  stm32f3xx_hal_can.o(i.HAL_CAN_RxFifo0FullCallback)
    i.HAL_CAN_RxFifo0MsgPendingCallback      0x080031f8   Section        0  supercap.o(i.HAL_CAN_RxFifo0MsgPendingCallback)
    i.HAL_CAN_RxFifo1FullCallback            0x0800326c   Section        0  stm32f3xx_hal_can.o(i.HAL_CAN_RxFifo1FullCallback)
    i.HAL_CAN_RxFifo1MsgPendingCallback      0x0800326e   Section        0  stm32f3xx_hal_can.o(i.HAL_CAN_RxFifo1MsgPendingCallback)
    i.HAL_CAN_SleepCallback                  0x08003270   Section        0  stm32f3xx_hal_can.o(i.HAL_CAN_SleepCallback)
    i.HAL_CAN_Start                          0x08003274   Section        0  stm32f3xx_hal_can.o(i.HAL_CAN_Start)
    i.HAL_CAN_TxMailbox0AbortCallback        0x080032cc   Section        0  stm32f3xx_hal_can.o(i.HAL_CAN_TxMailbox0AbortCallback)
    i.HAL_CAN_TxMailbox0CompleteCallback     0x080032ce   Section        0  stm32f3xx_hal_can.o(i.HAL_CAN_TxMailbox0CompleteCallback)
    i.HAL_CAN_TxMailbox1AbortCallback        0x080032d0   Section        0  stm32f3xx_hal_can.o(i.HAL_CAN_TxMailbox1AbortCallback)
    i.HAL_CAN_TxMailbox1CompleteCallback     0x080032d2   Section        0  stm32f3xx_hal_can.o(i.HAL_CAN_TxMailbox1CompleteCallback)
    i.HAL_CAN_TxMailbox2AbortCallback        0x080032d4   Section        0  stm32f3xx_hal_can.o(i.HAL_CAN_TxMailbox2AbortCallback)
    i.HAL_CAN_TxMailbox2CompleteCallback     0x080032d6   Section        0  stm32f3xx_hal_can.o(i.HAL_CAN_TxMailbox2CompleteCallback)
    i.HAL_CAN_WakeUpFromRxMsgCallback        0x080032d8   Section        0  stm32f3xx_hal_can.o(i.HAL_CAN_WakeUpFromRxMsgCallback)
    i.HAL_DMA_Abort                          0x080032da   Section        0  stm32f3xx_hal_dma.o(i.HAL_DMA_Abort)
    i.HAL_DMA_Abort_IT                       0x08003320   Section        0  stm32f3xx_hal_dma.o(i.HAL_DMA_Abort_IT)
    i.HAL_DMA_IRQHandler                     0x0800336a   Section        0  stm32f3xx_hal_dma.o(i.HAL_DMA_IRQHandler)
    i.HAL_DMA_Init                           0x08003412   Section        0  stm32f3xx_hal_dma.o(i.HAL_DMA_Init)
    i.HAL_DMA_Start_IT                       0x08003460   Section        0  stm32f3xx_hal_dma.o(i.HAL_DMA_Start_IT)
    i.HAL_Delay                              0x080034d0   Section        0  stm32f3xx_hal.o(i.HAL_Delay)
    i.HAL_GPIO_Init                          0x080034f4   Section        0  stm32f3xx_hal_gpio.o(i.HAL_GPIO_Init)
    i.HAL_GetTick                            0x08003714   Section        0  stm32f3xx_hal.o(i.HAL_GetTick)
    i.HAL_HRTIM_BurstModePeriodCallback      0x08003720   Section        0  stm32f3xx_hal_hrtim.o(i.HAL_HRTIM_BurstModePeriodCallback)
    i.HAL_HRTIM_Capture1EventCallback        0x08003722   Section        0  stm32f3xx_hal_hrtim.o(i.HAL_HRTIM_Capture1EventCallback)
    i.HAL_HRTIM_Capture2EventCallback        0x08003724   Section        0  stm32f3xx_hal_hrtim.o(i.HAL_HRTIM_Capture2EventCallback)
    i.HAL_HRTIM_Compare1EventCallback        0x08003726   Section        0  stm32f3xx_hal_hrtim.o(i.HAL_HRTIM_Compare1EventCallback)
    i.HAL_HRTIM_Compare2EventCallback        0x08003728   Section        0  stm32f3xx_hal_hrtim.o(i.HAL_HRTIM_Compare2EventCallback)
    i.HAL_HRTIM_Compare3EventCallback        0x0800372a   Section        0  stm32f3xx_hal_hrtim.o(i.HAL_HRTIM_Compare3EventCallback)
    i.HAL_HRTIM_Compare4EventCallback        0x0800372c   Section        0  stm32f3xx_hal_hrtim.o(i.HAL_HRTIM_Compare4EventCallback)
    i.HAL_HRTIM_CounterResetCallback         0x0800372e   Section        0  stm32f3xx_hal_hrtim.o(i.HAL_HRTIM_CounterResetCallback)
    i.HAL_HRTIM_DLLCalibrationReadyCallback  0x08003730   Section        0  stm32f3xx_hal_hrtim.o(i.HAL_HRTIM_DLLCalibrationReadyCallback)
    i.HAL_HRTIM_DLLCalibrationStart          0x08003732   Section        0  stm32f3xx_hal_hrtim.o(i.HAL_HRTIM_DLLCalibrationStart)
    i.HAL_HRTIM_DeadTimeConfig               0x08003794   Section        0  stm32f3xx_hal_hrtim.o(i.HAL_HRTIM_DeadTimeConfig)
    i.HAL_HRTIM_DelayedProtectionCallback    0x08003820   Section        0  stm32f3xx_hal_hrtim.o(i.HAL_HRTIM_DelayedProtectionCallback)
    i.HAL_HRTIM_Fault1Callback               0x08003822   Section        0  stm32f3xx_hal_hrtim.o(i.HAL_HRTIM_Fault1Callback)
    i.HAL_HRTIM_Fault2Callback               0x08003824   Section        0  stm32f3xx_hal_hrtim.o(i.HAL_HRTIM_Fault2Callback)
    i.HAL_HRTIM_Fault3Callback               0x08003826   Section        0  stm32f3xx_hal_hrtim.o(i.HAL_HRTIM_Fault3Callback)
    i.HAL_HRTIM_Fault4Callback               0x08003828   Section        0  stm32f3xx_hal_hrtim.o(i.HAL_HRTIM_Fault4Callback)
    i.HAL_HRTIM_Fault5Callback               0x0800382a   Section        0  stm32f3xx_hal_hrtim.o(i.HAL_HRTIM_Fault5Callback)
    i.HAL_HRTIM_IRQHandler                   0x0800382c   Section        0  stm32f3xx_hal_hrtim.o(i.HAL_HRTIM_IRQHandler)
    i.HAL_HRTIM_Init                         0x08003840   Section        0  stm32f3xx_hal_hrtim.o(i.HAL_HRTIM_Init)
    i.HAL_HRTIM_MspInit                      0x080038fc   Section        0  hrtim_1.o(i.HAL_HRTIM_MspInit)
    i.HAL_HRTIM_MspPostInit                  0x08003938   Section        0  hrtim_1.o(i.HAL_HRTIM_MspPostInit)
    i.HAL_HRTIM_Output1ResetCallback         0x0800398c   Section        0  stm32f3xx_hal_hrtim.o(i.HAL_HRTIM_Output1ResetCallback)
    i.HAL_HRTIM_Output1SetCallback           0x0800398e   Section        0  stm32f3xx_hal_hrtim.o(i.HAL_HRTIM_Output1SetCallback)
    i.HAL_HRTIM_Output2ResetCallback         0x08003990   Section        0  stm32f3xx_hal_hrtim.o(i.HAL_HRTIM_Output2ResetCallback)
    i.HAL_HRTIM_Output2SetCallback           0x08003992   Section        0  stm32f3xx_hal_hrtim.o(i.HAL_HRTIM_Output2SetCallback)
    i.HAL_HRTIM_PollForDLLCalibration        0x08003994   Section        0  stm32f3xx_hal_hrtim.o(i.HAL_HRTIM_PollForDLLCalibration)
    i.HAL_HRTIM_RegistersUpdateCallback      0x080039d6   Section        0  stm32f3xx_hal_hrtim.o(i.HAL_HRTIM_RegistersUpdateCallback)
    i.HAL_HRTIM_RepetitionEventCallback      0x080039d8   Section        0  power_loop.o(i.HAL_HRTIM_RepetitionEventCallback)
    i.HAL_HRTIM_SynchronizationEventCallback 0x080039da   Section        0  stm32f3xx_hal_hrtim.o(i.HAL_HRTIM_SynchronizationEventCallback)
    i.HAL_HRTIM_SystemFaultCallback          0x080039dc   Section        0  stm32f3xx_hal_hrtim.o(i.HAL_HRTIM_SystemFaultCallback)
    i.HAL_HRTIM_TimeBaseConfig               0x080039de   Section        0  stm32f3xx_hal_hrtim.o(i.HAL_HRTIM_TimeBaseConfig)
    i.HAL_HRTIM_WaveformCompareConfig        0x08003a58   Section        0  stm32f3xx_hal_hrtim.o(i.HAL_HRTIM_WaveformCompareConfig)
    i.HAL_HRTIM_WaveformCountStart           0x08003b8c   Section        0  stm32f3xx_hal_hrtim.o(i.HAL_HRTIM_WaveformCountStart)
    i.HAL_HRTIM_WaveformOutputConfig         0x08003bb8   Section        0  stm32f3xx_hal_hrtim.o(i.HAL_HRTIM_WaveformOutputConfig)
    i.HAL_HRTIM_WaveformOutputStart          0x08003bee   Section        0  stm32f3xx_hal_hrtim.o(i.HAL_HRTIM_WaveformOutputStart)
    i.HAL_HRTIM_WaveformTimerConfig          0x08003c1e   Section        0  stm32f3xx_hal_hrtim.o(i.HAL_HRTIM_WaveformTimerConfig)
    i.HAL_IncTick                            0x08003cd8   Section        0  stm32f3xx_hal.o(i.HAL_IncTick)
    i.HAL_Init                               0x08003ce8   Section        0  stm32f3xx_hal.o(i.HAL_Init)
    i.HAL_InitTick                           0x08003d0c   Section        0  stm32f3xx_hal.o(i.HAL_InitTick)
    i.HAL_MspInit                            0x08003d4c   Section        0  stm32f3xx_hal_msp_1.o(i.HAL_MspInit)
    i.HAL_NVIC_EnableIRQ                     0x08003d78   Section        0  stm32f3xx_hal_cortex.o(i.HAL_NVIC_EnableIRQ)
    i.HAL_NVIC_SetPriority                   0x08003d94   Section        0  stm32f3xx_hal_cortex.o(i.HAL_NVIC_SetPriority)
    i.HAL_NVIC_SetPriorityGrouping           0x08003dd4   Section        0  stm32f3xx_hal_cortex.o(i.HAL_NVIC_SetPriorityGrouping)
    i.HAL_RCCEx_PeriphCLKConfig              0x08003df8   Section        0  stm32f3xx_hal_rcc_ex.o(i.HAL_RCCEx_PeriphCLKConfig)
    i.HAL_RCC_ClockConfig                    0x08003f80   Section        0  stm32f3xx_hal_rcc.o(i.HAL_RCC_ClockConfig)
    i.HAL_RCC_GetSysClockFreq                0x080040c8   Section        0  stm32f3xx_hal_rcc.o(i.HAL_RCC_GetSysClockFreq)
    i.HAL_RCC_OscConfig                      0x08004134   Section        0  stm32f3xx_hal_rcc.o(i.HAL_RCC_OscConfig)
    i.HAL_SYSTICK_Config                     0x080046fc   Section        0  stm32f3xx_hal_cortex.o(i.HAL_SYSTICK_Config)
    i.HAL_TIMEx_Break2Callback               0x08004724   Section        0  stm32f3xx_hal_tim_ex.o(i.HAL_TIMEx_Break2Callback)
    i.HAL_TIMEx_BreakCallback                0x08004726   Section        0  stm32f3xx_hal_tim_ex.o(i.HAL_TIMEx_BreakCallback)
    i.HAL_TIMEx_CommutCallback               0x08004728   Section        0  stm32f3xx_hal_tim_ex.o(i.HAL_TIMEx_CommutCallback)
    i.HAL_TIMEx_MasterConfigSynchronization  0x0800472c   Section        0  stm32f3xx_hal_tim_ex.o(i.HAL_TIMEx_MasterConfigSynchronization)
    i.HAL_TIM_Base_Init                      0x080047a0   Section        0  stm32f3xx_hal_tim.o(i.HAL_TIM_Base_Init)
    i.HAL_TIM_Base_MspInit                   0x08004804   Section        0  tim_1.o(i.HAL_TIM_Base_MspInit)
    i.HAL_TIM_Base_Start                     0x08004854   Section        0  stm32f3xx_hal_tim.o(i.HAL_TIM_Base_Start)
    i.HAL_TIM_Base_Start_IT                  0x080048ac   Section        0  stm32f3xx_hal_tim.o(i.HAL_TIM_Base_Start_IT)
    i.HAL_TIM_ConfigClockSource              0x08004910   Section        0  stm32f3xx_hal_tim.o(i.HAL_TIM_ConfigClockSource)
    i.HAL_TIM_IC_CaptureCallback             0x080049f0   Section        0  stm32f3xx_hal_tim.o(i.HAL_TIM_IC_CaptureCallback)
    i.HAL_TIM_IRQHandler                     0x080049f2   Section        0  stm32f3xx_hal_tim.o(i.HAL_TIM_IRQHandler)
    i.HAL_TIM_MspPostInit                    0x08004b78   Section        0  tim_1.o(i.HAL_TIM_MspPostInit)
    i.HAL_TIM_OC_DelayElapsedCallback        0x08004bc0   Section        0  stm32f3xx_hal_tim.o(i.HAL_TIM_OC_DelayElapsedCallback)
    i.HAL_TIM_PWM_ConfigChannel              0x08004bc2   Section        0  stm32f3xx_hal_tim.o(i.HAL_TIM_PWM_ConfigChannel)
    i.HAL_TIM_PWM_Init                       0x08004ce6   Section        0  stm32f3xx_hal_tim.o(i.HAL_TIM_PWM_Init)
    i.HAL_TIM_PWM_MspInit                    0x08004d48   Section        0  stm32f3xx_hal_tim.o(i.HAL_TIM_PWM_MspInit)
    i.HAL_TIM_PWM_PulseFinishedCallback      0x08004d4a   Section        0  stm32f3xx_hal_tim.o(i.HAL_TIM_PWM_PulseFinishedCallback)
    i.HAL_TIM_PWM_Start                      0x08004d4c   Section        0  stm32f3xx_hal_tim.o(i.HAL_TIM_PWM_Start)
    i.HAL_TIM_PeriodElapsedCallback          0x08004e30   Section        0  power_loop.o(i.HAL_TIM_PeriodElapsedCallback)
    i.HAL_TIM_TriggerCallback                0x08004e40   Section        0  stm32f3xx_hal_tim.o(i.HAL_TIM_TriggerCallback)
    i.HAL_UARTEx_RxEventCallback             0x08004e42   Section        0  stm32f3xx_hal_uart.o(i.HAL_UARTEx_RxEventCallback)
    i.HAL_UARTEx_WakeupCallback              0x08004e44   Section        0  stm32f3xx_hal_uart_ex.o(i.HAL_UARTEx_WakeupCallback)
    i.HAL_UART_ErrorCallback                 0x08004e46   Section        0  stm32f3xx_hal_uart.o(i.HAL_UART_ErrorCallback)
    i.HAL_UART_IRQHandler                    0x08004e48   Section        0  stm32f3xx_hal_uart.o(i.HAL_UART_IRQHandler)
    i.HAL_UART_Transmit_DMA                  0x08005100   Section        0  stm32f3xx_hal_uart.o(i.HAL_UART_Transmit_DMA)
    i.HAL_UART_TxCpltCallback                0x0800518c   Section        0  stm32f3xx_hal_uart.o(i.HAL_UART_TxCpltCallback)
    i.HAL_UART_TxHalfCpltCallback            0x0800518e   Section        0  stm32f3xx_hal_uart.o(i.HAL_UART_TxHalfCpltCallback)
    i.HRTIM1_Master_IRQHandler               0x08005190   Section        0  stm32f3xx_it_1.o(i.HRTIM1_Master_IRQHandler)
    i.HRTIM_ForceRegistersUpdate             0x0800519c   Section        0  stm32f3xx_hal_hrtim.o(i.HRTIM_ForceRegistersUpdate)
    HRTIM_ForceRegistersUpdate               0x0800519d   Thumb Code    90  stm32f3xx_hal_hrtim.o(i.HRTIM_ForceRegistersUpdate)
    i.HRTIM_HRTIM_ISR                        0x080051f6   Section        0  stm32f3xx_hal_hrtim.o(i.HRTIM_HRTIM_ISR)
    HRTIM_HRTIM_ISR                          0x080051f7   Thumb Code   146  stm32f3xx_hal_hrtim.o(i.HRTIM_HRTIM_ISR)
    i.HRTIM_Master_ISR                       0x08005288   Section        0  stm32f3xx_hal_hrtim.o(i.HRTIM_Master_ISR)
    HRTIM_Master_ISR                         0x08005289   Thumb Code   240  stm32f3xx_hal_hrtim.o(i.HRTIM_Master_ISR)
    i.HRTIM_OutputConfig                     0x08005378   Section        0  stm32f3xx_hal_hrtim.o(i.HRTIM_OutputConfig)
    HRTIM_OutputConfig                       0x08005379   Thumb Code   206  stm32f3xx_hal_hrtim.o(i.HRTIM_OutputConfig)
    i.HRTIM_Timer_ISR                        0x08005446   Section        0  stm32f3xx_hal_hrtim.o(i.HRTIM_Timer_ISR)
    HRTIM_Timer_ISR                          0x08005447   Thumb Code   358  stm32f3xx_hal_hrtim.o(i.HRTIM_Timer_ISR)
    i.HRTIM_TimingUnitWaveform_Config        0x080055ac   Section        0  stm32f3xx_hal_hrtim.o(i.HRTIM_TimingUnitWaveform_Config)
    HRTIM_TimingUnitWaveform_Config          0x080055ad   Thumb Code   322  stm32f3xx_hal_hrtim.o(i.HRTIM_TimingUnitWaveform_Config)
    i.HardFault_Handler                      0x080056ee   Section        0  stm32f3xx_it_1.o(i.HardFault_Handler)
    i.MX_ADC1_Init                           0x080056f0   Section        0  adc_1.o(i.MX_ADC1_Init)
    i.MX_ADC2_Init                           0x0800578c   Section        0  adc_1.o(i.MX_ADC2_Init)
    i.MX_CAN_Init                            0x08005828   Section        0  can_1.o(i.MX_CAN_Init)
    i.MX_DMA_Init                            0x0800586c   Section        0  dma_1.o(i.MX_DMA_Init)
    i.MX_GPIO_Init                           0x080058d8   Section        0  gpio_1.o(i.MX_GPIO_Init)
    i.MX_HRTIM1_Init                         0x08005914   Section        0  hrtim_1.o(i.MX_HRTIM1_Init)
    i.MX_TIM2_Init                           0x08005b30   Section        0  tim_1.o(i.MX_TIM2_Init)
    i.MX_TIM6_Init                           0x08005c04   Section        0  tim_1.o(i.MX_TIM6_Init)
    i.MemManage_Handler                      0x08005c4c   Section        0  stm32f3xx_it_1.o(i.MemManage_Handler)
    i.NMI_Handler                            0x08005c4e   Section        0  stm32f3xx_it_1.o(i.NMI_Handler)
    i.PID_calc                               0x08005c50   Section        0  pid.o(i.PID_calc)
    i.PID_init                               0x08005d78   Section        0  pid.o(i.PID_init)
    i.PendSV_Handler                         0x08005dc8   Section        0  stm32f3xx_it_1.o(i.PendSV_Handler)
    i.Running_Diagnose                       0x08005dcc   Section        0  supercap.o(i.Running_Diagnose)
    Running_Diagnose                         0x08005dcd   Thumb Code   170  supercap.o(i.Running_Diagnose)
    i.SVC_Handler                            0x08005e9c   Section        0  stm32f3xx_it_1.o(i.SVC_Handler)
    i.Set_Board_Config                       0x08005ea0   Section        0  supercap.o(i.Set_Board_Config)
    Set_Board_Config                         0x08005ea1   Thumb Code   388  supercap.o(i.Set_Board_Config)
    i.Show_Status                            0x0800606c   Section        0  supercap.o(i.Show_Status)
    Show_Status                              0x0800606d   Thumb Code   590  supercap.o(i.Show_Status)
    i.SysTick_Handler                        0x080062c0   Section        0  stm32f3xx_it_1.o(i.SysTick_Handler)
    i.SystemClock_Config                     0x080062c4   Section        0  main_1.o(i.SystemClock_Config)
    i.SystemInit                             0x08006350   Section        0  system_stm32f3xx.o(i.SystemInit)
    i.TIM6_DAC1_IRQHandler                   0x08006360   Section        0  stm32f3xx_it_1.o(i.TIM6_DAC1_IRQHandler)
    i.TIM_Base_SetConfig                     0x0800636c   Section        0  stm32f3xx_hal_tim.o(i.TIM_Base_SetConfig)
    i.TIM_CCxChannelCmd                      0x080063f4   Section        0  stm32f3xx_hal_tim.o(i.TIM_CCxChannelCmd)
    i.TIM_ETR_SetConfig                      0x0800640e   Section        0  stm32f3xx_hal_tim.o(i.TIM_ETR_SetConfig)
    i.TIM_ITRx_SetConfig                     0x08006422   Section        0  stm32f3xx_hal_tim.o(i.TIM_ITRx_SetConfig)
    TIM_ITRx_SetConfig                       0x08006423   Thumb Code    16  stm32f3xx_hal_tim.o(i.TIM_ITRx_SetConfig)
    i.TIM_OC1_SetConfig                      0x08006434   Section        0  stm32f3xx_hal_tim.o(i.TIM_OC1_SetConfig)
    TIM_OC1_SetConfig                        0x08006435   Thumb Code   116  stm32f3xx_hal_tim.o(i.TIM_OC1_SetConfig)
    i.TIM_OC2_SetConfig                      0x080064bc   Section        0  stm32f3xx_hal_tim.o(i.TIM_OC2_SetConfig)
    i.TIM_OC3_SetConfig                      0x0800653c   Section        0  stm32f3xx_hal_tim.o(i.TIM_OC3_SetConfig)
    TIM_OC3_SetConfig                        0x0800653d   Thumb Code   106  stm32f3xx_hal_tim.o(i.TIM_OC3_SetConfig)
    i.TIM_OC4_SetConfig                      0x080065bc   Section        0  stm32f3xx_hal_tim.o(i.TIM_OC4_SetConfig)
    TIM_OC4_SetConfig                        0x080065bd   Thumb Code    86  stm32f3xx_hal_tim.o(i.TIM_OC4_SetConfig)
    i.TIM_OC5_SetConfig                      0x08006628   Section        0  stm32f3xx_hal_tim.o(i.TIM_OC5_SetConfig)
    TIM_OC5_SetConfig                        0x08006629   Thumb Code    80  stm32f3xx_hal_tim.o(i.TIM_OC5_SetConfig)
    i.TIM_OC6_SetConfig                      0x0800668c   Section        0  stm32f3xx_hal_tim.o(i.TIM_OC6_SetConfig)
    TIM_OC6_SetConfig                        0x0800668d   Thumb Code    82  stm32f3xx_hal_tim.o(i.TIM_OC6_SetConfig)
    i.TIM_TI1_ConfigInputStage               0x080066f4   Section        0  stm32f3xx_hal_tim.o(i.TIM_TI1_ConfigInputStage)
    TIM_TI1_ConfigInputStage                 0x080066f5   Thumb Code    34  stm32f3xx_hal_tim.o(i.TIM_TI1_ConfigInputStage)
    i.TIM_TI2_ConfigInputStage               0x08006716   Section        0  stm32f3xx_hal_tim.o(i.TIM_TI2_ConfigInputStage)
    TIM_TI2_ConfigInputStage                 0x08006717   Thumb Code    36  stm32f3xx_hal_tim.o(i.TIM_TI2_ConfigInputStage)
    i.UART_DMAAbortOnError                   0x0800673a   Section        0  stm32f3xx_hal_uart.o(i.UART_DMAAbortOnError)
    UART_DMAAbortOnError                     0x0800673b   Thumb Code    20  stm32f3xx_hal_uart.o(i.UART_DMAAbortOnError)
    i.UART_DMAError                          0x0800674e   Section        0  stm32f3xx_hal_uart.o(i.UART_DMAError)
    UART_DMAError                            0x0800674f   Thumb Code    78  stm32f3xx_hal_uart.o(i.UART_DMAError)
    i.UART_DMATransmitCplt                   0x0800679c   Section        0  stm32f3xx_hal_uart.o(i.UART_DMATransmitCplt)
    UART_DMATransmitCplt                     0x0800679d   Thumb Code    64  stm32f3xx_hal_uart.o(i.UART_DMATransmitCplt)
    i.UART_DMATxHalfCplt                     0x080067dc   Section        0  stm32f3xx_hal_uart.o(i.UART_DMATxHalfCplt)
    UART_DMATxHalfCplt                       0x080067dd   Thumb Code    10  stm32f3xx_hal_uart.o(i.UART_DMATxHalfCplt)
    i.UART_EndRxTransfer                     0x080067e6   Section        0  stm32f3xx_hal_uart.o(i.UART_EndRxTransfer)
    UART_EndRxTransfer                       0x080067e7   Thumb Code    76  stm32f3xx_hal_uart.o(i.UART_EndRxTransfer)
    i.UART_EndTxTransfer                     0x08006832   Section        0  stm32f3xx_hal_uart.o(i.UART_EndTxTransfer)
    UART_EndTxTransfer                       0x08006833   Thumb Code    24  stm32f3xx_hal_uart.o(i.UART_EndTxTransfer)
    i.USART1_IRQHandler                      0x0800684c   Section        0  stm32f3xx_it_1.o(i.USART1_IRQHandler)
    i.USART2_IRQHandler                      0x08006858   Section        0  stm32f3xx_it_1.o(i.USART2_IRQHandler)
    i.Update_LED_PWM                         0x08006864   Section        0  bsp_tim.o(i.Update_LED_PWM)
    i.UsageFault_Handler                     0x0800689c   Section        0  stm32f3xx_it_1.o(i.UsageFault_Handler)
    i.Window_Filter_Calc                     0x080068a0   Section        0  filter.o(i.Window_Filter_Calc)
    i.Window_Filter_Init                     0x080068de   Section        0  filter.o(i.Window_Filter_Init)
    i.__ARM_fpclassify                       0x080068f8   Section        0  fpclassify.o(i.__ARM_fpclassify)
    i.__NVIC_SetPriority                     0x08006928   Section        0  stm32f3xx_hal_cortex.o(i.__NVIC_SetPriority)
    __NVIC_SetPriority                       0x08006929   Thumb Code    32  stm32f3xx_hal_cortex.o(i.__NVIC_SetPriority)
    i.__hardfp_fmaxf                         0x08006948   Section        0  fmaxf.o(i.__hardfp_fmaxf)
    i.__hardfp_fminf                         0x08006990   Section        0  fminf.o(i.__hardfp_fminf)
    i._is_digit                              0x080069d8   Section        0  __printf_wp.o(i._is_digit)
    i.buckboost_pwm_update                   0x080069e8   Section        0  power_loop.o(i.buckboost_pwm_update)
    buckboost_pwm_update                     0x080069e9   Thumb Code   194  power_loop.o(i.buckboost_pwm_update)
    i.control_calc                           0x08006ac4   Section        0  power_loop.o(i.control_calc)
    control_calc                             0x08006ac5   Thumb Code   390  power_loop.o(i.control_calc)
    i.main                                   0x08006c54   Section        0  supercap.o(i.main)
    i.uart_dma_printf                        0x08006cf8   Section        0  bsp_uart.o(i.uart_dma_printf)
    locale$$code                             0x08006d30   Section       44  lc_numeric_c.o(locale$$code)
    locale$$code                             0x08006d5c   Section       44  lc_ctype_c.o(locale$$code)
    x$fpl$fcmp4                              0x08006d88   Section       82  fcmp4.o(x$fpl$fcmp4)
    $v0                                      0x08006d88   Number         0  fcmp4.o(x$fpl$fcmp4)
    x$fpl$fcmpinf                            0x08006dda   Section       24  fcmpi.o(x$fpl$fcmpinf)
    $v0                                      0x08006dda   Number         0  fcmpi.o(x$fpl$fcmpinf)
    x$fpl$fnaninf                            0x08006df2   Section      140  fnaninf.o(x$fpl$fnaninf)
    $v0                                      0x08006df2   Number         0  fnaninf.o(x$fpl$fnaninf)
    x$fpl$fpinit                             0x08006e7e   Section       10  fpinit.o(x$fpl$fpinit)
    $v0                                      0x08006e7e   Number         0  fpinit.o(x$fpl$fpinit)
    x$fpl$printf1                            0x08006e88   Section        4  printf1.o(x$fpl$printf1)
    $v0                                      0x08006e88   Number         0  printf1.o(x$fpl$printf1)
    x$fpl$printf2                            0x08006e8c   Section        4  printf2.o(x$fpl$printf2)
    $v0                                      0x08006e8c   Number         0  printf2.o(x$fpl$printf2)
    .constdata                               0x08006e90   Section       32  stm32f3xx_hal_rcc.o(.constdata)
    x$fpl$usenofp                            0x08006e90   Section        0  usenofp.o(x$fpl$usenofp)
    aPLLMULFactorTable                       0x08006e90   Data          16  stm32f3xx_hal_rcc.o(.constdata)
    aPredivFactorTable                       0x08006ea0   Data          16  stm32f3xx_hal_rcc.o(.constdata)
    .constdata                               0x08006eb0   Section       16  system_stm32f3xx.o(.constdata)
    .constdata                               0x08006ec0   Section      400  supercap.o(.constdata)
    .constdata                               0x08007050   Section        8  _printf_wctomb.o(.constdata)
    initial_mbstate                          0x08007050   Data           8  _printf_wctomb.o(.constdata)
    .constdata                               0x08007058   Section       40  _printf_hex_int_ll_ptr.o(.constdata)
    uc_hextab                                0x08007058   Data          20  _printf_hex_int_ll_ptr.o(.constdata)
    lc_hextab                                0x0800706c   Data          20  _printf_hex_int_ll_ptr.o(.constdata)
    .constdata                               0x08007080   Section       17  __printf_flags_ss_wp.o(.constdata)
    maptable                                 0x08007080   Data          17  __printf_flags_ss_wp.o(.constdata)
    .constdata                               0x08007091   Section       38  _printf_fp_hex.o(.constdata)
    lc_hextab                                0x08007091   Data          19  _printf_fp_hex.o(.constdata)
    uc_hextab                                0x080070a4   Data          19  _printf_fp_hex.o(.constdata)
    .constdata                               0x080070b8   Section      148  bigflt0.o(.constdata)
    tenpwrs_x                                0x080070b8   Data          60  bigflt0.o(.constdata)
    tenpwrs_i                                0x080070f4   Data          64  bigflt0.o(.constdata)
    locale$$data                             0x0800716c   Section       28  lc_numeric_c.o(locale$$data)
    __lcnum_c_name                           0x08007170   Data           2  lc_numeric_c.o(locale$$data)
    __lcnum_c_start                          0x08007178   Data           0  lc_numeric_c.o(locale$$data)
    __lcnum_c_point                          0x08007184   Data           0  lc_numeric_c.o(locale$$data)
    __lcnum_c_thousands                      0x08007186   Data           0  lc_numeric_c.o(locale$$data)
    __lcnum_c_grouping                       0x08007187   Data           0  lc_numeric_c.o(locale$$data)
    locale$$data                             0x08007188   Section      272  lc_ctype_c.o(locale$$data)
    __lcnum_c_end                            0x08007188   Data           0  lc_numeric_c.o(locale$$data)
    __lcctype_c_name                         0x0800718c   Data           2  lc_ctype_c.o(locale$$data)
    __lcctype_c_start                        0x08007194   Data           0  lc_ctype_c.o(locale$$data)
    __lcctype_c_end                          0x08007298   Data           0  lc_ctype_c.o(locale$$data)
    .data                                    0x20000000   Section       12  stm32f3xx_hal.o(.data)
    .data                                    0x2000000c   Section        4  system_stm32f3xx.o(.data)
    .data                                    0x20000010   Section        3  power_loop.o(.data)
    .data                                    0x20000014   Section       24  supercap.o(.data)
    disable_cnt                              0x20000014   Data           2  supercap.o(.data)
    status_code_copy                         0x2000001c   Data           4  supercap.o(.data)
    state                                    0x20000020   Data           4  supercap.o(.data)
    next_time                                0x20000024   Data           4  supercap.o(.data)
    .data                                    0x2000002c   Section        8  bsp_uart.o(.data)
    len                                      0x2000002c   Data           2  bsp_uart.o(.data)
    ap                                       0x20000030   Data           4  bsp_uart.o(.data)
    .data                                    0x20000034   Section        4  adc_1.o(.data)
    HAL_RCC_ADC12_CLK_ENABLED                0x20000034   Data           4  adc_1.o(.data)
    .bss                                     0x20000038   Section      804  power_loop.o(.bss)
    .bss                                     0x2000035c   Section      128  bsp_uart.o(.bss)
    tx_buf                                   0x2000035c   Data         128  bsp_uart.o(.bss)
    .bss                                     0x200003dc   Section      296  adc_1.o(.bss)
    .bss                                     0x20000504   Section       40  can_1.o(.bss)
    .bss                                     0x2000052c   Section      220  hrtim_1.o(.bss)
    .bss                                     0x20000608   Section      152  tim_1.o(.bss)
    .bss                                     0x200006a0   Section      476  usart_1.o(.bss)
    .bss                                     0x2000087c   Section       96  libspace.o(.bss)
    HEAP                                     0x200008e0   Section     1024  startup_stm32f334x8.o(HEAP)
    Heap_Mem                                 0x200008e0   Data        1024  startup_stm32f334x8.o(HEAP)
    STACK                                    0x20000ce0   Section     1024  startup_stm32f334x8.o(STACK)
    Stack_Mem                                0x20000ce0   Data        1024  startup_stm32f334x8.o(STACK)
    __initial_sp                             0x200010e0   Data           0  startup_stm32f334x8.o(STACK)

    Global Symbols

    Symbol Name                              Value     Ov Type        Size  Object(Section)

    BuildAttributes$$THM_ISAv4$E$P$D$K$B$S$7EM$VFPi3$EXTD16$VFPS$VFMA$PE$A:L22UL41UL21$X:L11$S22US41US21$IEEE1$IW$USESV6$~STKCKD$USESV7$~SHL$OTIME$ROPI$IEEEJ$EBA8$UX$STANDARDLIB$REQ8$PRES8$EABIv2 0x00000000   Number         0  anon$$obj.o ABSOLUTE
    __ARM_use_no_argv                        0x00000000   Number         0  supercap.o ABSOLUTE
    _printf_flags                            0x00000000   Number         0  printf_stubs.o ABSOLUTE
    _printf_return_value                     0x00000000   Number         0  printf_stubs.o ABSOLUTE
    _printf_sizespec                         0x00000000   Number         0  printf_stubs.o ABSOLUTE
    _printf_widthprec                        0x00000000   Number         0  printf_stubs.o ABSOLUTE
    __ARM_exceptions_init                     - Undefined Weak Reference
    __alloca_initialize                       - Undefined Weak Reference
    __arm_fini_                               - Undefined Weak Reference
    __arm_preinit_                            - Undefined Weak Reference
    __cpp_initialize__aeabi_                  - Undefined Weak Reference
    __cxa_finalize                            - Undefined Weak Reference
    __sigvec_lookup                           - Undefined Weak Reference
    _atexit_init                              - Undefined Weak Reference
    _call_atexit_fns                          - Undefined Weak Reference
    _clock_init                               - Undefined Weak Reference
    _fp_trap_init                             - Undefined Weak Reference
    _fp_trap_shutdown                         - Undefined Weak Reference
    _get_lc_collate                           - Undefined Weak Reference
    _get_lc_monetary                          - Undefined Weak Reference
    _get_lc_time                              - Undefined Weak Reference
    _getenv_init                              - Undefined Weak Reference
    _handle_redirection                       - Undefined Weak Reference
    _init_alloc                               - Undefined Weak Reference
    _init_user_alloc                          - Undefined Weak Reference
    _initio                                   - Undefined Weak Reference
    _printf_mbtowc                            - Undefined Weak Reference
    _printf_wc                                - Undefined Weak Reference
    _rand_init                                - Undefined Weak Reference
    _signal_finish                            - Undefined Weak Reference
    _signal_init                              - Undefined Weak Reference
    _terminate_alloc                          - Undefined Weak Reference
    _terminate_user_alloc                     - Undefined Weak Reference
    _terminateio                              - Undefined Weak Reference
    __Vectors_Size                           0x00000188   Number         0  startup_stm32f334x8.o ABSOLUTE
    __Vectors                                0x08000000   Data           4  startup_stm32f334x8.o(RESET)
    __Vectors_End                            0x08000188   Data           0  startup_stm32f334x8.o(RESET)
    __main                                   0x08000189   Thumb Code     8  __main.o(!!!main)
    __scatterload                            0x08000191   Thumb Code     0  __scatter.o(!!!scatter)
    __scatterload_rt2                        0x08000191   Thumb Code    44  __scatter.o(!!!scatter)
    __scatterload_rt2_thumb_only             0x08000191   Thumb Code     0  __scatter.o(!!!scatter)
    __scatterload_null                       0x0800019f   Thumb Code     0  __scatter.o(!!!scatter)
    __scatterload_copy                       0x080001c5   Thumb Code    26  __scatter_copy.o(!!handler_copy)
    __scatterload_zeroinit                   0x080001e1   Thumb Code    28  __scatter_zi.o(!!handler_zi)
    _printf_n                                0x080001fd   Thumb Code     0  _printf_n.o(.ARM.Collect$$_printf_percent$$00000001)
    _printf_percent                          0x080001fd   Thumb Code     0  _printf_percent.o(.ARM.Collect$$_printf_percent$$00000000)
    _printf_p                                0x08000203   Thumb Code     0  _printf_p.o(.ARM.Collect$$_printf_percent$$00000002)
    _printf_f                                0x08000209   Thumb Code     0  _printf_f.o(.ARM.Collect$$_printf_percent$$00000003)
    _printf_e                                0x0800020f   Thumb Code     0  _printf_e.o(.ARM.Collect$$_printf_percent$$00000004)
    _printf_g                                0x08000215   Thumb Code     0  _printf_g.o(.ARM.Collect$$_printf_percent$$00000005)
    _printf_a                                0x0800021b   Thumb Code     0  _printf_a.o(.ARM.Collect$$_printf_percent$$00000006)
    _printf_ll                               0x08000221   Thumb Code     0  _printf_ll.o(.ARM.Collect$$_printf_percent$$00000007)
    _printf_i                                0x0800022b   Thumb Code     0  _printf_i.o(.ARM.Collect$$_printf_percent$$00000008)
    _printf_d                                0x08000231   Thumb Code     0  _printf_d.o(.ARM.Collect$$_printf_percent$$00000009)
    _printf_u                                0x08000237   Thumb Code     0  _printf_u.o(.ARM.Collect$$_printf_percent$$0000000A)
    _printf_o                                0x0800023d   Thumb Code     0  _printf_o.o(.ARM.Collect$$_printf_percent$$0000000B)
    _printf_x                                0x08000243   Thumb Code     0  _printf_x.o(.ARM.Collect$$_printf_percent$$0000000C)
    _printf_lli                              0x08000249   Thumb Code     0  _printf_lli.o(.ARM.Collect$$_printf_percent$$0000000D)
    _printf_lld                              0x0800024f   Thumb Code     0  _printf_lld.o(.ARM.Collect$$_printf_percent$$0000000E)
    _printf_llu                              0x08000255   Thumb Code     0  _printf_llu.o(.ARM.Collect$$_printf_percent$$0000000F)
    _printf_llo                              0x0800025b   Thumb Code     0  _printf_llo.o(.ARM.Collect$$_printf_percent$$00000010)
    _printf_llx                              0x08000261   Thumb Code     0  _printf_llx.o(.ARM.Collect$$_printf_percent$$00000011)
    _printf_l                                0x08000267   Thumb Code     0  _printf_l.o(.ARM.Collect$$_printf_percent$$00000012)
    _printf_c                                0x08000271   Thumb Code     0  _printf_c.o(.ARM.Collect$$_printf_percent$$00000013)
    _printf_s                                0x08000277   Thumb Code     0  _printf_s.o(.ARM.Collect$$_printf_percent$$00000014)
    _printf_lc                               0x0800027d   Thumb Code     0  _printf_lc.o(.ARM.Collect$$_printf_percent$$00000015)
    _printf_ls                               0x08000283   Thumb Code     0  _printf_ls.o(.ARM.Collect$$_printf_percent$$00000016)
    _printf_percent_end                      0x08000289   Thumb Code     0  _printf_percent_end.o(.ARM.Collect$$_printf_percent$$00000017)
    __rt_lib_init                            0x0800028d   Thumb Code     0  libinit.o(.ARM.Collect$$libinit$$00000000)
    __rt_lib_init_fp_1                       0x0800028f   Thumb Code     0  libinit2.o(.ARM.Collect$$libinit$$00000001)
    __rt_lib_init_heap_1                     0x08000293   Thumb Code     0  libinit2.o(.ARM.Collect$$libinit$$0000000A)
    __rt_lib_init_lc_common                  0x08000293   Thumb Code     0  libinit2.o(.ARM.Collect$$libinit$$0000000F)
    __rt_lib_init_preinit_1                  0x08000293   Thumb Code     0  libinit2.o(.ARM.Collect$$libinit$$00000004)
    __rt_lib_init_rand_1                     0x08000293   Thumb Code     0  libinit2.o(.ARM.Collect$$libinit$$0000000E)
    __rt_lib_init_user_alloc_1               0x08000293   Thumb Code     0  libinit2.o(.ARM.Collect$$libinit$$0000000C)
    __rt_lib_init_lc_collate_1               0x08000299   Thumb Code     0  libinit2.o(.ARM.Collect$$libinit$$00000011)
    __rt_lib_init_lc_ctype_2                 0x08000299   Thumb Code     0  libinit2.o(.ARM.Collect$$libinit$$00000012)
    __rt_lib_init_lc_ctype_1                 0x080002a5   Thumb Code     0  libinit2.o(.ARM.Collect$$libinit$$00000013)
    __rt_lib_init_lc_monetary_1              0x080002a5   Thumb Code     0  libinit2.o(.ARM.Collect$$libinit$$00000015)
    __rt_lib_init_lc_numeric_2               0x080002a5   Thumb Code     0  libinit2.o(.ARM.Collect$$libinit$$00000016)
    __rt_lib_init_alloca_1                   0x080002af   Thumb Code     0  libinit2.o(.ARM.Collect$$libinit$$0000002E)
    __rt_lib_init_argv_1                     0x080002af   Thumb Code     0  libinit2.o(.ARM.Collect$$libinit$$0000002C)
    __rt_lib_init_atexit_1                   0x080002af   Thumb Code     0  libinit2.o(.ARM.Collect$$libinit$$0000001B)
    __rt_lib_init_clock_1                    0x080002af   Thumb Code     0  libinit2.o(.ARM.Collect$$libinit$$00000021)
    __rt_lib_init_cpp_1                      0x080002af   Thumb Code     0  libinit2.o(.ARM.Collect$$libinit$$00000032)
    __rt_lib_init_exceptions_1               0x080002af   Thumb Code     0  libinit2.o(.ARM.Collect$$libinit$$00000030)
    __rt_lib_init_fp_trap_1                  0x080002af   Thumb Code     0  libinit2.o(.ARM.Collect$$libinit$$0000001F)
    __rt_lib_init_getenv_1                   0x080002af   Thumb Code     0  libinit2.o(.ARM.Collect$$libinit$$00000023)
    __rt_lib_init_lc_numeric_1               0x080002af   Thumb Code     0  libinit2.o(.ARM.Collect$$libinit$$00000017)
    __rt_lib_init_lc_time_1                  0x080002af   Thumb Code     0  libinit2.o(.ARM.Collect$$libinit$$00000019)
    __rt_lib_init_return                     0x080002af   Thumb Code     0  libinit2.o(.ARM.Collect$$libinit$$00000033)
    __rt_lib_init_signal_1                   0x080002af   Thumb Code     0  libinit2.o(.ARM.Collect$$libinit$$0000001D)
    __rt_lib_init_stdio_1                    0x080002af   Thumb Code     0  libinit2.o(.ARM.Collect$$libinit$$00000025)
    __rt_lib_shutdown                        0x080002b1   Thumb Code     0  libshutdown.o(.ARM.Collect$$libshutdown$$00000000)
    __rt_lib_shutdown_cpp_1                  0x080002b3   Thumb Code     0  libshutdown2.o(.ARM.Collect$$libshutdown$$00000004)
    __rt_lib_shutdown_fini_1                 0x080002b3   Thumb Code     0  libshutdown2.o(.ARM.Collect$$libshutdown$$00000002)
    __rt_lib_shutdown_fp_trap_1              0x080002b3   Thumb Code     0  libshutdown2.o(.ARM.Collect$$libshutdown$$00000009)
    __rt_lib_shutdown_heap_1                 0x080002b3   Thumb Code     0  libshutdown2.o(.ARM.Collect$$libshutdown$$00000011)
    __rt_lib_shutdown_return                 0x080002b3   Thumb Code     0  libshutdown2.o(.ARM.Collect$$libshutdown$$00000012)
    __rt_lib_shutdown_signal_1               0x080002b3   Thumb Code     0  libshutdown2.o(.ARM.Collect$$libshutdown$$0000000C)
    __rt_lib_shutdown_stdio_1                0x080002b3   Thumb Code     0  libshutdown2.o(.ARM.Collect$$libshutdown$$00000006)
    __rt_lib_shutdown_user_alloc_1           0x080002b3   Thumb Code     0  libshutdown2.o(.ARM.Collect$$libshutdown$$0000000E)
    __rt_entry                               0x080002b5   Thumb Code     0  __rtentry.o(.ARM.Collect$$rtentry$$00000000)
    __rt_entry_presh_1                       0x080002b5   Thumb Code     0  __rtentry2.o(.ARM.Collect$$rtentry$$00000002)
    __rt_entry_sh                            0x080002b5   Thumb Code     0  __rtentry4.o(.ARM.Collect$$rtentry$$00000004)
    __rt_entry_li                            0x080002bb   Thumb Code     0  __rtentry2.o(.ARM.Collect$$rtentry$$0000000A)
    __rt_entry_postsh_1                      0x080002bb   Thumb Code     0  __rtentry2.o(.ARM.Collect$$rtentry$$00000009)
    __rt_entry_main                          0x080002bf   Thumb Code     0  __rtentry2.o(.ARM.Collect$$rtentry$$0000000D)
    __rt_entry_postli_1                      0x080002bf   Thumb Code     0  __rtentry2.o(.ARM.Collect$$rtentry$$0000000C)
    __rt_exit                                0x080002c7   Thumb Code     0  rtexit.o(.ARM.Collect$$rtexit$$00000000)
    __rt_exit_ls                             0x080002c9   Thumb Code     0  rtexit2.o(.ARM.Collect$$rtexit$$00000003)
    __rt_exit_prels_1                        0x080002c9   Thumb Code     0  rtexit2.o(.ARM.Collect$$rtexit$$00000002)
    __rt_exit_exit                           0x080002cd   Thumb Code     0  rtexit2.o(.ARM.Collect$$rtexit$$00000004)
    Reset_Handler                            0x080002d5   Thumb Code     8  startup_stm32f334x8.o(.text)
    ADC1_2_IRQHandler                        0x080002ef   Thumb Code     0  startup_stm32f334x8.o(.text)
    CAN_RX1_IRQHandler                       0x080002ef   Thumb Code     0  startup_stm32f334x8.o(.text)
    CAN_SCE_IRQHandler                       0x080002ef   Thumb Code     0  startup_stm32f334x8.o(.text)
    CAN_TX_IRQHandler                        0x080002ef   Thumb Code     0  startup_stm32f334x8.o(.text)
    COMP2_IRQHandler                         0x080002ef   Thumb Code     0  startup_stm32f334x8.o(.text)
    COMP4_6_IRQHandler                       0x080002ef   Thumb Code     0  startup_stm32f334x8.o(.text)
    DMA1_Channel3_IRQHandler                 0x080002ef   Thumb Code     0  startup_stm32f334x8.o(.text)
    DMA1_Channel6_IRQHandler                 0x080002ef   Thumb Code     0  startup_stm32f334x8.o(.text)
    EXTI0_IRQHandler                         0x080002ef   Thumb Code     0  startup_stm32f334x8.o(.text)
    EXTI15_10_IRQHandler                     0x080002ef   Thumb Code     0  startup_stm32f334x8.o(.text)
    EXTI1_IRQHandler                         0x080002ef   Thumb Code     0  startup_stm32f334x8.o(.text)
    EXTI2_TSC_IRQHandler                     0x080002ef   Thumb Code     0  startup_stm32f334x8.o(.text)
    EXTI3_IRQHandler                         0x080002ef   Thumb Code     0  startup_stm32f334x8.o(.text)
    EXTI4_IRQHandler                         0x080002ef   Thumb Code     0  startup_stm32f334x8.o(.text)
    EXTI9_5_IRQHandler                       0x080002ef   Thumb Code     0  startup_stm32f334x8.o(.text)
    FLASH_IRQHandler                         0x080002ef   Thumb Code     0  startup_stm32f334x8.o(.text)
    FPU_IRQHandler                           0x080002ef   Thumb Code     0  startup_stm32f334x8.o(.text)
    HRTIM1_FLT_IRQHandler                    0x080002ef   Thumb Code     0  startup_stm32f334x8.o(.text)
    HRTIM1_TIMA_IRQHandler                   0x080002ef   Thumb Code     0  startup_stm32f334x8.o(.text)
    HRTIM1_TIMB_IRQHandler                   0x080002ef   Thumb Code     0  startup_stm32f334x8.o(.text)
    HRTIM1_TIMC_IRQHandler                   0x080002ef   Thumb Code     0  startup_stm32f334x8.o(.text)
    HRTIM1_TIMD_IRQHandler                   0x080002ef   Thumb Code     0  startup_stm32f334x8.o(.text)
    HRTIM1_TIME_IRQHandler                   0x080002ef   Thumb Code     0  startup_stm32f334x8.o(.text)
    I2C1_ER_IRQHandler                       0x080002ef   Thumb Code     0  startup_stm32f334x8.o(.text)
    I2C1_EV_IRQHandler                       0x080002ef   Thumb Code     0  startup_stm32f334x8.o(.text)
    PVD_IRQHandler                           0x080002ef   Thumb Code     0  startup_stm32f334x8.o(.text)
    RCC_IRQHandler                           0x080002ef   Thumb Code     0  startup_stm32f334x8.o(.text)
    RTC_Alarm_IRQHandler                     0x080002ef   Thumb Code     0  startup_stm32f334x8.o(.text)
    RTC_WKUP_IRQHandler                      0x080002ef   Thumb Code     0  startup_stm32f334x8.o(.text)
    SPI1_IRQHandler                          0x080002ef   Thumb Code     0  startup_stm32f334x8.o(.text)
    TAMP_STAMP_IRQHandler                    0x080002ef   Thumb Code     0  startup_stm32f334x8.o(.text)
    TIM1_BRK_TIM15_IRQHandler                0x080002ef   Thumb Code     0  startup_stm32f334x8.o(.text)
    TIM1_CC_IRQHandler                       0x080002ef   Thumb Code     0  startup_stm32f334x8.o(.text)
    TIM1_TRG_COM_TIM17_IRQHandler            0x080002ef   Thumb Code     0  startup_stm32f334x8.o(.text)
    TIM1_UP_TIM16_IRQHandler                 0x080002ef   Thumb Code     0  startup_stm32f334x8.o(.text)
    TIM2_IRQHandler                          0x080002ef   Thumb Code     0  startup_stm32f334x8.o(.text)
    TIM3_IRQHandler                          0x080002ef   Thumb Code     0  startup_stm32f334x8.o(.text)
    TIM7_DAC2_IRQHandler                     0x080002ef   Thumb Code     0  startup_stm32f334x8.o(.text)
    USART3_IRQHandler                        0x080002ef   Thumb Code     0  startup_stm32f334x8.o(.text)
    WWDG_IRQHandler                          0x080002ef   Thumb Code     0  startup_stm32f334x8.o(.text)
    __user_initial_stackheap                 0x080002f1   Thumb Code     0  startup_stm32f334x8.o(.text)
    __aeabi_uldivmod                         0x08000315   Thumb Code     0  lludivv7m.o(.text)
    _ll_udiv                                 0x08000315   Thumb Code   238  lludivv7m.o(.text)
    vsprintf                                 0x08000405   Thumb Code    32  vsprintf.o(.text)
    __aeabi_memclr4                          0x08000429   Thumb Code     0  rt_memclr_w.o(.text)
    __aeabi_memclr8                          0x08000429   Thumb Code     0  rt_memclr_w.o(.text)
    __rt_memclr_w                            0x08000429   Thumb Code    78  rt_memclr_w.o(.text)
    _memset_w                                0x0800042d   Thumb Code     0  rt_memclr_w.o(.text)
    __use_two_region_memory                  0x08000477   Thumb Code     2  heapauxi.o(.text)
    __rt_heap_escrow$2region                 0x08000479   Thumb Code     2  heapauxi.o(.text)
    __rt_heap_expand$2region                 0x0800047b   Thumb Code     2  heapauxi.o(.text)
    _printf_pre_padding                      0x0800047d   Thumb Code    44  _printf_pad.o(.text)
    _printf_post_padding                     0x080004a9   Thumb Code    34  _printf_pad.o(.text)
    _printf_truncate_signed                  0x080004cb   Thumb Code    18  _printf_truncate.o(.text)
    _printf_truncate_unsigned                0x080004dd   Thumb Code    18  _printf_truncate.o(.text)
    _printf_str                              0x080004ef   Thumb Code    82  _printf_str.o(.text)
    _printf_int_dec                          0x08000541   Thumb Code   104  _printf_dec.o(.text)
    _printf_charcount                        0x080005b9   Thumb Code    40  _printf_charcount.o(.text)
    _printf_char_common                      0x080005eb   Thumb Code    32  _printf_char_common.o(.text)
    _sputc                                   0x08000611   Thumb Code    10  _sputc.o(.text)
    _printf_wctomb                           0x0800061d   Thumb Code   182  _printf_wctomb.o(.text)
    _printf_longlong_dec                     0x080006d9   Thumb Code   108  _printf_longlong_dec.o(.text)
    _printf_longlong_oct                     0x08000755   Thumb Code    66  _printf_oct_int_ll.o(.text)
    _printf_int_oct                          0x08000797   Thumb Code    24  _printf_oct_int_ll.o(.text)
    _printf_ll_oct                           0x080007af   Thumb Code    12  _printf_oct_int_ll.o(.text)
    _printf_longlong_hex                     0x080007c5   Thumb Code    86  _printf_hex_int_ll_ptr.o(.text)
    _printf_int_hex                          0x0800081b   Thumb Code    28  _printf_hex_int_ll_ptr.o(.text)
    _printf_ll_hex                           0x08000837   Thumb Code    12  _printf_hex_int_ll_ptr.o(.text)
    _printf_hex_ptr                          0x08000843   Thumb Code    18  _printf_hex_int_ll_ptr.o(.text)
    __printf                                 0x08000859   Thumb Code   388  __printf_flags_ss_wp.o(.text)
    _ll_udiv10                               0x080009e1   Thumb Code   138  lludiv10.o(.text)
    _printf_int_common                       0x08000a6b   Thumb Code   178  _printf_intcommon.o(.text)
    __lib_sel_fp_printf                      0x08000b1d   Thumb Code     2  _printf_fp_dec.o(.text)
    _printf_fp_dec_real                      0x08000ccf   Thumb Code   620  _printf_fp_dec.o(.text)
    _printf_fp_hex_real                      0x08000f3d   Thumb Code   756  _printf_fp_hex.o(.text)
    _printf_cs_common                        0x08001239   Thumb Code    20  _printf_char.o(.text)
    _printf_char                             0x0800124d   Thumb Code    16  _printf_char.o(.text)
    _printf_string                           0x0800125d   Thumb Code     8  _printf_char.o(.text)
    _printf_lcs_common                       0x08001265   Thumb Code    20  _printf_wchar.o(.text)
    _printf_wchar                            0x08001279   Thumb Code    16  _printf_wchar.o(.text)
    _printf_wstring                          0x08001289   Thumb Code     8  _printf_wchar.o(.text)
    _wcrtomb                                 0x08001291   Thumb Code    64  _wcrtomb.o(.text)
    __user_setup_stackheap                   0x080012d1   Thumb Code    74  sys_stackheap_outer.o(.text)
    __rt_ctype_table                         0x0800131d   Thumb Code    16  rt_ctype_table.o(.text)
    __rt_locale                              0x0800132d   Thumb Code     8  rt_locale_intlibspace.o(.text)
    _printf_fp_infnan                        0x08001335   Thumb Code   112  _printf_fp_infnan.o(.text)
    _btod_etento                             0x080013b5   Thumb Code   224  bigflt0.o(.text)
    exit                                     0x08001499   Thumb Code    18  exit.o(.text)
    __user_libspace                          0x080014ad   Thumb Code     8  libspace.o(.text)
    __user_perproc_libspace                  0x080014ad   Thumb Code     0  libspace.o(.text)
    __user_perthread_libspace                0x080014ad   Thumb Code     0  libspace.o(.text)
    strcmp                                   0x080014b5   Thumb Code   128  strcmpv7m.o(.text)
    _sys_exit                                0x08001535   Thumb Code     8  sys_exit.o(.text)
    __I$use$semihosting                      0x08001541   Thumb Code     0  use_no_semi.o(.text)
    __use_no_semihosting_swi                 0x08001541   Thumb Code     2  use_no_semi.o(.text)
    __semihosting_library_function           0x08001543   Thumb Code     0  indicate_semi.o(.text)
    _btod_d2e                                0x08001543   Thumb Code    62  btod.o(CL$$btod_d2e)
    _d2e_denorm_low                          0x08001581   Thumb Code    70  btod.o(CL$$btod_d2e_denorm_low)
    _d2e_norm_op1                            0x080015c7   Thumb Code    96  btod.o(CL$$btod_d2e_norm_op1)
    __btod_div_common                        0x08001627   Thumb Code   696  btod.o(CL$$btod_div_common)
    _e2e                                     0x0800195f   Thumb Code   220  btod.o(CL$$btod_e2e)
    _btod_ediv                               0x08001a3b   Thumb Code    42  btod.o(CL$$btod_ediv)
    _btod_emul                               0x08001a65   Thumb Code    42  btod.o(CL$$btod_emul)
    __btod_mult_common                       0x08001a8f   Thumb Code   580  btod.o(CL$$btod_mult_common)
    ADC_Linear_calibration_init              0x08001e0d   Thumb Code    46  adc_to_elec.o(i.ADC_Linear_calibration_init)
    ADC_Value_To_Elec                        0x08001e3b   Thumb Code    48  adc_to_elec.o(i.ADC_Value_To_Elec)
    BSP_ADC_Init                             0x08001e6d   Thumb Code    34  bsp_adc.o(i.BSP_ADC_Init)
    BSP_ADC_Start_DMA                        0x08001e99   Thumb Code     4  bsp_adc.o(i.BSP_ADC_Start_DMA)
    BSP_ADC_Start_Injected                   0x08001e9d   Thumb Code     4  bsp_adc.o(i.BSP_ADC_Start_Injected)
    BSP_CAN_Init                             0x08001ea1   Thumb Code    56  bsp_can.o(i.BSP_CAN_Init)
    BSP_GPIO_Init                            0x08001edd   Thumb Code     4  bsp_gpio.o(i.BSP_GPIO_Init)
    BSP_HRTIM_Enable_PWM                     0x08001ee1   Thumb Code     8  bsp_hrtim.o(i.BSP_HRTIM_Enable_PWM)
    BSP_HRTIM_Init                           0x08001eed   Thumb Code    20  bsp_hrtim.o(i.BSP_HRTIM_Init)
    BSP_HRTIM_Update_PWM                     0x08001f05   Thumb Code    22  bsp_hrtim.o(i.BSP_HRTIM_Update_PWM)
    BSP_TIM_Init                             0x08001f21   Thumb Code    64  bsp_tim.o(i.BSP_TIM_Init)
    BSP_TIM_Start_Loop_Timer                 0x08001f65   Thumb Code     6  bsp_tim.o(i.BSP_TIM_Start_Loop_Timer)
    BusFault_Handler                         0x08001f71   Thumb Code     2  stm32f3xx_it_1.o(i.BusFault_Handler)
    CAN_RX0_IRQHandler                       0x08001f75   Thumb Code     6  stm32f3xx_it_1.o(i.CAN_RX0_IRQHandler)
    DMA1_Channel1_IRQHandler                 0x0800212d   Thumb Code     6  stm32f3xx_it_1.o(i.DMA1_Channel1_IRQHandler)
    DMA1_Channel2_IRQHandler                 0x08002139   Thumb Code     6  stm32f3xx_it_1.o(i.DMA1_Channel2_IRQHandler)
    DMA1_Channel4_IRQHandler                 0x08002145   Thumb Code     6  stm32f3xx_it_1.o(i.DMA1_Channel4_IRQHandler)
    DMA1_Channel5_IRQHandler                 0x08002151   Thumb Code     6  stm32f3xx_it_1.o(i.DMA1_Channel5_IRQHandler)
    DMA1_Channel7_IRQHandler                 0x0800215d   Thumb Code     6  stm32f3xx_it_1.o(i.DMA1_Channel7_IRQHandler)
    DebugMon_Handler                         0x080021b3   Thumb Code     2  stm32f3xx_it_1.o(i.DebugMon_Handler)
    Error_Handler                            0x080021b5   Thumb Code     4  main_1.o(i.Error_Handler)
    HAL_ADCEx_Calibration_Start              0x080021b9   Thumb Code   158  stm32f3xx_hal_adc_ex.o(i.HAL_ADCEx_Calibration_Start)
    HAL_ADCEx_InjectedStart_IT               0x08002257   Thumb Code   224  stm32f3xx_hal_adc_ex.o(i.HAL_ADCEx_InjectedStart_IT)
    HAL_ADCEx_MultiModeConfigChannel         0x08002339   Thumb Code   214  stm32f3xx_hal_adc_ex.o(i.HAL_ADCEx_MultiModeConfigChannel)
    HAL_ADC_ConfigChannel                    0x08002419   Thumb Code   828  stm32f3xx_hal_adc_ex.o(i.HAL_ADC_ConfigChannel)
    HAL_ADC_ConvCpltCallback                 0x08002769   Thumb Code     2  stm32f3xx_hal_adc.o(i.HAL_ADC_ConvCpltCallback)
    HAL_ADC_ConvHalfCpltCallback             0x0800276b   Thumb Code     2  stm32f3xx_hal_adc.o(i.HAL_ADC_ConvHalfCpltCallback)
    HAL_ADC_ErrorCallback                    0x0800276d   Thumb Code     2  stm32f3xx_hal_adc.o(i.HAL_ADC_ErrorCallback)
    HAL_ADC_Init                             0x08002771   Thumb Code   460  stm32f3xx_hal_adc_ex.o(i.HAL_ADC_Init)
    HAL_ADC_MspInit                          0x08002955   Thumb Code   280  adc_1.o(i.HAL_ADC_MspInit)
    HAL_ADC_Start_DMA                        0x08002a89   Thumb Code   246  stm32f3xx_hal_adc_ex.o(i.HAL_ADC_Start_DMA)
    HAL_CAN_ActivateNotification             0x08002b91   Thumb Code    36  stm32f3xx_hal_can.o(i.HAL_CAN_ActivateNotification)
    HAL_CAN_AddTxMessage                     0x08002bb5   Thumb Code   208  stm32f3xx_hal_can.o(i.HAL_CAN_AddTxMessage)
    HAL_CAN_ConfigFilter                     0x08002c85   Thumb Code   238  stm32f3xx_hal_can.o(i.HAL_CAN_ConfigFilter)
    HAL_CAN_ErrorCallback                    0x08002d73   Thumb Code     2  stm32f3xx_hal_can.o(i.HAL_CAN_ErrorCallback)
    HAL_CAN_GetRxMessage                     0x08002d75   Thumb Code   244  stm32f3xx_hal_can.o(i.HAL_CAN_GetRxMessage)
    HAL_CAN_IRQHandler                       0x08002e69   Thumb Code   508  stm32f3xx_hal_can.o(i.HAL_CAN_IRQHandler)
    HAL_CAN_Init                             0x08003065   Thumb Code   282  stm32f3xx_hal_can.o(i.HAL_CAN_Init)
    HAL_CAN_MspInit                          0x08003181   Thumb Code   108  can_1.o(i.HAL_CAN_MspInit)
    HAL_CAN_RxFifo0FullCallback              0x080031f5   Thumb Code     2  stm32f3xx_hal_can.o(i.HAL_CAN_RxFifo0FullCallback)
    HAL_CAN_RxFifo0MsgPendingCallback        0x080031f9   Thumb Code    92  supercap.o(i.HAL_CAN_RxFifo0MsgPendingCallback)
    HAL_CAN_RxFifo1FullCallback              0x0800326d   Thumb Code     2  stm32f3xx_hal_can.o(i.HAL_CAN_RxFifo1FullCallback)
    HAL_CAN_RxFifo1MsgPendingCallback        0x0800326f   Thumb Code     2  stm32f3xx_hal_can.o(i.HAL_CAN_RxFifo1MsgPendingCallback)
    HAL_CAN_SleepCallback                    0x08003271   Thumb Code     2  stm32f3xx_hal_can.o(i.HAL_CAN_SleepCallback)
    HAL_CAN_Start                            0x08003275   Thumb Code    88  stm32f3xx_hal_can.o(i.HAL_CAN_Start)
    HAL_CAN_TxMailbox0AbortCallback          0x080032cd   Thumb Code     2  stm32f3xx_hal_can.o(i.HAL_CAN_TxMailbox0AbortCallback)
    HAL_CAN_TxMailbox0CompleteCallback       0x080032cf   Thumb Code     2  stm32f3xx_hal_can.o(i.HAL_CAN_TxMailbox0CompleteCallback)
    HAL_CAN_TxMailbox1AbortCallback          0x080032d1   Thumb Code     2  stm32f3xx_hal_can.o(i.HAL_CAN_TxMailbox1AbortCallback)
    HAL_CAN_TxMailbox1CompleteCallback       0x080032d3   Thumb Code     2  stm32f3xx_hal_can.o(i.HAL_CAN_TxMailbox1CompleteCallback)
    HAL_CAN_TxMailbox2AbortCallback          0x080032d5   Thumb Code     2  stm32f3xx_hal_can.o(i.HAL_CAN_TxMailbox2AbortCallback)
    HAL_CAN_TxMailbox2CompleteCallback       0x080032d7   Thumb Code     2  stm32f3xx_hal_can.o(i.HAL_CAN_TxMailbox2CompleteCallback)
    HAL_CAN_WakeUpFromRxMsgCallback          0x080032d9   Thumb Code     2  stm32f3xx_hal_can.o(i.HAL_CAN_WakeUpFromRxMsgCallback)
    HAL_DMA_Abort                            0x080032db   Thumb Code    70  stm32f3xx_hal_dma.o(i.HAL_DMA_Abort)
    HAL_DMA_Abort_IT                         0x08003321   Thumb Code    74  stm32f3xx_hal_dma.o(i.HAL_DMA_Abort_IT)
    HAL_DMA_IRQHandler                       0x0800336b   Thumb Code   168  stm32f3xx_hal_dma.o(i.HAL_DMA_IRQHandler)
    HAL_DMA_Init                             0x08003413   Thumb Code    78  stm32f3xx_hal_dma.o(i.HAL_DMA_Init)
    HAL_DMA_Start_IT                         0x08003461   Thumb Code   112  stm32f3xx_hal_dma.o(i.HAL_DMA_Start_IT)
    HAL_Delay                                0x080034d1   Thumb Code    32  stm32f3xx_hal.o(i.HAL_Delay)
    HAL_GPIO_Init                            0x080034f5   Thumb Code   518  stm32f3xx_hal_gpio.o(i.HAL_GPIO_Init)
    HAL_GetTick                              0x08003715   Thumb Code     6  stm32f3xx_hal.o(i.HAL_GetTick)
    HAL_HRTIM_BurstModePeriodCallback        0x08003721   Thumb Code     2  stm32f3xx_hal_hrtim.o(i.HAL_HRTIM_BurstModePeriodCallback)
    HAL_HRTIM_Capture1EventCallback          0x08003723   Thumb Code     2  stm32f3xx_hal_hrtim.o(i.HAL_HRTIM_Capture1EventCallback)
    HAL_HRTIM_Capture2EventCallback          0x08003725   Thumb Code     2  stm32f3xx_hal_hrtim.o(i.HAL_HRTIM_Capture2EventCallback)
    HAL_HRTIM_Compare1EventCallback          0x08003727   Thumb Code     2  stm32f3xx_hal_hrtim.o(i.HAL_HRTIM_Compare1EventCallback)
    HAL_HRTIM_Compare2EventCallback          0x08003729   Thumb Code     2  stm32f3xx_hal_hrtim.o(i.HAL_HRTIM_Compare2EventCallback)
    HAL_HRTIM_Compare3EventCallback          0x0800372b   Thumb Code     2  stm32f3xx_hal_hrtim.o(i.HAL_HRTIM_Compare3EventCallback)
    HAL_HRTIM_Compare4EventCallback          0x0800372d   Thumb Code     2  stm32f3xx_hal_hrtim.o(i.HAL_HRTIM_Compare4EventCallback)
    HAL_HRTIM_CounterResetCallback           0x0800372f   Thumb Code     2  stm32f3xx_hal_hrtim.o(i.HAL_HRTIM_CounterResetCallback)
    HAL_HRTIM_DLLCalibrationReadyCallback    0x08003731   Thumb Code     2  stm32f3xx_hal_hrtim.o(i.HAL_HRTIM_DLLCalibrationReadyCallback)
    HAL_HRTIM_DLLCalibrationStart            0x08003733   Thumb Code    98  stm32f3xx_hal_hrtim.o(i.HAL_HRTIM_DLLCalibrationStart)
    HAL_HRTIM_DeadTimeConfig                 0x08003795   Thumb Code   136  stm32f3xx_hal_hrtim.o(i.HAL_HRTIM_DeadTimeConfig)
    HAL_HRTIM_DelayedProtectionCallback      0x08003821   Thumb Code     2  stm32f3xx_hal_hrtim.o(i.HAL_HRTIM_DelayedProtectionCallback)
    HAL_HRTIM_Fault1Callback                 0x08003823   Thumb Code     2  stm32f3xx_hal_hrtim.o(i.HAL_HRTIM_Fault1Callback)
    HAL_HRTIM_Fault2Callback                 0x08003825   Thumb Code     2  stm32f3xx_hal_hrtim.o(i.HAL_HRTIM_Fault2Callback)
    HAL_HRTIM_Fault3Callback                 0x08003827   Thumb Code     2  stm32f3xx_hal_hrtim.o(i.HAL_HRTIM_Fault3Callback)
    HAL_HRTIM_Fault4Callback                 0x08003829   Thumb Code     2  stm32f3xx_hal_hrtim.o(i.HAL_HRTIM_Fault4Callback)
    HAL_HRTIM_Fault5Callback                 0x0800382b   Thumb Code     2  stm32f3xx_hal_hrtim.o(i.HAL_HRTIM_Fault5Callback)
    HAL_HRTIM_IRQHandler                     0x0800382d   Thumb Code    20  stm32f3xx_hal_hrtim.o(i.HAL_HRTIM_IRQHandler)
    HAL_HRTIM_Init                           0x08003841   Thumb Code   180  stm32f3xx_hal_hrtim.o(i.HAL_HRTIM_Init)
    HAL_HRTIM_MspInit                        0x080038fd   Thumb Code    54  hrtim_1.o(i.HAL_HRTIM_MspInit)
    HAL_HRTIM_MspPostInit                    0x08003939   Thumb Code    78  hrtim_1.o(i.HAL_HRTIM_MspPostInit)
    HAL_HRTIM_Output1ResetCallback           0x0800398d   Thumb Code     2  stm32f3xx_hal_hrtim.o(i.HAL_HRTIM_Output1ResetCallback)
    HAL_HRTIM_Output1SetCallback             0x0800398f   Thumb Code     2  stm32f3xx_hal_hrtim.o(i.HAL_HRTIM_Output1SetCallback)
    HAL_HRTIM_Output2ResetCallback           0x08003991   Thumb Code     2  stm32f3xx_hal_hrtim.o(i.HAL_HRTIM_Output2ResetCallback)
    HAL_HRTIM_Output2SetCallback             0x08003993   Thumb Code     2  stm32f3xx_hal_hrtim.o(i.HAL_HRTIM_Output2SetCallback)
    HAL_HRTIM_PollForDLLCalibration          0x08003995   Thumb Code    66  stm32f3xx_hal_hrtim.o(i.HAL_HRTIM_PollForDLLCalibration)
    HAL_HRTIM_RegistersUpdateCallback        0x080039d7   Thumb Code     2  stm32f3xx_hal_hrtim.o(i.HAL_HRTIM_RegistersUpdateCallback)
    HAL_HRTIM_RepetitionEventCallback        0x080039d9   Thumb Code     2  power_loop.o(i.HAL_HRTIM_RepetitionEventCallback)
    HAL_HRTIM_SynchronizationEventCallback   0x080039db   Thumb Code     2  stm32f3xx_hal_hrtim.o(i.HAL_HRTIM_SynchronizationEventCallback)
    HAL_HRTIM_SystemFaultCallback            0x080039dd   Thumb Code     2  stm32f3xx_hal_hrtim.o(i.HAL_HRTIM_SystemFaultCallback)
    HAL_HRTIM_TimeBaseConfig                 0x080039df   Thumb Code   122  stm32f3xx_hal_hrtim.o(i.HAL_HRTIM_TimeBaseConfig)
    HAL_HRTIM_WaveformCompareConfig          0x08003a59   Thumb Code   308  stm32f3xx_hal_hrtim.o(i.HAL_HRTIM_WaveformCompareConfig)
    HAL_HRTIM_WaveformCountStart             0x08003b8d   Thumb Code    44  stm32f3xx_hal_hrtim.o(i.HAL_HRTIM_WaveformCountStart)
    HAL_HRTIM_WaveformOutputConfig           0x08003bb9   Thumb Code    54  stm32f3xx_hal_hrtim.o(i.HAL_HRTIM_WaveformOutputConfig)
    HAL_HRTIM_WaveformOutputStart            0x08003bef   Thumb Code    48  stm32f3xx_hal_hrtim.o(i.HAL_HRTIM_WaveformOutputStart)
    HAL_HRTIM_WaveformTimerConfig            0x08003c1f   Thumb Code   186  stm32f3xx_hal_hrtim.o(i.HAL_HRTIM_WaveformTimerConfig)
    HAL_IncTick                              0x08003cd9   Thumb Code    12  stm32f3xx_hal.o(i.HAL_IncTick)
    HAL_Init                                 0x08003ce9   Thumb Code    32  stm32f3xx_hal.o(i.HAL_Init)
    HAL_InitTick                             0x08003d0d   Thumb Code    54  stm32f3xx_hal.o(i.HAL_InitTick)
    HAL_MspInit                              0x08003d4d   Thumb Code    40  stm32f3xx_hal_msp_1.o(i.HAL_MspInit)
    HAL_NVIC_EnableIRQ                       0x08003d79   Thumb Code    26  stm32f3xx_hal_cortex.o(i.HAL_NVIC_EnableIRQ)
    HAL_NVIC_SetPriority                     0x08003d95   Thumb Code    60  stm32f3xx_hal_cortex.o(i.HAL_NVIC_SetPriority)
    HAL_NVIC_SetPriorityGrouping             0x08003dd5   Thumb Code    26  stm32f3xx_hal_cortex.o(i.HAL_NVIC_SetPriorityGrouping)
    HAL_RCCEx_PeriphCLKConfig                0x08003df9   Thumb Code   378  stm32f3xx_hal_rcc_ex.o(i.HAL_RCCEx_PeriphCLKConfig)
    HAL_RCC_ClockConfig                      0x08003f81   Thumb Code   308  stm32f3xx_hal_rcc.o(i.HAL_RCC_ClockConfig)
    HAL_RCC_GetSysClockFreq                  0x080040c9   Thumb Code    92  stm32f3xx_hal_rcc.o(i.HAL_RCC_GetSysClockFreq)
    HAL_RCC_OscConfig                        0x08004135   Thumb Code  1480  stm32f3xx_hal_rcc.o(i.HAL_RCC_OscConfig)
    HAL_SYSTICK_Config                       0x080046fd   Thumb Code    40  stm32f3xx_hal_cortex.o(i.HAL_SYSTICK_Config)
    HAL_TIMEx_Break2Callback                 0x08004725   Thumb Code     2  stm32f3xx_hal_tim_ex.o(i.HAL_TIMEx_Break2Callback)
    HAL_TIMEx_BreakCallback                  0x08004727   Thumb Code     2  stm32f3xx_hal_tim_ex.o(i.HAL_TIMEx_BreakCallback)
    HAL_TIMEx_CommutCallback                 0x08004729   Thumb Code     2  stm32f3xx_hal_tim_ex.o(i.HAL_TIMEx_CommutCallback)
    HAL_TIMEx_MasterConfigSynchronization    0x0800472d   Thumb Code   104  stm32f3xx_hal_tim_ex.o(i.HAL_TIMEx_MasterConfigSynchronization)
    HAL_TIM_Base_Init                        0x080047a1   Thumb Code    98  stm32f3xx_hal_tim.o(i.HAL_TIM_Base_Init)
    HAL_TIM_Base_MspInit                     0x08004805   Thumb Code    74  tim_1.o(i.HAL_TIM_Base_MspInit)
    HAL_TIM_Base_Start                       0x08004855   Thumb Code    72  stm32f3xx_hal_tim.o(i.HAL_TIM_Base_Start)
    HAL_TIM_Base_Start_IT                    0x080048ad   Thumb Code    82  stm32f3xx_hal_tim.o(i.HAL_TIM_Base_Start_IT)
    HAL_TIM_ConfigClockSource                0x08004911   Thumb Code   220  stm32f3xx_hal_tim.o(i.HAL_TIM_ConfigClockSource)
    HAL_TIM_IC_CaptureCallback               0x080049f1   Thumb Code     2  stm32f3xx_hal_tim.o(i.HAL_TIM_IC_CaptureCallback)
    HAL_TIM_IRQHandler                       0x080049f3   Thumb Code   388  stm32f3xx_hal_tim.o(i.HAL_TIM_IRQHandler)
    HAL_TIM_MspPostInit                      0x08004b79   Thumb Code    68  tim_1.o(i.HAL_TIM_MspPostInit)
    HAL_TIM_OC_DelayElapsedCallback          0x08004bc1   Thumb Code     2  stm32f3xx_hal_tim.o(i.HAL_TIM_OC_DelayElapsedCallback)
    HAL_TIM_PWM_ConfigChannel                0x08004bc3   Thumb Code   292  stm32f3xx_hal_tim.o(i.HAL_TIM_PWM_ConfigChannel)
    HAL_TIM_PWM_Init                         0x08004ce7   Thumb Code    98  stm32f3xx_hal_tim.o(i.HAL_TIM_PWM_Init)
    HAL_TIM_PWM_MspInit                      0x08004d49   Thumb Code     2  stm32f3xx_hal_tim.o(i.HAL_TIM_PWM_MspInit)
    HAL_TIM_PWM_PulseFinishedCallback        0x08004d4b   Thumb Code     2  stm32f3xx_hal_tim.o(i.HAL_TIM_PWM_PulseFinishedCallback)
    HAL_TIM_PWM_Start                        0x08004d4d   Thumb Code   202  stm32f3xx_hal_tim.o(i.HAL_TIM_PWM_Start)
    HAL_TIM_PeriodElapsedCallback            0x08004e31   Thumb Code    12  power_loop.o(i.HAL_TIM_PeriodElapsedCallback)
    HAL_TIM_TriggerCallback                  0x08004e41   Thumb Code     2  stm32f3xx_hal_tim.o(i.HAL_TIM_TriggerCallback)
    HAL_UARTEx_RxEventCallback               0x08004e43   Thumb Code     2  stm32f3xx_hal_uart.o(i.HAL_UARTEx_RxEventCallback)
    HAL_UARTEx_WakeupCallback                0x08004e45   Thumb Code     2  stm32f3xx_hal_uart_ex.o(i.HAL_UARTEx_WakeupCallback)
    HAL_UART_ErrorCallback                   0x08004e47   Thumb Code     2  stm32f3xx_hal_uart.o(i.HAL_UART_ErrorCallback)
    HAL_UART_IRQHandler                      0x08004e49   Thumb Code   686  stm32f3xx_hal_uart.o(i.HAL_UART_IRQHandler)
    HAL_UART_Transmit_DMA                    0x08005101   Thumb Code   126  stm32f3xx_hal_uart.o(i.HAL_UART_Transmit_DMA)
    HAL_UART_TxCpltCallback                  0x0800518d   Thumb Code     2  stm32f3xx_hal_uart.o(i.HAL_UART_TxCpltCallback)
    HAL_UART_TxHalfCpltCallback              0x0800518f   Thumb Code     2  stm32f3xx_hal_uart.o(i.HAL_UART_TxHalfCpltCallback)
    HRTIM1_Master_IRQHandler                 0x08005191   Thumb Code     8  stm32f3xx_it_1.o(i.HRTIM1_Master_IRQHandler)
    HardFault_Handler                        0x080056ef   Thumb Code     2  stm32f3xx_it_1.o(i.HardFault_Handler)
    MX_ADC1_Init                             0x080056f1   Thumb Code   150  adc_1.o(i.MX_ADC1_Init)
    MX_ADC2_Init                             0x0800578d   Thumb Code   148  adc_1.o(i.MX_ADC2_Init)
    MX_CAN_Init                              0x08005829   Thumb Code    60  can_1.o(i.MX_CAN_Init)
    MX_DMA_Init                              0x0800586d   Thumb Code   104  dma_1.o(i.MX_DMA_Init)
    MX_GPIO_Init                             0x080058d9   Thumb Code    56  gpio_1.o(i.MX_GPIO_Init)
    MX_HRTIM1_Init                           0x08005915   Thumb Code   532  hrtim_1.o(i.MX_HRTIM1_Init)
    MX_TIM2_Init                             0x08005b31   Thumb Code   206  tim_1.o(i.MX_TIM2_Init)
    MX_TIM6_Init                             0x08005c05   Thumb Code    64  tim_1.o(i.MX_TIM6_Init)
    MemManage_Handler                        0x08005c4d   Thumb Code     2  stm32f3xx_it_1.o(i.MemManage_Handler)
    NMI_Handler                              0x08005c4f   Thumb Code     2  stm32f3xx_it_1.o(i.NMI_Handler)
    PID_calc                                 0x08005c51   Thumb Code   292  pid.o(i.PID_calc)
    PID_init                                 0x08005d79   Thumb Code    74  pid.o(i.PID_init)
    PendSV_Handler                           0x08005dc9   Thumb Code     2  stm32f3xx_it_1.o(i.PendSV_Handler)
    SVC_Handler                              0x08005e9d   Thumb Code     2  stm32f3xx_it_1.o(i.SVC_Handler)
    SysTick_Handler                          0x080062c1   Thumb Code     4  stm32f3xx_it_1.o(i.SysTick_Handler)
    SystemClock_Config                       0x080062c5   Thumb Code   138  main_1.o(i.SystemClock_Config)
    SystemInit                               0x08006351   Thumb Code    12  system_stm32f3xx.o(i.SystemInit)
    TIM6_DAC1_IRQHandler                     0x08006361   Thumb Code     6  stm32f3xx_it_1.o(i.TIM6_DAC1_IRQHandler)
    TIM_Base_SetConfig                       0x0800636d   Thumb Code   114  stm32f3xx_hal_tim.o(i.TIM_Base_SetConfig)
    TIM_CCxChannelCmd                        0x080063f5   Thumb Code    26  stm32f3xx_hal_tim.o(i.TIM_CCxChannelCmd)
    TIM_ETR_SetConfig                        0x0800640f   Thumb Code    20  stm32f3xx_hal_tim.o(i.TIM_ETR_SetConfig)
    TIM_OC2_SetConfig                        0x080064bd   Thumb Code   108  stm32f3xx_hal_tim.o(i.TIM_OC2_SetConfig)
    USART1_IRQHandler                        0x0800684d   Thumb Code     6  stm32f3xx_it_1.o(i.USART1_IRQHandler)
    USART2_IRQHandler                        0x08006859   Thumb Code     6  stm32f3xx_it_1.o(i.USART2_IRQHandler)
    Update_LED_PWM                           0x08006865   Thumb Code    50  bsp_tim.o(i.Update_LED_PWM)
    UsageFault_Handler                       0x0800689d   Thumb Code     2  stm32f3xx_it_1.o(i.UsageFault_Handler)
    Window_Filter_Calc                       0x080068a1   Thumb Code    62  filter.o(i.Window_Filter_Calc)
    Window_Filter_Init                       0x080068df   Thumb Code    26  filter.o(i.Window_Filter_Init)
    __ARM_fpclassify                         0x080068f9   Thumb Code    48  fpclassify.o(i.__ARM_fpclassify)
    __hardfp_fmaxf                           0x08006949   Thumb Code    72  fmaxf.o(i.__hardfp_fmaxf)
    __hardfp_fminf                           0x08006991   Thumb Code    72  fminf.o(i.__hardfp_fminf)
    _is_digit                                0x080069d9   Thumb Code    14  __printf_wp.o(i._is_digit)
    main                                     0x08006c55   Thumb Code   140  supercap.o(i.main)
    uart_dma_printf                          0x08006cf9   Thumb Code    46  bsp_uart.o(i.uart_dma_printf)
    _get_lc_numeric                          0x08006d31   Thumb Code    44  lc_numeric_c.o(locale$$code)
    _get_lc_ctype                            0x08006d5d   Thumb Code    44  lc_ctype_c.o(locale$$code)
    __fcmp4                                  0x08006d89   Thumb Code    24  fcmp4.o(x$fpl$fcmp4)
    __ARM_fcmp4                              0x08006da1   Thumb Code     0  fcmp4.o(x$fpl$fcmp4)
    _fcmp4                                   0x08006da1   Thumb Code    58  fcmp4.o(x$fpl$fcmp4)
    __fpl_fcmp_Inf                           0x08006ddb   Thumb Code    24  fcmpi.o(x$fpl$fcmpinf)
    __fpl_fnaninf                            0x08006df3   Thumb Code   140  fnaninf.o(x$fpl$fnaninf)
    _fp_init                                 0x08006e7f   Thumb Code    10  fpinit.o(x$fpl$fpinit)
    __fplib_config_fpu_vfp                   0x08006e87   Thumb Code     0  fpinit.o(x$fpl$fpinit)
    __fplib_config_pureend_doubles           0x08006e87   Thumb Code     0  fpinit.o(x$fpl$fpinit)
    _printf_fp_dec                           0x08006e89   Thumb Code     4  printf1.o(x$fpl$printf1)
    _printf_fp_hex                           0x08006e8d   Thumb Code     4  printf2.o(x$fpl$printf2)
    __I$use$fp                               0x08006e90   Number         0  usenofp.o(x$fpl$usenofp)
    AHBPrescTable                            0x08006eb0   Data          16  system_stm32f3xx.o(.constdata)
    samp_parameters                          0x08006ec0   Data         200  supercap.o(.constdata)
    calibration_parameters                   0x08006f88   Data         200  supercap.o(.constdata)
    Region$$Table$$Base                      0x0800714c   Number         0  anon$$obj.o(Region$$Table)
    Region$$Table$$Limit                     0x0800716c   Number         0  anon$$obj.o(Region$$Table)
    __ctype                                  0x08007195   Data           0  lc_ctype_c.o(locale$$data)
    uwTickFreq                               0x20000000   Data           1  stm32f3xx_hal.o(.data)
    uwTickPrio                               0x20000004   Data           4  stm32f3xx_hal.o(.data)
    uwTick                                   0x20000008   Data           4  stm32f3xx_hal.o(.data)
    SystemCoreClock                          0x2000000c   Data           4  system_stm32f3xx.o(.data)
    status                                   0x20000010   Data           3  power_loop.o(.data)
    s_code                                   0x20000018   Data           4  supercap.o(.data)
    last_can_tick                            0x20000028   Data           4  supercap.o(.data)
    samp                                     0x20000038   Data         516  power_loop.o(.bss)
    control                                  0x2000023c   Data         288  power_loop.o(.bss)
    hadc1                                    0x200003dc   Data          80  adc_1.o(.bss)
    hadc2                                    0x2000042c   Data          80  adc_1.o(.bss)
    hdma_adc1                                0x2000047c   Data          68  adc_1.o(.bss)
    hdma_adc2                                0x200004c0   Data          68  adc_1.o(.bss)
    hcan                                     0x20000504   Data          40  can_1.o(.bss)
    hhrtim1                                  0x2000052c   Data         220  hrtim_1.o(.bss)
    htim2                                    0x20000608   Data          76  tim_1.o(.bss)
    htim6                                    0x20000654   Data          76  tim_1.o(.bss)
    huart1                                   0x200006a0   Data         136  usart_1.o(.bss)
    huart2                                   0x20000728   Data         136  usart_1.o(.bss)
    hdma_usart1_tx                           0x200007b0   Data          68  usart_1.o(.bss)
    hdma_usart1_rx                           0x200007f4   Data          68  usart_1.o(.bss)
    hdma_usart2_tx                           0x20000838   Data          68  usart_1.o(.bss)
    __libspace_start                         0x2000087c   Data          96  libspace.o(.bss)
    __temporary_stack_top$libspace           0x200008dc   Data           0  libspace.o(.bss)



==============================================================================

Memory Map of the image

  Image Entry point : 0x08000189

  Load Region LR_IROM1 (Base: 0x08000000, Size: 0x000072d0, Max: 0x00010000, ABSOLUTE)

    Execution Region ER_IROM1 (Exec base: 0x08000000, Load base: 0x08000000, Size: 0x00007298, Max: 0x00010000, ABSOLUTE)

    Exec Addr    Load Addr    Size         Type   Attr      Idx    E Section Name        Object

    0x08000000   0x08000000   0x00000188   Data   RO         4495    RESET               startup_stm32f334x8.o
    0x08000188   0x08000188   0x00000008   Code   RO         5524  * !!!main             c_w.l(__main.o)
    0x08000190   0x08000190   0x00000034   Code   RO         5891    !!!scatter          c_w.l(__scatter.o)
    0x080001c4   0x080001c4   0x0000001a   Code   RO         5893    !!handler_copy      c_w.l(__scatter_copy.o)
    0x080001de   0x080001de   0x00000002   PAD
    0x080001e0   0x080001e0   0x0000001c   Code   RO         5895    !!handler_zi        c_w.l(__scatter_zi.o)
    0x080001fc   0x080001fc   0x00000000   Code   RO         5630    .ARM.Collect$$_printf_percent$$00000000  c_w.l(_printf_percent.o)
    0x080001fc   0x080001fc   0x00000006   Code   RO         5619    .ARM.Collect$$_printf_percent$$00000001  c_w.l(_printf_n.o)
    0x08000202   0x08000202   0x00000006   Code   RO         5621    .ARM.Collect$$_printf_percent$$00000002  c_w.l(_printf_p.o)
    0x08000208   0x08000208   0x00000006   Code   RO         5626    .ARM.Collect$$_printf_percent$$00000003  c_w.l(_printf_f.o)
    0x0800020e   0x0800020e   0x00000006   Code   RO         5627    .ARM.Collect$$_printf_percent$$00000004  c_w.l(_printf_e.o)
    0x08000214   0x08000214   0x00000006   Code   RO         5628    .ARM.Collect$$_printf_percent$$00000005  c_w.l(_printf_g.o)
    0x0800021a   0x0800021a   0x00000006   Code   RO         5629    .ARM.Collect$$_printf_percent$$00000006  c_w.l(_printf_a.o)
    0x08000220   0x08000220   0x0000000a   Code   RO         5634    .ARM.Collect$$_printf_percent$$00000007  c_w.l(_printf_ll.o)
    0x0800022a   0x0800022a   0x00000006   Code   RO         5623    .ARM.Collect$$_printf_percent$$00000008  c_w.l(_printf_i.o)
    0x08000230   0x08000230   0x00000006   Code   RO         5624    .ARM.Collect$$_printf_percent$$00000009  c_w.l(_printf_d.o)
    0x08000236   0x08000236   0x00000006   Code   RO         5625    .ARM.Collect$$_printf_percent$$0000000A  c_w.l(_printf_u.o)
    0x0800023c   0x0800023c   0x00000006   Code   RO         5622    .ARM.Collect$$_printf_percent$$0000000B  c_w.l(_printf_o.o)
    0x08000242   0x08000242   0x00000006   Code   RO         5620    .ARM.Collect$$_printf_percent$$0000000C  c_w.l(_printf_x.o)
    0x08000248   0x08000248   0x00000006   Code   RO         5631    .ARM.Collect$$_printf_percent$$0000000D  c_w.l(_printf_lli.o)
    0x0800024e   0x0800024e   0x00000006   Code   RO         5632    .ARM.Collect$$_printf_percent$$0000000E  c_w.l(_printf_lld.o)
    0x08000254   0x08000254   0x00000006   Code   RO         5633    .ARM.Collect$$_printf_percent$$0000000F  c_w.l(_printf_llu.o)
    0x0800025a   0x0800025a   0x00000006   Code   RO         5638    .ARM.Collect$$_printf_percent$$00000010  c_w.l(_printf_llo.o)
    0x08000260   0x08000260   0x00000006   Code   RO         5639    .ARM.Collect$$_printf_percent$$00000011  c_w.l(_printf_llx.o)
    0x08000266   0x08000266   0x0000000a   Code   RO         5635    .ARM.Collect$$_printf_percent$$00000012  c_w.l(_printf_l.o)
    0x08000270   0x08000270   0x00000006   Code   RO         5617    .ARM.Collect$$_printf_percent$$00000013  c_w.l(_printf_c.o)
    0x08000276   0x08000276   0x00000006   Code   RO         5618    .ARM.Collect$$_printf_percent$$00000014  c_w.l(_printf_s.o)
    0x0800027c   0x0800027c   0x00000006   Code   RO         5636    .ARM.Collect$$_printf_percent$$00000015  c_w.l(_printf_lc.o)
    0x08000282   0x08000282   0x00000006   Code   RO         5637    .ARM.Collect$$_printf_percent$$00000016  c_w.l(_printf_ls.o)
    0x08000288   0x08000288   0x00000004   Code   RO         5691    .ARM.Collect$$_printf_percent$$00000017  c_w.l(_printf_percent_end.o)
    0x0800028c   0x0800028c   0x00000002   Code   RO         5750    .ARM.Collect$$libinit$$00000000  c_w.l(libinit.o)
    0x0800028e   0x0800028e   0x00000004   Code   RO         5771    .ARM.Collect$$libinit$$00000001  c_w.l(libinit2.o)
    0x08000292   0x08000292   0x00000000   Code   RO         5774    .ARM.Collect$$libinit$$00000004  c_w.l(libinit2.o)
    0x08000292   0x08000292   0x00000000   Code   RO         5777    .ARM.Collect$$libinit$$0000000A  c_w.l(libinit2.o)
    0x08000292   0x08000292   0x00000000   Code   RO         5779    .ARM.Collect$$libinit$$0000000C  c_w.l(libinit2.o)
    0x08000292   0x08000292   0x00000000   Code   RO         5781    .ARM.Collect$$libinit$$0000000E  c_w.l(libinit2.o)
    0x08000292   0x08000292   0x00000006   Code   RO         5782    .ARM.Collect$$libinit$$0000000F  c_w.l(libinit2.o)
    0x08000298   0x08000298   0x00000000   Code   RO         5784    .ARM.Collect$$libinit$$00000011  c_w.l(libinit2.o)
    0x08000298   0x08000298   0x0000000c   Code   RO         5785    .ARM.Collect$$libinit$$00000012  c_w.l(libinit2.o)
    0x080002a4   0x080002a4   0x00000000   Code   RO         5786    .ARM.Collect$$libinit$$00000013  c_w.l(libinit2.o)
    0x080002a4   0x080002a4   0x00000000   Code   RO         5788    .ARM.Collect$$libinit$$00000015  c_w.l(libinit2.o)
    0x080002a4   0x080002a4   0x0000000a   Code   RO         5789    .ARM.Collect$$libinit$$00000016  c_w.l(libinit2.o)
    0x080002ae   0x080002ae   0x00000000   Code   RO         5790    .ARM.Collect$$libinit$$00000017  c_w.l(libinit2.o)
    0x080002ae   0x080002ae   0x00000000   Code   RO         5792    .ARM.Collect$$libinit$$00000019  c_w.l(libinit2.o)
    0x080002ae   0x080002ae   0x00000000   Code   RO         5794    .ARM.Collect$$libinit$$0000001B  c_w.l(libinit2.o)
    0x080002ae   0x080002ae   0x00000000   Code   RO         5796    .ARM.Collect$$libinit$$0000001D  c_w.l(libinit2.o)
    0x080002ae   0x080002ae   0x00000000   Code   RO         5798    .ARM.Collect$$libinit$$0000001F  c_w.l(libinit2.o)
    0x080002ae   0x080002ae   0x00000000   Code   RO         5800    .ARM.Collect$$libinit$$00000021  c_w.l(libinit2.o)
    0x080002ae   0x080002ae   0x00000000   Code   RO         5802    .ARM.Collect$$libinit$$00000023  c_w.l(libinit2.o)
    0x080002ae   0x080002ae   0x00000000   Code   RO         5804    .ARM.Collect$$libinit$$00000025  c_w.l(libinit2.o)
    0x080002ae   0x080002ae   0x00000000   Code   RO         5808    .ARM.Collect$$libinit$$0000002C  c_w.l(libinit2.o)
    0x080002ae   0x080002ae   0x00000000   Code   RO         5810    .ARM.Collect$$libinit$$0000002E  c_w.l(libinit2.o)
    0x080002ae   0x080002ae   0x00000000   Code   RO         5812    .ARM.Collect$$libinit$$00000030  c_w.l(libinit2.o)
    0x080002ae   0x080002ae   0x00000000   Code   RO         5814    .ARM.Collect$$libinit$$00000032  c_w.l(libinit2.o)
    0x080002ae   0x080002ae   0x00000002   Code   RO         5815    .ARM.Collect$$libinit$$00000033  c_w.l(libinit2.o)
    0x080002b0   0x080002b0   0x00000002   Code   RO         5846    .ARM.Collect$$libshutdown$$00000000  c_w.l(libshutdown.o)
    0x080002b2   0x080002b2   0x00000000   Code   RO         5872    .ARM.Collect$$libshutdown$$00000002  c_w.l(libshutdown2.o)
    0x080002b2   0x080002b2   0x00000000   Code   RO         5874    .ARM.Collect$$libshutdown$$00000004  c_w.l(libshutdown2.o)
    0x080002b2   0x080002b2   0x00000000   Code   RO         5876    .ARM.Collect$$libshutdown$$00000006  c_w.l(libshutdown2.o)
    0x080002b2   0x080002b2   0x00000000   Code   RO         5879    .ARM.Collect$$libshutdown$$00000009  c_w.l(libshutdown2.o)
    0x080002b2   0x080002b2   0x00000000   Code   RO         5882    .ARM.Collect$$libshutdown$$0000000C  c_w.l(libshutdown2.o)
    0x080002b2   0x080002b2   0x00000000   Code   RO         5884    .ARM.Collect$$libshutdown$$0000000E  c_w.l(libshutdown2.o)
    0x080002b2   0x080002b2   0x00000000   Code   RO         5887    .ARM.Collect$$libshutdown$$00000011  c_w.l(libshutdown2.o)
    0x080002b2   0x080002b2   0x00000002   Code   RO         5888    .ARM.Collect$$libshutdown$$00000012  c_w.l(libshutdown2.o)
    0x080002b4   0x080002b4   0x00000000   Code   RO         5544    .ARM.Collect$$rtentry$$00000000  c_w.l(__rtentry.o)
    0x080002b4   0x080002b4   0x00000000   Code   RO         5660    .ARM.Collect$$rtentry$$00000002  c_w.l(__rtentry2.o)
    0x080002b4   0x080002b4   0x00000006   Code   RO         5672    .ARM.Collect$$rtentry$$00000004  c_w.l(__rtentry4.o)
    0x080002ba   0x080002ba   0x00000000   Code   RO         5662    .ARM.Collect$$rtentry$$00000009  c_w.l(__rtentry2.o)
    0x080002ba   0x080002ba   0x00000004   Code   RO         5663    .ARM.Collect$$rtentry$$0000000A  c_w.l(__rtentry2.o)
    0x080002be   0x080002be   0x00000000   Code   RO         5665    .ARM.Collect$$rtentry$$0000000C  c_w.l(__rtentry2.o)
    0x080002be   0x080002be   0x00000008   Code   RO         5666    .ARM.Collect$$rtentry$$0000000D  c_w.l(__rtentry2.o)
    0x080002c6   0x080002c6   0x00000002   Code   RO         5758    .ARM.Collect$$rtexit$$00000000  c_w.l(rtexit.o)
    0x080002c8   0x080002c8   0x00000000   Code   RO         5819    .ARM.Collect$$rtexit$$00000002  c_w.l(rtexit2.o)
    0x080002c8   0x080002c8   0x00000004   Code   RO         5820    .ARM.Collect$$rtexit$$00000003  c_w.l(rtexit2.o)
    0x080002cc   0x080002cc   0x00000006   Code   RO         5821    .ARM.Collect$$rtexit$$00000004  c_w.l(rtexit2.o)
    0x080002d2   0x080002d2   0x00000002   PAD
    0x080002d4   0x080002d4   0x00000040   Code   RO         4496    .text               startup_stm32f334x8.o
    0x08000314   0x08000314   0x000000ee   Code   RO         5512    .text               c_w.l(lludivv7m.o)
    0x08000402   0x08000402   0x00000002   PAD
    0x08000404   0x08000404   0x00000024   Code   RO         5516    .text               c_w.l(vsprintf.o)
    0x08000428   0x08000428   0x0000004e   Code   RO         5520    .text               c_w.l(rt_memclr_w.o)
    0x08000476   0x08000476   0x00000006   Code   RO         5522    .text               c_w.l(heapauxi.o)
    0x0800047c   0x0800047c   0x0000004e   Code   RO         5551    .text               c_w.l(_printf_pad.o)
    0x080004ca   0x080004ca   0x00000024   Code   RO         5553    .text               c_w.l(_printf_truncate.o)
    0x080004ee   0x080004ee   0x00000052   Code   RO         5555    .text               c_w.l(_printf_str.o)
    0x08000540   0x08000540   0x00000078   Code   RO         5557    .text               c_w.l(_printf_dec.o)
    0x080005b8   0x080005b8   0x00000028   Code   RO         5559    .text               c_w.l(_printf_charcount.o)
    0x080005e0   0x080005e0   0x00000030   Code   RO         5561    .text               c_w.l(_printf_char_common.o)
    0x08000610   0x08000610   0x0000000a   Code   RO         5563    .text               c_w.l(_sputc.o)
    0x0800061a   0x0800061a   0x00000002   PAD
    0x0800061c   0x0800061c   0x000000bc   Code   RO         5565    .text               c_w.l(_printf_wctomb.o)
    0x080006d8   0x080006d8   0x0000007c   Code   RO         5568    .text               c_w.l(_printf_longlong_dec.o)
    0x08000754   0x08000754   0x00000070   Code   RO         5574    .text               c_w.l(_printf_oct_int_ll.o)
    0x080007c4   0x080007c4   0x00000094   Code   RO         5594    .text               c_w.l(_printf_hex_int_ll_ptr.o)
    0x08000858   0x08000858   0x00000188   Code   RO         5614    .text               c_w.l(__printf_flags_ss_wp.o)
    0x080009e0   0x080009e0   0x0000008a   Code   RO         5676    .text               c_w.l(lludiv10.o)
    0x08000a6a   0x08000a6a   0x000000b2   Code   RO         5678    .text               c_w.l(_printf_intcommon.o)
    0x08000b1c   0x08000b1c   0x0000041e   Code   RO         5680    .text               c_w.l(_printf_fp_dec.o)
    0x08000f3a   0x08000f3a   0x00000002   PAD
    0x08000f3c   0x08000f3c   0x000002fc   Code   RO         5682    .text               c_w.l(_printf_fp_hex.o)
    0x08001238   0x08001238   0x0000002c   Code   RO         5687    .text               c_w.l(_printf_char.o)
    0x08001264   0x08001264   0x0000002c   Code   RO         5689    .text               c_w.l(_printf_wchar.o)
    0x08001290   0x08001290   0x00000040   Code   RO         5692    .text               c_w.l(_wcrtomb.o)
    0x080012d0   0x080012d0   0x0000004a   Code   RO         5700    .text               c_w.l(sys_stackheap_outer.o)
    0x0800131a   0x0800131a   0x00000002   PAD
    0x0800131c   0x0800131c   0x00000010   Code   RO         5702    .text               c_w.l(rt_ctype_table.o)
    0x0800132c   0x0800132c   0x00000008   Code   RO         5707    .text               c_w.l(rt_locale_intlibspace.o)
    0x08001334   0x08001334   0x00000080   Code   RO         5709    .text               c_w.l(_printf_fp_infnan.o)
    0x080013b4   0x080013b4   0x000000e4   Code   RO         5711    .text               c_w.l(bigflt0.o)
    0x08001498   0x08001498   0x00000012   Code   RO         5739    .text               c_w.l(exit.o)
    0x080014aa   0x080014aa   0x00000002   PAD
    0x080014ac   0x080014ac   0x00000008   Code   RO         5755    .text               c_w.l(libspace.o)
    0x080014b4   0x080014b4   0x00000080   Code   RO         5769    .text               c_w.l(strcmpv7m.o)
    0x08001534   0x08001534   0x0000000c   Code   RO         5816    .text               c_w.l(sys_exit.o)
    0x08001540   0x08001540   0x00000002   Code   RO         5835    .text               c_w.l(use_no_semi.o)
    0x08001542   0x08001542   0x00000000   Code   RO         5837    .text               c_w.l(indicate_semi.o)
    0x08001542   0x08001542   0x0000003e   Code   RO         5714    CL$$btod_d2e        c_w.l(btod.o)
    0x08001580   0x08001580   0x00000046   Code   RO         5716    CL$$btod_d2e_denorm_low  c_w.l(btod.o)
    0x080015c6   0x080015c6   0x00000060   Code   RO         5715    CL$$btod_d2e_norm_op1  c_w.l(btod.o)
    0x08001626   0x08001626   0x00000338   Code   RO         5724    CL$$btod_div_common  c_w.l(btod.o)
    0x0800195e   0x0800195e   0x000000dc   Code   RO         5721    CL$$btod_e2e        c_w.l(btod.o)
    0x08001a3a   0x08001a3a   0x0000002a   Code   RO         5718    CL$$btod_ediv       c_w.l(btod.o)
    0x08001a64   0x08001a64   0x0000002a   Code   RO         5717    CL$$btod_emul       c_w.l(btod.o)
    0x08001a8e   0x08001a8e   0x00000244   Code   RO         5723    CL$$btod_mult_common  c_w.l(btod.o)
    0x08001cd2   0x08001cd2   0x00000044   Code   RO          266    i.ADC_DMAConvCplt   stm32f3xx_hal_adc_ex.o
    0x08001d16   0x08001d16   0x00000016   Code   RO          267    i.ADC_DMAError      stm32f3xx_hal_adc_ex.o
    0x08001d2c   0x08001d2c   0x00000006   Code   RO          268    i.ADC_DMAHalfConvCplt  stm32f3xx_hal_adc_ex.o
    0x08001d32   0x08001d32   0x00000002   PAD
    0x08001d34   0x08001d34   0x0000006a   Code   RO          269    i.ADC_Disable       stm32f3xx_hal_adc_ex.o
    0x08001d9e   0x08001d9e   0x00000002   PAD
    0x08001da0   0x08001da0   0x0000006c   Code   RO          270    i.ADC_Enable        stm32f3xx_hal_adc_ex.o
    0x08001e0c   0x08001e0c   0x0000002e   Code   RO         4538    i.ADC_Linear_calibration_init  adc_to_elec.o
    0x08001e3a   0x08001e3a   0x00000030   Code   RO         4539    i.ADC_Value_To_Elec  adc_to_elec.o
    0x08001e6a   0x08001e6a   0x00000002   PAD
    0x08001e6c   0x08001e6c   0x0000002c   Code   RO         4815    i.BSP_ADC_Init      bsp_adc.o
    0x08001e98   0x08001e98   0x00000004   Code   RO         4816    i.BSP_ADC_Start_DMA  bsp_adc.o
    0x08001e9c   0x08001e9c   0x00000004   Code   RO         4817    i.BSP_ADC_Start_Injected  bsp_adc.o
    0x08001ea0   0x08001ea0   0x0000003c   Code   RO         4854    i.BSP_CAN_Init      bsp_can.o
    0x08001edc   0x08001edc   0x00000004   Code   RO         4881    i.BSP_GPIO_Init     bsp_gpio.o
    0x08001ee0   0x08001ee0   0x0000000c   Code   RO         4909    i.BSP_HRTIM_Enable_PWM  bsp_hrtim.o
    0x08001eec   0x08001eec   0x00000018   Code   RO         4910    i.BSP_HRTIM_Init    bsp_hrtim.o
    0x08001f04   0x08001f04   0x0000001c   Code   RO         4911    i.BSP_HRTIM_Update_PWM  bsp_hrtim.o
    0x08001f20   0x08001f20   0x00000044   Code   RO         4953    i.BSP_TIM_Init      bsp_tim.o
    0x08001f64   0x08001f64   0x0000000c   Code   RO         4954    i.BSP_TIM_Start_Loop_Timer  bsp_tim.o
    0x08001f70   0x08001f70   0x00000002   Code   RO         5353    i.BusFault_Handler  stm32f3xx_it_1.o
    0x08001f72   0x08001f72   0x00000002   PAD
    0x08001f74   0x08001f74   0x0000000c   Code   RO         5354    i.CAN_RX0_IRQHandler  stm32f3xx_it_1.o
    0x08001f80   0x08001f80   0x000000fc   Code   RO         4699    i.CAN_Send          supercap.o
    0x0800207c   0x0800207c   0x000000b0   Code   RO         4700    i.Calc_CAP_Remain_And_Current  supercap.o
    0x0800212c   0x0800212c   0x0000000c   Code   RO         5355    i.DMA1_Channel1_IRQHandler  stm32f3xx_it_1.o
    0x08002138   0x08002138   0x0000000c   Code   RO         5356    i.DMA1_Channel2_IRQHandler  stm32f3xx_it_1.o
    0x08002144   0x08002144   0x0000000c   Code   RO         5357    i.DMA1_Channel4_IRQHandler  stm32f3xx_it_1.o
    0x08002150   0x08002150   0x0000000c   Code   RO         5358    i.DMA1_Channel5_IRQHandler  stm32f3xx_it_1.o
    0x0800215c   0x0800215c   0x0000000c   Code   RO         5359    i.DMA1_Channel7_IRQHandler  stm32f3xx_it_1.o
    0x08002168   0x08002168   0x00000020   Code   RO          915    i.DMA_CalcBaseAndBitshift  stm32f3xx_hal_dma.o
    0x08002188   0x08002188   0x0000002a   Code   RO          916    i.DMA_SetConfig     stm32f3xx_hal_dma.o
    0x080021b2   0x080021b2   0x00000002   Code   RO         5360    i.DebugMon_Handler  stm32f3xx_it_1.o
    0x080021b4   0x080021b4   0x00000004   Code   RO         5034    i.Error_Handler     main_1.o
    0x080021b8   0x080021b8   0x0000009e   Code   RO          273    i.HAL_ADCEx_Calibration_Start  stm32f3xx_hal_adc_ex.o
    0x08002256   0x08002256   0x000000e0   Code   RO          280    i.HAL_ADCEx_InjectedStart_IT  stm32f3xx_hal_adc_ex.o
    0x08002336   0x08002336   0x00000002   PAD
    0x08002338   0x08002338   0x000000e0   Code   RO          285    i.HAL_ADCEx_MultiModeConfigChannel  stm32f3xx_hal_adc_ex.o
    0x08002418   0x08002418   0x00000350   Code   RO          294    i.HAL_ADC_ConfigChannel  stm32f3xx_hal_adc_ex.o
    0x08002768   0x08002768   0x00000002   Code   RO            6    i.HAL_ADC_ConvCpltCallback  stm32f3xx_hal_adc.o
    0x0800276a   0x0800276a   0x00000002   Code   RO            7    i.HAL_ADC_ConvHalfCpltCallback  stm32f3xx_hal_adc.o
    0x0800276c   0x0800276c   0x00000002   Code   RO            9    i.HAL_ADC_ErrorCallback  stm32f3xx_hal_adc.o
    0x0800276e   0x0800276e   0x00000002   PAD
    0x08002770   0x08002770   0x000001e4   Code   RO          298    i.HAL_ADC_Init      stm32f3xx_hal_adc_ex.o
    0x08002954   0x08002954   0x00000134   Code   RO         5089    i.HAL_ADC_MspInit   adc_1.o
    0x08002a88   0x08002a88   0x00000108   Code   RO          302    i.HAL_ADC_Start_DMA  stm32f3xx_hal_adc_ex.o
    0x08002b90   0x08002b90   0x00000024   Code   RO         2057    i.HAL_CAN_ActivateNotification  stm32f3xx_hal_can.o
    0x08002bb4   0x08002bb4   0x000000d0   Code   RO         2058    i.HAL_CAN_AddTxMessage  stm32f3xx_hal_can.o
    0x08002c84   0x08002c84   0x000000ee   Code   RO         2059    i.HAL_CAN_ConfigFilter  stm32f3xx_hal_can.o
    0x08002d72   0x08002d72   0x00000002   Code   RO         2062    i.HAL_CAN_ErrorCallback  stm32f3xx_hal_can.o
    0x08002d74   0x08002d74   0x000000f4   Code   RO         2065    i.HAL_CAN_GetRxMessage  stm32f3xx_hal_can.o
    0x08002e68   0x08002e68   0x000001fc   Code   RO         2069    i.HAL_CAN_IRQHandler  stm32f3xx_hal_can.o
    0x08003064   0x08003064   0x0000011a   Code   RO         2070    i.HAL_CAN_Init      stm32f3xx_hal_can.o
    0x0800317e   0x0800317e   0x00000002   PAD
    0x08003180   0x08003180   0x00000074   Code   RO         5138    i.HAL_CAN_MspInit   can_1.o
    0x080031f4   0x080031f4   0x00000002   Code   RO         2077    i.HAL_CAN_RxFifo0FullCallback  stm32f3xx_hal_can.o
    0x080031f6   0x080031f6   0x00000002   PAD
    0x080031f8   0x080031f8   0x00000074   Code   RO         4702    i.HAL_CAN_RxFifo0MsgPendingCallback  supercap.o
    0x0800326c   0x0800326c   0x00000002   Code   RO         2079    i.HAL_CAN_RxFifo1FullCallback  stm32f3xx_hal_can.o
    0x0800326e   0x0800326e   0x00000002   Code   RO         2080    i.HAL_CAN_RxFifo1MsgPendingCallback  stm32f3xx_hal_can.o
    0x08003270   0x08003270   0x00000002   Code   RO         2081    i.HAL_CAN_SleepCallback  stm32f3xx_hal_can.o
    0x08003272   0x08003272   0x00000002   PAD
    0x08003274   0x08003274   0x00000058   Code   RO         2082    i.HAL_CAN_Start     stm32f3xx_hal_can.o
    0x080032cc   0x080032cc   0x00000002   Code   RO         2084    i.HAL_CAN_TxMailbox0AbortCallback  stm32f3xx_hal_can.o
    0x080032ce   0x080032ce   0x00000002   Code   RO         2085    i.HAL_CAN_TxMailbox0CompleteCallback  stm32f3xx_hal_can.o
    0x080032d0   0x080032d0   0x00000002   Code   RO         2086    i.HAL_CAN_TxMailbox1AbortCallback  stm32f3xx_hal_can.o
    0x080032d2   0x080032d2   0x00000002   Code   RO         2087    i.HAL_CAN_TxMailbox1CompleteCallback  stm32f3xx_hal_can.o
    0x080032d4   0x080032d4   0x00000002   Code   RO         2088    i.HAL_CAN_TxMailbox2AbortCallback  stm32f3xx_hal_can.o
    0x080032d6   0x080032d6   0x00000002   Code   RO         2089    i.HAL_CAN_TxMailbox2CompleteCallback  stm32f3xx_hal_can.o
    0x080032d8   0x080032d8   0x00000002   Code   RO         2091    i.HAL_CAN_WakeUpFromRxMsgCallback  stm32f3xx_hal_can.o
    0x080032da   0x080032da   0x00000046   Code   RO          917    i.HAL_DMA_Abort     stm32f3xx_hal_dma.o
    0x08003320   0x08003320   0x0000004a   Code   RO          918    i.HAL_DMA_Abort_IT  stm32f3xx_hal_dma.o
    0x0800336a   0x0800336a   0x000000a8   Code   RO          922    i.HAL_DMA_IRQHandler  stm32f3xx_hal_dma.o
    0x08003412   0x08003412   0x0000004e   Code   RO          923    i.HAL_DMA_Init      stm32f3xx_hal_dma.o
    0x08003460   0x08003460   0x00000070   Code   RO          927    i.HAL_DMA_Start_IT  stm32f3xx_hal_dma.o
    0x080034d0   0x080034d0   0x00000024   Code   RO          536    i.HAL_Delay         stm32f3xx_hal.o
    0x080034f4   0x080034f4   0x00000220   Code   RO          852    i.HAL_GPIO_Init     stm32f3xx_hal_gpio.o
    0x08003714   0x08003714   0x0000000c   Code   RO          540    i.HAL_GetTick       stm32f3xx_hal.o
    0x08003720   0x08003720   0x00000002   Code   RO         2297    i.HAL_HRTIM_BurstModePeriodCallback  stm32f3xx_hal_hrtim.o
    0x08003722   0x08003722   0x00000002   Code   RO         2299    i.HAL_HRTIM_Capture1EventCallback  stm32f3xx_hal_hrtim.o
    0x08003724   0x08003724   0x00000002   Code   RO         2300    i.HAL_HRTIM_Capture2EventCallback  stm32f3xx_hal_hrtim.o
    0x08003726   0x08003726   0x00000002   Code   RO         2302    i.HAL_HRTIM_Compare1EventCallback  stm32f3xx_hal_hrtim.o
    0x08003728   0x08003728   0x00000002   Code   RO         2303    i.HAL_HRTIM_Compare2EventCallback  stm32f3xx_hal_hrtim.o
    0x0800372a   0x0800372a   0x00000002   Code   RO         2304    i.HAL_HRTIM_Compare3EventCallback  stm32f3xx_hal_hrtim.o
    0x0800372c   0x0800372c   0x00000002   Code   RO         2305    i.HAL_HRTIM_Compare4EventCallback  stm32f3xx_hal_hrtim.o
    0x0800372e   0x0800372e   0x00000002   Code   RO         2306    i.HAL_HRTIM_CounterResetCallback  stm32f3xx_hal_hrtim.o
    0x08003730   0x08003730   0x00000002   Code   RO         2307    i.HAL_HRTIM_DLLCalibrationReadyCallback  stm32f3xx_hal_hrtim.o
    0x08003732   0x08003732   0x00000062   Code   RO         2308    i.HAL_HRTIM_DLLCalibrationStart  stm32f3xx_hal_hrtim.o
    0x08003794   0x08003794   0x0000008c   Code   RO         2311    i.HAL_HRTIM_DeadTimeConfig  stm32f3xx_hal_hrtim.o
    0x08003820   0x08003820   0x00000002   Code   RO         2312    i.HAL_HRTIM_DelayedProtectionCallback  stm32f3xx_hal_hrtim.o
    0x08003822   0x08003822   0x00000002   Code   RO         2316    i.HAL_HRTIM_Fault1Callback  stm32f3xx_hal_hrtim.o
    0x08003824   0x08003824   0x00000002   Code   RO         2317    i.HAL_HRTIM_Fault2Callback  stm32f3xx_hal_hrtim.o
    0x08003826   0x08003826   0x00000002   Code   RO         2318    i.HAL_HRTIM_Fault3Callback  stm32f3xx_hal_hrtim.o
    0x08003828   0x08003828   0x00000002   Code   RO         2319    i.HAL_HRTIM_Fault4Callback  stm32f3xx_hal_hrtim.o
    0x0800382a   0x0800382a   0x00000002   Code   RO         2320    i.HAL_HRTIM_Fault5Callback  stm32f3xx_hal_hrtim.o
    0x0800382c   0x0800382c   0x00000014   Code   RO         2330    i.HAL_HRTIM_IRQHandler  stm32f3xx_hal_hrtim.o
    0x08003840   0x08003840   0x000000bc   Code   RO         2331    i.HAL_HRTIM_Init    stm32f3xx_hal_hrtim.o
    0x080038fc   0x080038fc   0x0000003c   Code   RO         5204    i.HAL_HRTIM_MspInit  hrtim_1.o
    0x08003938   0x08003938   0x00000054   Code   RO         5205    i.HAL_HRTIM_MspPostInit  hrtim_1.o
    0x0800398c   0x0800398c   0x00000002   Code   RO         2334    i.HAL_HRTIM_Output1ResetCallback  stm32f3xx_hal_hrtim.o
    0x0800398e   0x0800398e   0x00000002   Code   RO         2335    i.HAL_HRTIM_Output1SetCallback  stm32f3xx_hal_hrtim.o
    0x08003990   0x08003990   0x00000002   Code   RO         2336    i.HAL_HRTIM_Output2ResetCallback  stm32f3xx_hal_hrtim.o
    0x08003992   0x08003992   0x00000002   Code   RO         2337    i.HAL_HRTIM_Output2SetCallback  stm32f3xx_hal_hrtim.o
    0x08003994   0x08003994   0x00000042   Code   RO         2338    i.HAL_HRTIM_PollForDLLCalibration  stm32f3xx_hal_hrtim.o
    0x080039d6   0x080039d6   0x00000002   Code   RO         2339    i.HAL_HRTIM_RegistersUpdateCallback  stm32f3xx_hal_hrtim.o
    0x080039d8   0x080039d8   0x00000002   Code   RO         4622    i.HAL_HRTIM_RepetitionEventCallback  power_loop.o
    0x080039da   0x080039da   0x00000002   Code   RO         2376    i.HAL_HRTIM_SynchronizationEventCallback  stm32f3xx_hal_hrtim.o
    0x080039dc   0x080039dc   0x00000002   Code   RO         2377    i.HAL_HRTIM_SystemFaultCallback  stm32f3xx_hal_hrtim.o
    0x080039de   0x080039de   0x0000007a   Code   RO         2378    i.HAL_HRTIM_TimeBaseConfig  stm32f3xx_hal_hrtim.o
    0x08003a58   0x08003a58   0x00000134   Code   RO         2383    i.HAL_HRTIM_WaveformCompareConfig  stm32f3xx_hal_hrtim.o
    0x08003b8c   0x08003b8c   0x0000002c   Code   RO         2384    i.HAL_HRTIM_WaveformCountStart  stm32f3xx_hal_hrtim.o
    0x08003bb8   0x08003bb8   0x00000036   Code   RO         2392    i.HAL_HRTIM_WaveformOutputConfig  stm32f3xx_hal_hrtim.o
    0x08003bee   0x08003bee   0x00000030   Code   RO         2393    i.HAL_HRTIM_WaveformOutputStart  stm32f3xx_hal_hrtim.o
    0x08003c1e   0x08003c1e   0x000000ba   Code   RO         2396    i.HAL_HRTIM_WaveformTimerConfig  stm32f3xx_hal_hrtim.o
    0x08003cd8   0x08003cd8   0x00000010   Code   RO          546    i.HAL_IncTick       stm32f3xx_hal.o
    0x08003ce8   0x08003ce8   0x00000024   Code   RO          547    i.HAL_Init          stm32f3xx_hal.o
    0x08003d0c   0x08003d0c   0x00000040   Code   RO          548    i.HAL_InitTick      stm32f3xx_hal.o
    0x08003d4c   0x08003d4c   0x0000002c   Code   RO         5489    i.HAL_MspInit       stm32f3xx_hal_msp_1.o
    0x08003d78   0x08003d78   0x0000001a   Code   RO         1017    i.HAL_NVIC_EnableIRQ  stm32f3xx_hal_cortex.o
    0x08003d92   0x08003d92   0x00000002   PAD
    0x08003d94   0x08003d94   0x00000040   Code   RO         1023    i.HAL_NVIC_SetPriority  stm32f3xx_hal_cortex.o
    0x08003dd4   0x08003dd4   0x00000024   Code   RO         1024    i.HAL_NVIC_SetPriorityGrouping  stm32f3xx_hal_cortex.o
    0x08003df8   0x08003df8   0x00000188   Code   RO          809    i.HAL_RCCEx_PeriphCLKConfig  stm32f3xx_hal_rcc_ex.o
    0x08003f80   0x08003f80   0x00000148   Code   RO          704    i.HAL_RCC_ClockConfig  stm32f3xx_hal_rcc.o
    0x080040c8   0x080040c8   0x0000006c   Code   RO          713    i.HAL_RCC_GetSysClockFreq  stm32f3xx_hal_rcc.o
    0x08004134   0x08004134   0x000005c8   Code   RO          716    i.HAL_RCC_OscConfig  stm32f3xx_hal_rcc.o
    0x080046fc   0x080046fc   0x00000028   Code   RO         1028    i.HAL_SYSTICK_Config  stm32f3xx_hal_cortex.o
    0x08004724   0x08004724   0x00000002   Code   RO         3747    i.HAL_TIMEx_Break2Callback  stm32f3xx_hal_tim_ex.o
    0x08004726   0x08004726   0x00000002   Code   RO         3748    i.HAL_TIMEx_BreakCallback  stm32f3xx_hal_tim_ex.o
    0x08004728   0x08004728   0x00000002   Code   RO         3749    i.HAL_TIMEx_CommutCallback  stm32f3xx_hal_tim_ex.o
    0x0800472a   0x0800472a   0x00000002   PAD
    0x0800472c   0x0800472c   0x00000074   Code   RO         3768    i.HAL_TIMEx_MasterConfigSynchronization  stm32f3xx_hal_tim_ex.o
    0x080047a0   0x080047a0   0x00000062   Code   RO         3033    i.HAL_TIM_Base_Init  stm32f3xx_hal_tim.o
    0x08004802   0x08004802   0x00000002   PAD
    0x08004804   0x08004804   0x00000050   Code   RO         5252    i.HAL_TIM_Base_MspInit  tim_1.o
    0x08004854   0x08004854   0x00000058   Code   RO         3036    i.HAL_TIM_Base_Start  stm32f3xx_hal_tim.o
    0x080048ac   0x080048ac   0x00000064   Code   RO         3038    i.HAL_TIM_Base_Start_IT  stm32f3xx_hal_tim.o
    0x08004910   0x08004910   0x000000e0   Code   RO         3042    i.HAL_TIM_ConfigClockSource  stm32f3xx_hal_tim.o
    0x080049f0   0x080049f0   0x00000002   Code   RO         3067    i.HAL_TIM_IC_CaptureCallback  stm32f3xx_hal_tim.o
    0x080049f2   0x080049f2   0x00000184   Code   RO         3081    i.HAL_TIM_IRQHandler  stm32f3xx_hal_tim.o
    0x08004b76   0x08004b76   0x00000002   PAD
    0x08004b78   0x08004b78   0x00000048   Code   RO         5253    i.HAL_TIM_MspPostInit  tim_1.o
    0x08004bc0   0x08004bc0   0x00000002   Code   RO         3084    i.HAL_TIM_OC_DelayElapsedCallback  stm32f3xx_hal_tim.o
    0x08004bc2   0x08004bc2   0x00000124   Code   RO         3105    i.HAL_TIM_PWM_ConfigChannel  stm32f3xx_hal_tim.o
    0x08004ce6   0x08004ce6   0x00000062   Code   RO         3108    i.HAL_TIM_PWM_Init  stm32f3xx_hal_tim.o
    0x08004d48   0x08004d48   0x00000002   Code   RO         3110    i.HAL_TIM_PWM_MspInit  stm32f3xx_hal_tim.o
    0x08004d4a   0x08004d4a   0x00000002   Code   RO         3111    i.HAL_TIM_PWM_PulseFinishedCallback  stm32f3xx_hal_tim.o
    0x08004d4c   0x08004d4c   0x000000e4   Code   RO         3113    i.HAL_TIM_PWM_Start  stm32f3xx_hal_tim.o
    0x08004e30   0x08004e30   0x00000010   Code   RO         4623    i.HAL_TIM_PeriodElapsedCallback  power_loop.o
    0x08004e40   0x08004e40   0x00000002   Code   RO         3124    i.HAL_TIM_TriggerCallback  stm32f3xx_hal_tim.o
    0x08004e42   0x08004e42   0x00000002   Code   RO         4035    i.HAL_UARTEx_RxEventCallback  stm32f3xx_hal_uart.o
    0x08004e44   0x08004e44   0x00000002   Code   RO         4427    i.HAL_UARTEx_WakeupCallback  stm32f3xx_hal_uart_ex.o
    0x08004e46   0x08004e46   0x00000002   Code   RO         4051    i.HAL_UART_ErrorCallback  stm32f3xx_hal_uart.o
    0x08004e48   0x08004e48   0x000002b8   Code   RO         4054    i.HAL_UART_IRQHandler  stm32f3xx_hal_uart.o
    0x08005100   0x08005100   0x0000008c   Code   RO         4065    i.HAL_UART_Transmit_DMA  stm32f3xx_hal_uart.o
    0x0800518c   0x0800518c   0x00000002   Code   RO         4067    i.HAL_UART_TxCpltCallback  stm32f3xx_hal_uart.o
    0x0800518e   0x0800518e   0x00000002   Code   RO         4068    i.HAL_UART_TxHalfCpltCallback  stm32f3xx_hal_uart.o
    0x08005190   0x08005190   0x0000000c   Code   RO         5361    i.HRTIM1_Master_IRQHandler  stm32f3xx_it_1.o
    0x0800519c   0x0800519c   0x0000005a   Code   RO         2403    i.HRTIM_ForceRegistersUpdate  stm32f3xx_hal_hrtim.o
    0x080051f6   0x080051f6   0x00000092   Code   RO         2407    i.HRTIM_HRTIM_ISR   stm32f3xx_hal_hrtim.o
    0x08005288   0x08005288   0x000000f0   Code   RO         2408    i.HRTIM_Master_ISR  stm32f3xx_hal_hrtim.o
    0x08005378   0x08005378   0x000000ce   Code   RO         2409    i.HRTIM_OutputConfig  stm32f3xx_hal_hrtim.o
    0x08005446   0x08005446   0x00000166   Code   RO         2411    i.HRTIM_Timer_ISR   stm32f3xx_hal_hrtim.o
    0x080055ac   0x080055ac   0x00000142   Code   RO         2412    i.HRTIM_TimingUnitWaveform_Config  stm32f3xx_hal_hrtim.o
    0x080056ee   0x080056ee   0x00000002   Code   RO         5362    i.HardFault_Handler  stm32f3xx_it_1.o
    0x080056f0   0x080056f0   0x0000009c   Code   RO         5090    i.MX_ADC1_Init      adc_1.o
    0x0800578c   0x0800578c   0x0000009c   Code   RO         5091    i.MX_ADC2_Init      adc_1.o
    0x08005828   0x08005828   0x00000044   Code   RO         5139    i.MX_CAN_Init       can_1.o
    0x0800586c   0x0800586c   0x0000006c   Code   RO         5179    i.MX_DMA_Init       dma_1.o
    0x080058d8   0x080058d8   0x0000003c   Code   RO         5064    i.MX_GPIO_Init      gpio_1.o
    0x08005914   0x08005914   0x0000021c   Code   RO         5206    i.MX_HRTIM1_Init    hrtim_1.o
    0x08005b30   0x08005b30   0x000000d4   Code   RO         5254    i.MX_TIM2_Init      tim_1.o
    0x08005c04   0x08005c04   0x00000048   Code   RO         5255    i.MX_TIM6_Init      tim_1.o
    0x08005c4c   0x08005c4c   0x00000002   Code   RO         5363    i.MemManage_Handler  stm32f3xx_it_1.o
    0x08005c4e   0x08005c4e   0x00000002   Code   RO         5364    i.NMI_Handler       stm32f3xx_it_1.o
    0x08005c50   0x08005c50   0x00000128   Code   RO         4592    i.PID_calc          pid.o
    0x08005d78   0x08005d78   0x00000050   Code   RO         4594    i.PID_init          pid.o
    0x08005dc8   0x08005dc8   0x00000002   Code   RO         5365    i.PendSV_Handler    stm32f3xx_it_1.o
    0x08005dca   0x08005dca   0x00000002   PAD
    0x08005dcc   0x08005dcc   0x000000d0   Code   RO         4703    i.Running_Diagnose  supercap.o
    0x08005e9c   0x08005e9c   0x00000002   Code   RO         5366    i.SVC_Handler       stm32f3xx_it_1.o
    0x08005e9e   0x08005e9e   0x00000002   PAD
    0x08005ea0   0x08005ea0   0x000001cc   Code   RO         4704    i.Set_Board_Config  supercap.o
    0x0800606c   0x0800606c   0x00000254   Code   RO         4705    i.Show_Status       supercap.o
    0x080062c0   0x080062c0   0x00000004   Code   RO         5367    i.SysTick_Handler   stm32f3xx_it_1.o
    0x080062c4   0x080062c4   0x0000008a   Code   RO         5035    i.SystemClock_Config  main_1.o
    0x0800634e   0x0800634e   0x00000002   PAD
    0x08006350   0x08006350   0x00000010   Code   RO         4504    i.SystemInit        system_stm32f3xx.o
    0x08006360   0x08006360   0x0000000c   Code   RO         5368    i.TIM6_DAC1_IRQHandler  stm32f3xx_it_1.o
    0x0800636c   0x0800636c   0x00000088   Code   RO         3126    i.TIM_Base_SetConfig  stm32f3xx_hal_tim.o
    0x080063f4   0x080063f4   0x0000001a   Code   RO         3127    i.TIM_CCxChannelCmd  stm32f3xx_hal_tim.o
    0x0800640e   0x0800640e   0x00000014   Code   RO         3137    i.TIM_ETR_SetConfig  stm32f3xx_hal_tim.o
    0x08006422   0x08006422   0x00000010   Code   RO         3138    i.TIM_ITRx_SetConfig  stm32f3xx_hal_tim.o
    0x08006432   0x08006432   0x00000002   PAD
    0x08006434   0x08006434   0x00000088   Code   RO         3139    i.TIM_OC1_SetConfig  stm32f3xx_hal_tim.o
    0x080064bc   0x080064bc   0x00000080   Code   RO         3140    i.TIM_OC2_SetConfig  stm32f3xx_hal_tim.o
    0x0800653c   0x0800653c   0x00000080   Code   RO         3141    i.TIM_OC3_SetConfig  stm32f3xx_hal_tim.o
    0x080065bc   0x080065bc   0x0000006c   Code   RO         3142    i.TIM_OC4_SetConfig  stm32f3xx_hal_tim.o
    0x08006628   0x08006628   0x00000064   Code   RO         3143    i.TIM_OC5_SetConfig  stm32f3xx_hal_tim.o
    0x0800668c   0x0800668c   0x00000068   Code   RO         3144    i.TIM_OC6_SetConfig  stm32f3xx_hal_tim.o
    0x080066f4   0x080066f4   0x00000022   Code   RO         3146    i.TIM_TI1_ConfigInputStage  stm32f3xx_hal_tim.o
    0x08006716   0x08006716   0x00000024   Code   RO         3148    i.TIM_TI2_ConfigInputStage  stm32f3xx_hal_tim.o
    0x0800673a   0x0800673a   0x00000014   Code   RO         4071    i.UART_DMAAbortOnError  stm32f3xx_hal_uart.o
    0x0800674e   0x0800674e   0x0000004e   Code   RO         4072    i.UART_DMAError     stm32f3xx_hal_uart.o
    0x0800679c   0x0800679c   0x00000040   Code   RO         4077    i.UART_DMATransmitCplt  stm32f3xx_hal_uart.o
    0x080067dc   0x080067dc   0x0000000a   Code   RO         4079    i.UART_DMATxHalfCplt  stm32f3xx_hal_uart.o
    0x080067e6   0x080067e6   0x0000004c   Code   RO         4081    i.UART_EndRxTransfer  stm32f3xx_hal_uart.o
    0x08006832   0x08006832   0x00000018   Code   RO         4082    i.UART_EndTxTransfer  stm32f3xx_hal_uart.o
    0x0800684a   0x0800684a   0x00000002   PAD
    0x0800684c   0x0800684c   0x0000000c   Code   RO         5369    i.USART1_IRQHandler  stm32f3xx_it_1.o
    0x08006858   0x08006858   0x0000000c   Code   RO         5370    i.USART2_IRQHandler  stm32f3xx_it_1.o
    0x08006864   0x08006864   0x00000038   Code   RO         4956    i.Update_LED_PWM    bsp_tim.o
    0x0800689c   0x0800689c   0x00000002   Code   RO         5371    i.UsageFault_Handler  stm32f3xx_it_1.o
    0x0800689e   0x0800689e   0x00000002   PAD
    0x080068a0   0x080068a0   0x0000003e   Code   RO         4563    i.Window_Filter_Calc  filter.o
    0x080068de   0x080068de   0x0000001a   Code   RO         4564    i.Window_Filter_Init  filter.o
    0x080068f8   0x080068f8   0x00000030   Code   RO         5753    i.__ARM_fpclassify  m_wm.l(fpclassify.o)
    0x08006928   0x08006928   0x00000020   Code   RO         1030    i.__NVIC_SetPriority  stm32f3xx_hal_cortex.o
    0x08006948   0x08006948   0x00000048   Code   RO         5536    i.__hardfp_fmaxf    m_wm.l(fmaxf.o)
    0x08006990   0x08006990   0x00000048   Code   RO         5540    i.__hardfp_fminf    m_wm.l(fminf.o)
    0x080069d8   0x080069d8   0x0000000e   Code   RO         5607    i._is_digit         c_w.l(__printf_wp.o)
    0x080069e6   0x080069e6   0x00000002   PAD
    0x080069e8   0x080069e8   0x000000dc   Code   RO         4624    i.buckboost_pwm_update  power_loop.o
    0x08006ac4   0x08006ac4   0x00000190   Code   RO         4625    i.control_calc      power_loop.o
    0x08006c54   0x08006c54   0x000000a4   Code   RO         4706    i.main              supercap.o
    0x08006cf8   0x08006cf8   0x00000038   Code   RO         4998    i.uart_dma_printf   bsp_uart.o
    0x08006d30   0x08006d30   0x0000002c   Code   RO         5737    locale$$code        c_w.l(lc_numeric_c.o)
    0x08006d5c   0x08006d5c   0x0000002c   Code   RO         5763    locale$$code        c_w.l(lc_ctype_c.o)
    0x08006d88   0x08006d88   0x00000052   Code   RO         5644    x$fpl$fcmp4         fz_wm.l(fcmp4.o)
    0x08006dda   0x08006dda   0x00000018   Code   RO         5698    x$fpl$fcmpinf       fz_wm.l(fcmpi.o)
    0x08006df2   0x08006df2   0x0000008c   Code   RO         5648    x$fpl$fnaninf       fz_wm.l(fnaninf.o)
    0x08006e7e   0x08006e7e   0x0000000a   Code   RO         5831    x$fpl$fpinit        fz_wm.l(fpinit.o)
    0x08006e88   0x08006e88   0x00000004   Code   RO         5650    x$fpl$printf1       fz_wm.l(printf1.o)
    0x08006e8c   0x08006e8c   0x00000004   Code   RO         5652    x$fpl$printf2       fz_wm.l(printf2.o)
    0x08006e90   0x08006e90   0x00000000   Code   RO         5658    x$fpl$usenofp       fz_wm.l(usenofp.o)
    0x08006e90   0x08006e90   0x00000020   Data   RO          717    .constdata          stm32f3xx_hal_rcc.o
    0x08006eb0   0x08006eb0   0x00000010   Data   RO         4505    .constdata          system_stm32f3xx.o
    0x08006ec0   0x08006ec0   0x00000190   Data   RO         4707    .constdata          supercap.o
    0x08007050   0x08007050   0x00000008   Data   RO         5566    .constdata          c_w.l(_printf_wctomb.o)
    0x08007058   0x08007058   0x00000028   Data   RO         5595    .constdata          c_w.l(_printf_hex_int_ll_ptr.o)
    0x08007080   0x08007080   0x00000011   Data   RO         5615    .constdata          c_w.l(__printf_flags_ss_wp.o)
    0x08007091   0x08007091   0x00000026   Data   RO         5683    .constdata          c_w.l(_printf_fp_hex.o)
    0x080070b7   0x080070b7   0x00000001   PAD
    0x080070b8   0x080070b8   0x00000094   Data   RO         5712    .constdata          c_w.l(bigflt0.o)
    0x0800714c   0x0800714c   0x00000020   Data   RO         5889    Region$$Table       anon$$obj.o
    0x0800716c   0x0800716c   0x0000001c   Data   RO         5736    locale$$data        c_w.l(lc_numeric_c.o)
    0x08007188   0x08007188   0x00000110   Data   RO         5762    locale$$data        c_w.l(lc_ctype_c.o)


    Execution Region RW_IRAM2 (Exec base: 0x10000000, Load base: 0x080072d0, Size: 0x00000000, Max: 0x00001000, ABSOLUTE)

    **** No section assigned to this execution region ****


    Execution Region RW_IRAM1 (Exec base: 0x20000000, Load base: 0x08007298, Size: 0x000010e0, Max: 0x00003000, ABSOLUTE)

    Exec Addr    Load Addr    Size         Type   Attr      Idx    E Section Name        Object

    0x20000000   0x08007298   0x0000000c   Data   RW          554    .data               stm32f3xx_hal.o
    0x2000000c   0x080072a4   0x00000004   Data   RW         4507    .data               system_stm32f3xx.o
    0x20000010   0x080072a8   0x00000003   Data   RW         4627    .data               power_loop.o
    0x20000013   0x080072ab   0x00000001   PAD
    0x20000014   0x080072ac   0x00000018   Data   RW         4708    .data               supercap.o
    0x2000002c   0x080072c4   0x00000008   Data   RW         5000    .data               bsp_uart.o
    0x20000034   0x080072cc   0x00000004   Data   RW         5093    .data               adc_1.o
    0x20000038        -       0x00000324   Zero   RW         4626    .bss                power_loop.o
    0x2000035c        -       0x00000080   Zero   RW         4999    .bss                bsp_uart.o
    0x200003dc        -       0x00000128   Zero   RW         5092    .bss                adc_1.o
    0x20000504        -       0x00000028   Zero   RW         5140    .bss                can_1.o
    0x2000052c        -       0x000000dc   Zero   RW         5207    .bss                hrtim_1.o
    0x20000608        -       0x00000098   Zero   RW         5256    .bss                tim_1.o
    0x200006a0        -       0x000001dc   Zero   RW         5309    .bss                usart_1.o
    0x2000087c        -       0x00000060   Zero   RW         5756    .bss                c_w.l(libspace.o)
    0x200008dc   0x080072d0   0x00000004   PAD
    0x200008e0        -       0x00000400   Zero   RW         4494    HEAP                startup_stm32f334x8.o
    0x20000ce0        -       0x00000400   Zero   RW         4493    STACK               startup_stm32f334x8.o


==============================================================================

Image component sizes


      Code (inc. data)   RO Data    RW Data    ZI Data      Debug   Object Name

       620         42          0          4        296       2746   adc_1.o
        94          0          0          0          0       3246   adc_to_elec.o
        52         10          0          0          0       1756   bsp_adc.o
        60          4          0          0          0        539   bsp_can.o
         4          0          0          0          0        432   bsp_gpio.o
        64         14          0          0          0       1555   bsp_hrtim.o
       136         16          0          0          0       1523   bsp_tim.o
        56         10          0          8        128       1506   bsp_uart.o
       184         16          0          0         40       1599   can_1.o
       108          4          0          0          0        762   dma_1.o
        88          0          0          0          0       1822   filter.o
        60          4          0          0          0        803   gpio_1.o
       684         20          0          0        220       2627   hrtim_1.o
       142          0          0          0          0       1097   main_1.o
       376         10          0          0          0       2950   pid.o
       638         40          0          3        804       6518   power_loop.o
        64         26        392          0       2048        792   startup_stm32f334x8.o
       164         28          0         12          0      15029   stm32f3xx_hal.o
         6          0          0          0          0     781326   stm32f3xx_hal_adc.o
      2512         78          0          0          0      10597   stm32f3xx_hal_adc_ex.o
      1628          0          0          0          0      13855   stm32f3xx_hal_can.o
       198         14          0          0          0      32151   stm32f3xx_hal_cortex.o
       576         10          0          0          0       5470   stm32f3xx_hal_dma.o
       544         26          0          0          0       1576   stm32f3xx_hal_gpio.o
      2680         24          0          0          0      28925   stm32f3xx_hal_hrtim.o
        44          4          0          0          0        818   stm32f3xx_hal_msp_1.o
      1916         48         32          0          0       4458   stm32f3xx_hal_rcc.o
       392         14          0          0          0       1432   stm32f3xx_hal_rcc_ex.o
      2498        212          0          0          0      18663   stm32f3xx_hal_tim.o
       122         12          0          0          0       2984   stm32f3xx_hal_tim_ex.o
      1116         24          0          0          0       9216   stm32f3xx_hal_uart.o
         2          0          0          0          0        972   stm32f3xx_hal_uart_ex.o
       140         58          0          0          0       8564   stm32f3xx_it_1.o
      1972        212        400         24          0       6713   supercap.o
        16          4         16          4          0       1067   system_stm32f3xx.o
       436         24          0          0        152       2989   tim_1.o
         0          0          0          0        476        353   usart_1.o

    ----------------------------------------------------------------------
     20430       1008        872         56       4164     979431   Object Totals
         0          0         32          0          0          0   (incl. Generated)
        38          0          0          1          0          0   (incl. Padding)

    ----------------------------------------------------------------------

      Code (inc. data)   RO Data    RW Data    ZI Data      Debug   Library Member Name

         8          0          0          0          0         68   __main.o
       392          4         17          0          0         92   __printf_flags_ss_wp.o
        14          0          0          0          0         68   __printf_wp.o
         0          0          0          0          0          0   __rtentry.o
        12          0          0          0          0          0   __rtentry2.o
         6          0          0          0          0          0   __rtentry4.o
        52          8          0          0          0          0   __scatter.o
        26          0          0          0          0          0   __scatter_copy.o
        28          0          0          0          0          0   __scatter_zi.o
         6          0          0          0          0          0   _printf_a.o
         6          0          0          0          0          0   _printf_c.o
        44          0          0          0          0        108   _printf_char.o
        48          6          0          0          0         96   _printf_char_common.o
        40          0          0          0          0         68   _printf_charcount.o
         6          0          0          0          0          0   _printf_d.o
       120         16          0          0          0         92   _printf_dec.o
         6          0          0          0          0          0   _printf_e.o
         6          0          0          0          0          0   _printf_f.o
      1054          0          0          0          0        216   _printf_fp_dec.o
       764          8         38          0          0        100   _printf_fp_hex.o
       128         16          0          0          0         84   _printf_fp_infnan.o
         6          0          0          0          0          0   _printf_g.o
       148          4         40          0          0        160   _printf_hex_int_ll_ptr.o
         6          0          0          0          0          0   _printf_i.o
       178          0          0          0          0         88   _printf_intcommon.o
        10          0          0          0          0          0   _printf_l.o
         6          0          0          0          0          0   _printf_lc.o
        10          0          0          0          0          0   _printf_ll.o
         6          0          0          0          0          0   _printf_lld.o
         6          0          0          0          0          0   _printf_lli.o
         6          0          0          0          0          0   _printf_llo.o
         6          0          0          0          0          0   _printf_llu.o
         6          0          0          0          0          0   _printf_llx.o
       124         16          0          0          0         92   _printf_longlong_dec.o
         6          0          0          0          0          0   _printf_ls.o
         6          0          0          0          0          0   _printf_n.o
         6          0          0          0          0          0   _printf_o.o
       112         10          0          0          0        124   _printf_oct_int_ll.o
         6          0          0          0          0          0   _printf_p.o
        78          0          0          0          0        108   _printf_pad.o
         0          0          0          0          0          0   _printf_percent.o
         4          0          0          0          0          0   _printf_percent_end.o
         6          0          0          0          0          0   _printf_s.o
        82          0          0          0          0         80   _printf_str.o
        36          0          0          0          0         84   _printf_truncate.o
         6          0          0          0          0          0   _printf_u.o
        44          0          0          0          0        108   _printf_wchar.o
       188          6          8          0          0         92   _printf_wctomb.o
         6          0          0          0          0          0   _printf_x.o
        10          0          0          0          0         68   _sputc.o
        64          0          0          0          0         92   _wcrtomb.o
       228          4        148          0          0         96   bigflt0.o
      1936        128          0          0          0        672   btod.o
        18          0          0          0          0         80   exit.o
         6          0          0          0          0        152   heapauxi.o
         0          0          0          0          0          0   indicate_semi.o
        44         10        272          0          0         76   lc_ctype_c.o
        44         10         28          0          0         76   lc_numeric_c.o
         2          0          0          0          0          0   libinit.o
        34          0          0          0          0          0   libinit2.o
         2          0          0          0          0          0   libshutdown.o
         2          0          0          0          0          0   libshutdown2.o
         8          4          0          0         96         68   libspace.o
       138          0          0          0          0         80   lludiv10.o
       238          0          0          0          0        100   lludivv7m.o
        16          4          0          0          0         76   rt_ctype_table.o
         8          4          0          0          0         68   rt_locale_intlibspace.o
        78          0          0          0          0         80   rt_memclr_w.o
         2          0          0          0          0          0   rtexit.o
        10          0          0          0          0          0   rtexit2.o
       128          0          0          0          0         68   strcmpv7m.o
        12          4          0          0          0         68   sys_exit.o
        74          0          0          0          0         80   sys_stackheap_outer.o
         2          0          0          0          0         68   use_no_semi.o
        36          4          0          0          0         76   vsprintf.o
        82          4          0          0          0        160   fcmp4.o
        24          0          0          0          0        116   fcmpi.o
       140          4          0          0          0        132   fnaninf.o
        10          0          0          0          0        116   fpinit.o
         4          0          0          0          0        116   printf1.o
         4          0          0          0          0        116   printf2.o
         0          0          0          0          0          0   usenofp.o
        72          0          0          0          0        148   fmaxf.o
        72          0          0          0          0        148   fminf.o
        48          0          0          0          0        124   fpclassify.o

    ----------------------------------------------------------------------
      7482        274        552          0        100       5248   Library Totals
        16          0          1          0          4          0   (incl. Padding)

    ----------------------------------------------------------------------

      Code (inc. data)   RO Data    RW Data    ZI Data      Debug   Library Name

      7010        266        551          0         96       4072   c_w.l
       264          8          0          0          0        756   fz_wm.l
       192          0          0          0          0        420   m_wm.l

    ----------------------------------------------------------------------
      7482        274        552          0        100       5248   Library Totals

    ----------------------------------------------------------------------

==============================================================================


      Code (inc. data)   RO Data    RW Data    ZI Data      Debug   

     27912       1282       1424         56       4264     962395   Grand Totals
     27912       1282       1424         56       4264     962395   ELF Image Totals
     27912       1282       1424         56          0          0   ROM Totals

==============================================================================

    Total RO  Size (Code + RO Data)                29336 (  28.65kB)
    Total RW  Size (RW Data + ZI Data)              4320 (   4.22kB)
    Total ROM Size (Code + RO Data + RW Data)      29392 (  28.70kB)

==============================================================================

